{
  "contractName": "HelperOrg",
  "abi": [
    {
      "constant": true,
      "inputs": [
        {
          "internalType": "contract Organisation[]",
          "name": "Orgaganisations",
          "type": "address[]"
        },
        {
          "internalType": "address",
          "name": "_orgAddress",
          "type": "address"
        },
        {
          "internalType": "address",
          "name": "stAddres",
          "type": "address"
        }
      ],
      "name": "getStudentDetail",
      "outputs": [
        {
          "internalType": "string",
          "name": "",
          "type": "string"
        },
        {
          "internalType": "uint256",
          "name": "",
          "type": "uint256"
        },
        {
          "internalType": "string",
          "name": "",
          "type": "string"
        },
        {
          "internalType": "address",
          "name": "",
          "type": "address"
        },
        {
          "internalType": "uint256",
          "name": "",
          "type": "uint256"
        },
        {
          "internalType": "address",
          "name": "",
          "type": "address"
        }
      ],
      "payable": false,
      "stateMutability": "view",
      "type": "function"
    },
    {
      "constant": true,
      "inputs": [
        {
          "internalType": "contract Organisation[]",
          "name": "organisations",
          "type": "address[]"
        },
        {
          "internalType": "address",
          "name": "_addr",
          "type": "address"
        }
      ],
      "name": "checkOrganisation",
      "outputs": [
        {
          "internalType": "string",
          "name": "",
          "type": "string"
        }
      ],
      "payable": false,
      "stateMutability": "view",
      "type": "function"
    },
    {
      "constant": true,
      "inputs": [
        {
          "internalType": "contract Organisation[]",
          "name": "Orgaganisations",
          "type": "address[]"
        },
        {
          "internalType": "address",
          "name": "_orgAddress",
          "type": "address"
        }
      ],
      "name": "getOrganisation",
      "outputs": [
        {
          "internalType": "contract Organisation",
          "name": "",
          "type": "address"
        }
      ],
      "payable": false,
      "stateMutability": "view",
      "type": "function"
    },
    {
      "constant": true,
      "inputs": [
        {
          "internalType": "contract Organisation",
          "name": "org",
          "type": "address"
        }
      ],
      "name": "totalCertificates",
      "outputs": [
        {
          "internalType": "uint256",
          "name": "",
          "type": "uint256"
        }
      ],
      "payable": false,
      "stateMutability": "view",
      "type": "function"
    },
    {
      "constant": true,
      "inputs": [
        {
          "internalType": "contract Organisation[]",
          "name": "Orgaganisations",
          "type": "address[]"
        },
        {
          "internalType": "address",
          "name": "add",
          "type": "address"
        }
      ],
      "name": "getOrganisationDetails",
      "outputs": [
        {
          "internalType": "string",
          "name": "",
          "type": "string"
        },
        {
          "internalType": "address",
          "name": "",
          "type": "address"
        },
        {
          "internalType": "uint256",
          "name": "",
          "type": "uint256"
        },
        {
          "internalType": "uint256",
          "name": "",
          "type": "uint256"
        },
        {
          "internalType": "uint256",
          "name": "",
          "type": "uint256"
        }
      ],
      "payable": false,
      "stateMutability": "view",
      "type": "function"
    },
    {
      "constant": true,
      "inputs": [
        {
          "internalType": "contract Organisation[]",
          "name": "Orgaganisations",
          "type": "address[]"
        },
        {
          "internalType": "address",
          "name": "add",
          "type": "address"
        }
      ],
      "name": "checkStudent",
      "outputs": [
        {
          "internalType": "string",
          "name": "",
          "type": "string"
        }
      ],
      "payable": false,
      "stateMutability": "view",
      "type": "function"
    },
    {
      "constant": true,
      "inputs": [
        {
          "internalType": "contract Organisation[]",
          "name": "Orgaganisations",
          "type": "address[]"
        },
        {
          "internalType": "address",
          "name": "add",
          "type": "address"
        },
        {
          "internalType": "address",
          "name": "suinque",
          "type": "address"
        }
      ],
      "name": "getStudent",
      "outputs": [
        {
          "internalType": "contract Student",
          "name": "",
          "type": "address"
        }
      ],
      "payable": false,
      "stateMutability": "view",
      "type": "function"
    },
    {
      "constant": true,
      "inputs": [
        {
          "internalType": "contract Organisation[]",
          "name": "Organisations",
          "type": "address[]"
        },
        {
          "internalType": "uint256",
          "name": "_id",
          "type": "uint256"
        },
        {
          "internalType": "address",
          "name": "student",
          "type": "address"
        },
        {
          "internalType": "address",
          "name": "_org",
          "type": "address"
        }
      ],
      "name": "checkAcess",
      "outputs": [
        {
          "internalType": "string",
          "name": "",
          "type": "string"
        }
      ],
      "payable": false,
      "stateMutability": "view",
      "type": "function"
    },
    {
      "constant": false,
      "inputs": [
        {
          "internalType": "contract Organisation[]",
          "name": "Organisations",
          "type": "address[]"
        },
        {
          "internalType": "uint256",
          "name": "_id",
          "type": "uint256"
        },
        {
          "internalType": "address",
          "name": "student",
          "type": "address"
        },
        {
          "internalType": "address",
          "name": "_org",
          "type": "address"
        }
      ],
      "name": "requestAcess",
      "outputs": [],
      "payable": false,
      "stateMutability": "nonpayable",
      "type": "function"
    },
    {
      "constant": true,
      "inputs": [
        {
          "internalType": "contract Organisation[]",
          "name": "Organisations",
          "type": "address[]"
        },
        {
          "internalType": "address",
          "name": "_org",
          "type": "address"
        },
        {
          "internalType": "address",
          "name": "_stu",
          "type": "address"
        },
        {
          "internalType": "uint256",
          "name": "_id",
          "type": "uint256"
        }
      ],
      "name": "requests",
      "outputs": [
        {
          "internalType": "address[]",
          "name": "",
          "type": "address[]"
        }
      ],
      "payable": false,
      "stateMutability": "view",
      "type": "function"
    },
    {
      "constant": false,
      "inputs": [
        {
          "internalType": "contract Organisation[]",
          "name": "Organisations",
          "type": "address[]"
        },
        {
          "internalType": "uint256",
          "name": "_id",
          "type": "uint256"
        },
        {
          "internalType": "address",
          "name": "student",
          "type": "address"
        },
        {
          "internalType": "address",
          "name": "_org",
          "type": "address"
        }
      ],
      "name": "giveAcess",
      "outputs": [],
      "payable": false,
      "stateMutability": "nonpayable",
      "type": "function"
    }
  ],
  "bytecode": "0x608060405234801561001057600080fd5b50611ab9806100206000396000f3fe608060405234801561001057600080fd5b50600436106100a95760003560e01c8063ab096cf511610071578063ab096cf51461014e578063bd11906914610163578063bee3e32514610183578063dd121998146101a8578063f902b77e146101bb578063fce9f721146101ce576100a9565b806306ae6148146100ae5780631a11a723146100d757806326c56720146100f7578063326948ad146101175780636458f5421461012a575b600080fd5b6100c16100bc366004611577565b6101e1565b6040516100ce9190611891565b60405180910390f35b6100ea6100e5366004611710565b6102b7565b6040516100ce919061195d565b61010a6101053660046116a4565b61042c565b6040516100ce919061189f565b61010a610125366004611577565b6104ca565b61013d610138366004611577565b61062e565b6040516100ce9594939291906118b0565b61016161015c3660046116a4565b6107b9565b005b61017661017136600461162c565b610830565b6040516100ce9190611880565b6101966101913660046115c8565b6108c2565b6040516100ce969594939291906118f7565b6101616101b63660046116a4565b610f4e565b61010a6101c9366004611577565b610f8c565b6100c16101dc3660046115c8565b611176565b6000805b83518110156102af57826001600160a01b031684828151811061020457fe5b60200260200101516001600160a01b031663c5d163756040518163ffffffff1660e01b815260040160206040518083038186803b15801561024457600080fd5b505afa158015610258573d6000803e3d6000fd5b505050506040513d601f19601f8201168201806040525061027c919081019061151c565b6001600160a01b031614156102a75783818151811061029757fe5b60200260200101519150506102b1565b6001016101e5565b505b92915050565b600080805b836001600160a01b03166330dc15536040518163ffffffff1660e01b815260040160206040518083038186803b1580156102f557600080fd5b505afa158015610309573d6000803e3d6000fd5b505050506040513d601f19601f8201168201806040525061032d9190810190611781565b8110156102af57604051630375691760e11b81526001600160a01b038516906306ead22e9061036090849060040161195d565b60206040518083038186803b15801561037857600080fd5b505afa15801561038c573d6000803e3d6000fd5b505050506040513d601f19601f820116820180604052506103b0919081019061172e565b6001600160a01b0316636af6d78c6040518163ffffffff1660e01b815260040160206040518083038186803b1580156103e857600080fd5b505afa1580156103fc573d6000803e3d6000fd5b505050506040513d601f19601f820116820180604052506104209190810190611781565b909101906001016102bc565b6060600061043b868486611176565b604051631db6c3b360e21b81529091506001600160a01b038216906376db0ecc9061046c9087908990600401611865565b60006040518083038186803b15801561048457600080fd5b505afa158015610498573d6000803e3d6000fd5b505050506040513d6000823e601f3d908101601f191682016040526104c0919081019061174c565b9695505050505050565b606060005b835181101561060d57826001600160a01b03168482815181106104ee57fe5b60200260200101516001600160a01b031663c5d163756040518163ffffffff1660e01b815260040160206040518083038186803b15801561052e57600080fd5b505afa158015610542573d6000803e3d6000fd5b505050506040513d601f19601f82011682018060405250610566919081019061151c565b6001600160a01b031614156106055783818151811061058157fe5b60200260200101516001600160a01b031663ec5d9e586040518163ffffffff1660e01b815260040160006040518083038186803b1580156105c157600080fd5b505afa1580156105d5573d6000803e3d6000fd5b505050506040513d6000823e601f3d908101601f191682016040526105fd919081019061174c565b9150506102b1565b6001016104cf565b50506040805180820190915260028152616e6f60f01b602082015292915050565b6060600080600080600061064288886101e1565b9050806001600160a01b031663ec5d9e586040518163ffffffff1660e01b815260040160006040518083038186803b15801561067d57600080fd5b505afa158015610691573d6000803e3d6000fd5b505050506040513d6000823e601f3d908101601f191682016040526106b9919081019061174c565b87826001600160a01b03166351c165d56040518163ffffffff1660e01b815260040160206040518083038186803b1580156106f357600080fd5b505afa158015610707573d6000803e3d6000fd5b505050506040513d601f19601f8201168201806040525061072b9190810190611781565b836001600160a01b03166330dc15536040518163ffffffff1660e01b815260040160206040518083038186803b15801561076457600080fd5b505afa158015610778573d6000803e3d6000fd5b505050506040513d601f19601f8201168201806040525061079c9190810190611781565b6107a5856102b7565b939c929b5090995097509095509350505050565b60006107c6858385611176565b60405163b32f36c960e01b81529091506001600160a01b0382169063b32f36c9906107f79086908890600401611865565b600060405180830381600087803b15801561081157600080fd5b505af1158015610825573d6000803e3d6000fd5b505050505050505050565b6060600061083f868686611176565b60405163103a258b60e31b81529091506001600160a01b038216906381d12c589061086e90869060040161195d565b60006040518083038186803b15801561088657600080fd5b505afa15801561089a573d6000803e3d6000fd5b505050506040513d6000823e601f3d908101601f191682016040526104c09190810190611542565b6060600060606000806000806108d88a8a6101e1565b905060005b816001600160a01b03166330dc15536040518163ffffffff1660e01b815260040160206040518083038186803b15801561091657600080fd5b505afa15801561092a573d6000803e3d6000fd5b505050506040513d601f19601f8201168201806040525061094e9190810190611781565b811015610f1357886001600160a01b0316826001600160a01b03166306ead22e836040518263ffffffff1660e01b815260040161098b919061195d565b60206040518083038186803b1580156109a357600080fd5b505afa1580156109b7573d6000803e3d6000fd5b505050506040513d601f19601f820116820180604052506109db919081019061172e565b6001600160a01b0316633e78c7c06040518163ffffffff1660e01b815260040160206040518083038186803b158015610a1357600080fd5b505afa158015610a27573d6000803e3d6000fd5b505050506040513d601f19601f82011682018060405250610a4b919081019061151c565b6001600160a01b03161415610f0b57604051630375691760e11b81526001600160a01b038316906306ead22e90610a8690849060040161195d565b60206040518083038186803b158015610a9e57600080fd5b505afa158015610ab2573d6000803e3d6000fd5b505050506040513d601f19601f82011682018060405250610ad6919081019061172e565b6001600160a01b031663ec3615cd6040518163ffffffff1660e01b815260040160006040518083038186803b158015610b0e57600080fd5b505afa158015610b22573d6000803e3d6000fd5b505050506040513d6000823e601f3d908101601f19168201604052610b4a919081019061174c565b604051630375691760e11b81526001600160a01b038416906306ead22e90610b7690859060040161195d565b60206040518083038186803b158015610b8e57600080fd5b505afa158015610ba2573d6000803e3d6000fd5b505050506040513d601f19601f82011682018060405250610bc6919081019061172e565b6001600160a01b0316634cd057426040518163ffffffff1660e01b815260040160206040518083038186803b158015610bfe57600080fd5b505afa158015610c12573d6000803e3d6000fd5b505050506040513d601f19601f82011682018060405250610c369190810190611781565b836001600160a01b031663ec5d9e586040518163ffffffff1660e01b815260040160006040518083038186803b158015610c6f57600080fd5b505afa158015610c83573d6000803e3d6000fd5b505050506040513d6000823e601f3d908101601f19168201604052610cab919081019061174c565b604051630375691760e11b81526001600160a01b038616906306ead22e90610cd790879060040161195d565b60206040518083038186803b158015610cef57600080fd5b505afa158015610d03573d6000803e3d6000fd5b505050506040513d601f19601f82011682018060405250610d27919081019061172e565b6001600160a01b0316633e78c7c06040518163ffffffff1660e01b815260040160206040518083038186803b158015610d5f57600080fd5b505afa158015610d73573d6000803e3d6000fd5b505050506040513d601f19601f82011682018060405250610d97919081019061151c565b604051630375691760e11b81526001600160a01b038716906306ead22e90610dc390889060040161195d565b60206040518083038186803b158015610ddb57600080fd5b505afa158015610def573d6000803e3d6000fd5b505050506040513d601f19601f82011682018060405250610e13919081019061172e565b6001600160a01b0316636af6d78c6040518163ffffffff1660e01b815260040160206040518083038186803b158015610e4b57600080fd5b505afa158015610e5f573d6000803e3d6000fd5b505050506040513d601f19601f82011682018060405250610e839190810190611781565b866001600160a01b031663c5d163756040518163ffffffff1660e01b815260040160206040518083038186803b158015610ebc57600080fd5b505afa158015610ed0573d6000803e3d6000fd5b505050506040513d601f19601f82011682018060405250610ef4919081019061151c565b949c50929a50909850965094509250610f42915050565b6001016108dd565b505060408051602080820183526000808352835191820190935282815290975090955093508492508291508190505b93975093979195509350565b6000610f5b858385611176565b60405163032c6ced60e01b81529091506001600160a01b0382169063032c6ced906107f79086908890600401611865565b606060005b835181101561060d5760005b848281518110610fa957fe5b60200260200101516001600160a01b03166330dc15536040518163ffffffff1660e01b815260040160206040518083038186803b158015610fe957600080fd5b505afa158015610ffd573d6000803e3d6000fd5b505050506040513d601f19601f820116820180604052506110219190810190611781565b81101561116d57836001600160a01b031685838151811061103e57fe5b60200260200101516001600160a01b03166306ead22e836040518263ffffffff1660e01b8152600401611071919061195d565b60206040518083038186803b15801561108957600080fd5b505afa15801561109d573d6000803e3d6000fd5b505050506040513d601f19601f820116820180604052506110c1919081019061172e565b6001600160a01b0316633e78c7c06040518163ffffffff1660e01b815260040160206040518083038186803b1580156110f957600080fd5b505afa15801561110d573d6000803e3d6000fd5b505050506040513d601f19601f82011682018060405250611131919081019061151c565b6001600160a01b03161415611165576040518060400160405280600381526020016279657360e81b815250925050506102b1565b600101610f9d565b50600101610f91565b60008061118385856101e1565b905060005b816001600160a01b03166330dc15536040518163ffffffff1660e01b815260040160206040518083038186803b1580156111c157600080fd5b505afa1580156111d5573d6000803e3d6000fd5b505050506040513d601f19601f820116820180604052506111f99190810190611781565b81101561139257836001600160a01b0316826001600160a01b03166306ead22e836040518263ffffffff1660e01b8152600401611236919061195d565b60206040518083038186803b15801561124e57600080fd5b505afa158015611262573d6000803e3d6000fd5b505050506040513d601f19601f82011682018060405250611286919081019061172e565b6001600160a01b0316633e78c7c06040518163ffffffff1660e01b815260040160206040518083038186803b1580156112be57600080fd5b505afa1580156112d2573d6000803e3d6000fd5b505050506040513d601f19601f820116820180604052506112f6919081019061151c565b6001600160a01b0316141561138a57604051630375691760e11b81526001600160a01b038316906306ead22e9061133190849060040161195d565b60206040518083038186803b15801561134957600080fd5b505afa15801561135d573d6000803e3d6000fd5b505050506040513d601f19601f82011682018060405250611381919081019061172e565b92505050611395565b600101611188565b50505b9392505050565b80356102b181611a4d565b80516102b181611a4d565b600082601f8301126113c357600080fd5b81516113d66113d182611992565b61196b565b915081818352602084019350602081019050838560208402820111156113fb57600080fd5b60005b83811015611427578161141188826113a7565b84525060209283019291909101906001016113fe565b5050505092915050565b600082601f83011261144257600080fd5b81356114506113d182611992565b9150818183526020840193506020810190508385602084028201111561147557600080fd5b60005b83811015611427578161148b88826114a1565b8452506020928301929190910190600101611478565b80356102b181611a64565b80516102b181611a64565b600082601f8301126114c857600080fd5b81516114d66113d1826119b3565b915080825260208301602083018583830111156114f257600080fd5b6114fd838284611a13565b50505092915050565b80356102b181611a6d565b80516102b181611a6d565b60006020828403121561152e57600080fd5b600061153a84846113a7565b949350505050565b60006020828403121561155457600080fd5b815167ffffffffffffffff81111561156b57600080fd5b61153a848285016113b2565b6000806040838503121561158a57600080fd5b823567ffffffffffffffff8111156115a157600080fd5b6115ad85828601611431565b92505060206115be8582860161139c565b9150509250929050565b6000806000606084860312156115dd57600080fd5b833567ffffffffffffffff8111156115f457600080fd5b61160086828701611431565b93505060206116118682870161139c565b92505060406116228682870161139c565b9150509250925092565b6000806000806080858703121561164257600080fd5b843567ffffffffffffffff81111561165957600080fd5b61166587828801611431565b94505060206116768782880161139c565b93505060406116878782880161139c565b925050606061169887828801611506565b91505092959194509250565b600080600080608085870312156116ba57600080fd5b843567ffffffffffffffff8111156116d157600080fd5b6116dd87828801611431565b94505060206116ee87828801611506565b93505060406116ff8782880161139c565b92505060606116988782880161139c565b60006020828403121561172257600080fd5b600061153a84846114a1565b60006020828403121561174057600080fd5b600061153a84846114ac565b60006020828403121561175e57600080fd5b815167ffffffffffffffff81111561177557600080fd5b61153a848285016114b7565b60006020828403121561179357600080fd5b600061153a8484611511565b60006117ab83836117b3565b505060200190565b6117bc816119ee565b82525050565b60006117cd826119e1565b6117d781856119e5565b93506117e2836119db565b8060005b838110156118105781516117fa888261179f565b9750611805836119db565b9250506001016117e6565b509495945050505050565b6117bc816119f9565b600061182f826119e1565b61183981856119e5565b9350611849818560208601611a13565b61185281611a43565b9093019392505050565b6117bc81611a10565b6040810161187382856117b3565b611395602083018461185c565b6020808252810161139581846117c2565b602081016102b1828461181b565b602080825281016113958184611824565b60a080825281016118c18188611824565b90506118d060208301876117b3565b6118dd604083018661185c565b6118ea606083018561185c565b6104c0608083018461185c565b60c080825281016119088189611824565b9050611917602083018861185c565b81810360408301526119298187611824565b905061193860608301866117b3565b611945608083018561185c565b61195260a08301846117b3565b979650505050505050565b602081016102b1828461185c565b60405181810167ffffffffffffffff8111828210171561198a57600080fd5b604052919050565b600067ffffffffffffffff8211156119a957600080fd5b5060209081020190565b600067ffffffffffffffff8211156119ca57600080fd5b506020601f91909101601f19160190565b60200190565b5190565b90815260200190565b60006102b182611a04565b60006102b1826119ee565b6001600160a01b031690565b90565b60005b83811015611a2e578181015183820152602001611a16565b83811115611a3d576000848401525b50505050565b601f01601f191690565b611a56816119ee565b8114611a6157600080fd5b50565b611a56816119f9565b611a5681611a1056fea365627a7a72315820db3af0c247cd17fd24180c60d5a95c86f8d14daff7eb371c77d0117719c46fc36c6578706572696d656e74616cf564736f6c63430005100040",
  "source": "// SPDX-License-Identifier: MIT\npragma solidity >=0.4.21 <0.7.0;\npragma experimental ABIEncoderV2;\nimport \"./Organisation.sol\";\nimport \"./Student.sol\";\nimport \"./Company.sol\";\nimport \"./OverAll.sol\";\nimport \"./Company.sol\";\n\ncontract HelperOrg {\n    function getStudentDetail(\n        Organisation[] memory Orgaganisations,\n        address _orgAddress,\n        address stAddres\n    )\n        public\n        view\n        returns (\n            string memory,\n            uint256,\n            string memory,\n            address,\n            uint256,\n            address \n        )\n    {\n        Organisation org = getOrganisation(Orgaganisations, _orgAddress);\n        for (uint256 k = 0; k < org.noOfStudents(); k++) {\n            if (org.students(k).student_acc_address() == stAddres) {\n                return (\n                    org.students(k).student_name(),\n                    org.students(k).student_unique_id(),\n                    org.organisationName(),\n                    org.students(k).student_acc_address(),\n                    org.students(k).noOfCertificates(),\n                    org.organisationAddress()\n                );\n            }\n        }\n\n        return (\"\", 0, \"\", address(0), 0,address(0));\n    }\n\n    function checkOrganisation(\n        Organisation[] memory organisations,\n        address _addr\n    ) public view returns (string memory) {\n        for (uint256 i = 0; i < organisations.length; i++) {\n            if (organisations[i].organisationAddress() == _addr) {\n                return organisations[i].organisationName();\n            }\n        }\n        return \"no\";\n    }\n\n    function getOrganisation(\n        Organisation[] memory Orgaganisations,\n        address _orgAddress\n    ) public view returns (Organisation) {\n        for (uint256 i = 0; i < Orgaganisations.length; i++) {\n            if (Orgaganisations[i].organisationAddress() == _orgAddress) {\n                return Orgaganisations[i];\n            }\n        }\n    }\n\n    function totalCertificates(Organisation org) public view returns (uint256) {\n        uint256 total = 0;\n        for (uint256 i = 0; i < org.noOfStudents(); i++) {\n            total += org.students(i).noOfCertificates();\n        }\n        return total;\n    }\n\n    function getOrganisationDetails(\n        Organisation[] memory Orgaganisations,\n        address add\n    )\n        public\n        view\n        returns (\n            string memory,\n            address,\n            uint256,\n            uint256,\n            uint256\n        )\n    {\n        Organisation org = getOrganisation(Orgaganisations, add);\n\n        return (\n            org.organisationName(),\n            add,\n            org.noOfUniqueIds(),\n            org.noOfStudents(),\n            totalCertificates(org)\n        );\n    }\n\n    function checkStudent(Organisation[] memory Orgaganisations, address add)\n        public\n        view\n        returns (string memory)\n    {\n        for (uint256 i = 0; i < Orgaganisations.length; i++) {\n            for (uint256 j = 0; j < Orgaganisations[i].noOfStudents(); j++) {\n                if (\n                    Orgaganisations[i].students(j).student_acc_address() == add\n                ) {\n                    return \"yes\";\n                }\n            }\n        }\n        return \"no\";\n    }\n\n    function getStudent(\n        Organisation[] memory Orgaganisations,\n        address add,\n        address suinque\n    ) public view returns (Student) {\n        Organisation org = getOrganisation(Orgaganisations, add);\n        for (uint256 i = 0; i < org.noOfStudents(); i++) {\n            if (org.students(i).student_acc_address() == suinque) {\n                return org.students(i);\n            }\n        }\n    }\n\n    function checkAcess(\n        Organisation[] memory Organisations,\n        uint256 _id,\n        address student,\n        address _org\n    ) public view returns (string memory) {\n        Student st = getStudent(Organisations, _org, student);\n        return st.hasAcess(student, _id);\n    }\n\n    function requestAcess(\n        Organisation[] memory Organisations,\n        uint256 _id,\n        address student,\n        address _org\n    ) public {\n        Student st = getStudent(Organisations, _org, student);\n        st.requestAcess(student, _id);\n    }\n\n    function requests(\n        Organisation[] memory Organisations,\n        address _org,\n        address _stu,\n        uint256 _id\n    ) public view returns (address[] memory) {\n        Student st = getStudent(Organisations, _org, _stu);\n        return st.requests(_id);\n    }\n\n    function giveAcess(\n        Organisation[] memory Organisations,\n        uint256 _id,\n        address student,\n        address _org\n    ) public {\n        Student st = getStudent(Organisations, _org, student);\n        st.giveAcess(student, _id);\n    }\n}\n",
  "sourcePath": "C:\\Users\\sthipp005\\Downloads\\cryptoblockchain\\blockcrypto\\contracts\\HelperOrg.sol",
  "compiler": {
    "name": "solc",
    "version": "0.5.16+commit.9c3226ce.Emscripten.clang"
  },
  "schemaVersion": "3.4.11",
  "updatedAt": "2023-02-20T16:00:59.877Z",
  "networkType": "ethereum",
  "devdoc": {
    "methods": {}
  },
  "userdoc": {
    "methods": {}
  }
}