{
  "contractName": "HelperTwo",
  "abi": [
    {
      "constant": true,
      "inputs": [
        {
          "internalType": "contract Company[]",
          "name": "companies",
          "type": "address[]"
        },
        {
          "internalType": "address",
          "name": "_addr",
          "type": "address"
        }
      ],
      "name": "checkCompany",
      "outputs": [
        {
          "internalType": "string",
          "name": "",
          "type": "string"
        }
      ],
      "payable": false,
      "stateMutability": "view",
      "type": "function"
    },
    {
      "constant": true,
      "inputs": [
        {
          "internalType": "contract Company[]",
          "name": "companies",
          "type": "address[]"
        },
        {
          "internalType": "address",
          "name": "_addr",
          "type": "address"
        }
      ],
      "name": "getCompany",
      "outputs": [
        {
          "internalType": "contract Company",
          "name": "",
          "type": "address"
        }
      ],
      "payable": false,
      "stateMutability": "view",
      "type": "function"
    },
    {
      "constant": true,
      "inputs": [
        {
          "internalType": "contract Company[]",
          "name": "companies",
          "type": "address[]"
        },
        {
          "internalType": "address",
          "name": "_addr",
          "type": "address"
        }
      ],
      "name": "getCompanyDetails",
      "outputs": [
        {
          "internalType": "string",
          "name": "",
          "type": "string"
        },
        {
          "internalType": "address",
          "name": "",
          "type": "address"
        },
        {
          "internalType": "uint256",
          "name": "",
          "type": "uint256"
        },
        {
          "internalType": "uint256",
          "name": "",
          "type": "uint256"
        }
      ],
      "payable": false,
      "stateMutability": "view",
      "type": "function"
    },
    {
      "constant": true,
      "inputs": [
        {
          "internalType": "contract Company[]",
          "name": "companies",
          "type": "address[]"
        }
      ],
      "name": "totalJobs",
      "outputs": [
        {
          "internalType": "uint256",
          "name": "",
          "type": "uint256"
        }
      ],
      "payable": false,
      "stateMutability": "view",
      "type": "function"
    }
  ],
  "bytecode": "0x608060405234801561001057600080fd5b50610948806100206000396000f3fe608060405234801561001057600080fd5b506004361061004c5760003560e01c8063179a78c31461005157806334072c521461007d578063551218431461009d578063b996f060146100bd575b600080fd5b61006461005f36600461068c565b6100dd565b60405161007494939291906107af565b60405180910390f35b61009061008b366004610657565b61025a565b60405161007491906107f2565b6100b06100ab36600461068c565b6102ff565b6040516100749190610789565b6100d06100cb36600461068c565b6103d3565b6040516100749190610797565b60606000806000806100ef87876102ff565b9050806001600160a01b031663f5ec2eed6040518163ffffffff1660e01b815260040160006040518083038186803b15801561012a57600080fd5b505afa15801561013e573d6000803e3d6000fd5b505050506040513d6000823e601f3d908101601f1916820160405261016691908101906106dd565b86826001600160a01b03166342bd82726040518163ffffffff1660e01b815260040160206040518083038186803b1580156101a057600080fd5b505afa1580156101b4573d6000803e3d6000fd5b505050506040513d601f19601f820116820180604052506101d89190810190610712565b836001600160a01b031663323046b16040518163ffffffff1660e01b815260040160206040518083038186803b15801561021157600080fd5b505afa158015610225573d6000803e3d6000fd5b505050506040513d601f19601f820116820180604052506102499190810190610712565b929a91995097509095509350505050565b600080805b83518110156102f85783818151811061027457fe5b60200260200101516001600160a01b03166342bd82726040518163ffffffff1660e01b815260040160206040518083038186803b1580156102b457600080fd5b505afa1580156102c8573d6000803e3d6000fd5b505050506040513d601f19601f820116820180604052506102ec9190810190610712565b9091019060010161025f565b5092915050565b6000805b83518110156102f857826001600160a01b031684828151811061032257fe5b60200260200101516001600160a01b03166353e1ead96040518163ffffffff1660e01b815260040160206040518083038186803b15801561036257600080fd5b505afa158015610376573d6000803e3d6000fd5b505050506040513d601f19601f8201168201806040525061039a9190810190610631565b6001600160a01b031614156103c5578381815181106103b557fe5b60200260200101519150506103cd565b600101610303565b92915050565b606060005b835181101561051657826001600160a01b03168482815181106103f757fe5b60200260200101516001600160a01b03166353e1ead96040518163ffffffff1660e01b815260040160206040518083038186803b15801561043757600080fd5b505afa15801561044b573d6000803e3d6000fd5b505050506040513d601f19601f8201168201806040525061046f9190810190610631565b6001600160a01b0316141561050e5783818151811061048a57fe5b60200260200101516001600160a01b031663f5ec2eed6040518163ffffffff1660e01b815260040160006040518083038186803b1580156104ca57600080fd5b505afa1580156104de573d6000803e3d6000fd5b505050506040513d6000823e601f3d908101601f1916820160405261050691908101906106dd565b9150506103cd565b6001016103d8565b50506040805180820190915260028152616e6f60f01b602082015292915050565b80356103cd816108dc565b80516103cd816108dc565b600082601f83011261055e57600080fd5b813561057161056c82610827565b610800565b9150818183526020840193506020810190508385602084028201111561059657600080fd5b60005b838110156105c257816105ac88826105cc565b8452506020928301929190910190600101610599565b5050505092915050565b80356103cd816108f3565b600082601f8301126105e857600080fd5b81516105f661056c82610848565b9150808252602083016020830185838301111561061257600080fd5b61061d8382846108a2565b50505092915050565b80516103cd816108fc565b60006020828403121561064357600080fd5b600061064f8484610542565b949350505050565b60006020828403121561066957600080fd5b813567ffffffffffffffff81111561068057600080fd5b61064f8482850161054d565b6000806040838503121561069f57600080fd5b823567ffffffffffffffff8111156106b657600080fd5b6106c28582860161054d565b92505060206106d385828601610537565b9150509250929050565b6000602082840312156106ef57600080fd5b815167ffffffffffffffff81111561070657600080fd5b61064f848285016105d7565b60006020828403121561072457600080fd5b600061064f8484610626565b6107398161087d565b82525050565b61073981610888565b600061075382610870565b61075d8185610874565b935061076d8185602086016108a2565b610776816108d2565b9093019392505050565b6107398161089f565b602081016103cd828461073f565b602080825281016107a88184610748565b9392505050565b608080825281016107c08187610748565b90506107cf6020830186610730565b6107dc6040830185610780565b6107e96060830184610780565b95945050505050565b602081016103cd8284610780565b60405181810167ffffffffffffffff8111828210171561081f57600080fd5b604052919050565b600067ffffffffffffffff82111561083e57600080fd5b5060209081020190565b600067ffffffffffffffff82111561085f57600080fd5b506020601f91909101601f19160190565b5190565b90815260200190565b60006103cd82610893565b60006103cd8261087d565b6001600160a01b031690565b90565b60005b838110156108bd5781810151838201526020016108a5565b838111156108cc576000848401525b50505050565b601f01601f191690565b6108e58161087d565b81146108f057600080fd5b50565b6108e581610888565b6108e58161089f56fea365627a7a723158208628179e6b49d43bc7444816836bb45e4dacfc91964860485dcc3645d0fada326c6578706572696d656e74616cf564736f6c63430005100040",
  "source": "// SPDX-License-Identifier: MIT\npragma solidity >=0.4.21 <0.7.0;\npragma experimental ABIEncoderV2;\nimport \"./Company.sol\";\nimport \"./Organisation.sol\";\n\ncontract HelperTwo {\n    function checkCompany(Company[] memory companies, address _addr)\n        public\n        view\n        returns (string memory)\n    {\n        for (uint256 i = 0; i < companies.length; i++) {\n            if (companies[i].companyAddress() == _addr) {\n                return companies[i].companyName();\n            }\n        }\n        return \"no\";\n    }\n\n    function getCompany(Company[] memory companies, address _addr)\n        public\n        view\n        returns (Company)\n    {\n        for (uint256 i = 0; i < companies.length; i++) {\n            if (companies[i].companyAddress() == _addr) {\n                return companies[i];\n            }\n        }\n    }\n\n    function getCompanyDetails(Company[] memory companies, address _addr)\n        public\n        view\n        returns (\n            string memory,\n            address,\n            uint256,\n            uint256\n        )\n    {\n        Company com = getCompany(companies, _addr);\n        return (com.companyName(), _addr, com.noOfJobs(), com.date());\n    }\n\n    function totalJobs(Company[] memory companies)\n        public\n        view\n        returns (uint256)\n    {\n        uint256 total = 0;\n        for (uint256 i = 0; i < companies.length; i++) {\n            total += companies[i].noOfJobs();\n        }\n        return total;\n    }\n}\n",
  "sourcePath": "C:\\Users\\sthipp005\\Downloads\\cryptoblockchain\\blockcrypto\\contracts\\HelperTwo.sol",
  "compiler": {
    "name": "solc",
    "version": "0.5.16+commit.9c3226ce.Emscripten.clang"
  },
  "schemaVersion": "3.4.11",
  "updatedAt": "2023-02-20T16:01:01.782Z",
  "networkType": "ethereum",
  "devdoc": {
    "methods": {}
  },
  "userdoc": {
    "methods": {}
  }
}