{
  "contractName": "Job",
  "abi": [
    {
      "constant": true,
      "inputs": [
        {
          "internalType": "uint256",
          "name": "",
          "type": "uint256"
        }
      ],
      "name": "appliedBy",
      "outputs": [
        {
          "internalType": "address",
          "name": "",
          "type": "address"
        }
      ],
      "payable": false,
      "stateMutability": "view",
      "type": "function"
    },
    {
      "constant": true,
      "inputs": [
        {
          "internalType": "uint256",
          "name": "",
          "type": "uint256"
        }
      ],
      "name": "certificateIds",
      "outputs": [
        {
          "internalType": "uint256",
          "name": "",
          "type": "uint256"
        }
      ],
      "payable": false,
      "stateMutability": "view",
      "type": "function"
    },
    {
      "constant": true,
      "inputs": [],
      "name": "companyName",
      "outputs": [
        {
          "internalType": "string",
          "name": "",
          "type": "string"
        }
      ],
      "payable": false,
      "stateMutability": "view",
      "type": "function"
    },
    {
      "constant": true,
      "inputs": [],
      "name": "hired",
      "outputs": [
        {
          "internalType": "address",
          "name": "",
          "type": "address"
        }
      ],
      "payable": false,
      "stateMutability": "view",
      "type": "function"
    },
    {
      "constant": true,
      "inputs": [
        {
          "internalType": "uint256",
          "name": "",
          "type": "uint256"
        }
      ],
      "name": "ipfsC",
      "outputs": [
        {
          "internalType": "string",
          "name": "",
          "type": "string"
        }
      ],
      "payable": false,
      "stateMutability": "view",
      "type": "function"
    },
    {
      "constant": true,
      "inputs": [],
      "name": "isActiv",
      "outputs": [
        {
          "internalType": "bool",
          "name": "",
          "type": "bool"
        }
      ],
      "payable": false,
      "stateMutability": "view",
      "type": "function"
    },
    {
      "constant": true,
      "inputs": [],
      "name": "jobId",
      "outputs": [
        {
          "internalType": "uint256",
          "name": "",
          "type": "uint256"
        }
      ],
      "payable": false,
      "stateMutability": "view",
      "type": "function"
    },
    {
      "constant": true,
      "inputs": [],
      "name": "jobLocation",
      "outputs": [
        {
          "internalType": "string",
          "name": "",
          "type": "string"
        }
      ],
      "payable": false,
      "stateMutability": "view",
      "type": "function"
    },
    {
      "constant": true,
      "inputs": [],
      "name": "jobName",
      "outputs": [
        {
          "internalType": "string",
          "name": "",
          "type": "string"
        }
      ],
      "payable": false,
      "stateMutability": "view",
      "type": "function"
    },
    {
      "constant": true,
      "inputs": [],
      "name": "jobType",
      "outputs": [
        {
          "internalType": "string",
          "name": "",
          "type": "string"
        }
      ],
      "payable": false,
      "stateMutability": "view",
      "type": "function"
    },
    {
      "constant": true,
      "inputs": [],
      "name": "noOfApplied",
      "outputs": [
        {
          "internalType": "uint256",
          "name": "",
          "type": "uint256"
        }
      ],
      "payable": false,
      "stateMutability": "view",
      "type": "function"
    },
    {
      "constant": true,
      "inputs": [
        {
          "internalType": "uint256",
          "name": "",
          "type": "uint256"
        }
      ],
      "name": "notVerified",
      "outputs": [
        {
          "internalType": "address",
          "name": "",
          "type": "address"
        }
      ],
      "payable": false,
      "stateMutability": "view",
      "type": "function"
    },
    {
      "constant": true,
      "inputs": [],
      "name": "postedBy",
      "outputs": [
        {
          "internalType": "address",
          "name": "",
          "type": "address"
        }
      ],
      "payable": false,
      "stateMutability": "view",
      "type": "function"
    },
    {
      "constant": true,
      "inputs": [
        {
          "internalType": "uint256",
          "name": "",
          "type": "uint256"
        }
      ],
      "name": "rejected",
      "outputs": [
        {
          "internalType": "address",
          "name": "",
          "type": "address"
        }
      ],
      "payable": false,
      "stateMutability": "view",
      "type": "function"
    },
    {
      "constant": true,
      "inputs": [],
      "name": "salary",
      "outputs": [
        {
          "internalType": "uint256",
          "name": "",
          "type": "uint256"
        }
      ],
      "payable": false,
      "stateMutability": "view",
      "type": "function"
    },
    {
      "constant": false,
      "inputs": [
        {
          "internalType": "string",
          "name": "_jobName",
          "type": "string"
        },
        {
          "internalType": "address",
          "name": "_postedBy",
          "type": "address"
        },
        {
          "internalType": "uint256",
          "name": "_salary",
          "type": "uint256"
        },
        {
          "internalType": "string",
          "name": "_jobLocation",
          "type": "string"
        },
        {
          "internalType": "string",
          "name": "_jobType",
          "type": "string"
        },
        {
          "internalType": "uint256",
          "name": "_jobid",
          "type": "uint256"
        },
        {
          "internalType": "string",
          "name": "_companyName",
          "type": "string"
        }
      ],
      "name": "addJob",
      "outputs": [],
      "payable": false,
      "stateMutability": "nonpayable",
      "type": "function"
    },
    {
      "constant": false,
      "inputs": [
        {
          "internalType": "address",
          "name": "addr",
          "type": "address"
        },
        {
          "internalType": "string",
          "name": "ipfs",
          "type": "string"
        },
        {
          "internalType": "uint256",
          "name": "cerId",
          "type": "uint256"
        }
      ],
      "name": "applyJob",
      "outputs": [],
      "payable": false,
      "stateMutability": "nonpayable",
      "type": "function"
    },
    {
      "constant": true,
      "inputs": [],
      "name": "getRequests",
      "outputs": [
        {
          "internalType": "address[]",
          "name": "",
          "type": "address[]"
        },
        {
          "internalType": "string[]",
          "name": "",
          "type": "string[]"
        },
        {
          "internalType": "uint256[]",
          "name": "",
          "type": "uint256[]"
        }
      ],
      "payable": false,
      "stateMutability": "view",
      "type": "function"
    },
    {
      "constant": false,
      "inputs": [
        {
          "internalType": "address",
          "name": "addr",
          "type": "address"
        }
      ],
      "name": "reject",
      "outputs": [],
      "payable": false,
      "stateMutability": "nonpayable",
      "type": "function"
    },
    {
      "constant": false,
      "inputs": [
        {
          "internalType": "uint256",
          "name": "index",
          "type": "uint256"
        }
      ],
      "name": "removeApplied",
      "outputs": [],
      "payable": false,
      "stateMutability": "nonpayable",
      "type": "function"
    },
    {
      "constant": false,
      "inputs": [
        {
          "internalType": "uint256",
          "name": "index",
          "type": "uint256"
        }
      ],
      "name": "removeIpfs",
      "outputs": [],
      "payable": false,
      "stateMutability": "nonpayable",
      "type": "function"
    },
    {
      "constant": false,
      "inputs": [
        {
          "internalType": "uint256",
          "name": "index",
          "type": "uint256"
        }
      ],
      "name": "removeCertificateId",
      "outputs": [],
      "payable": false,
      "stateMutability": "nonpayable",
      "type": "function"
    },
    {
      "constant": false,
      "inputs": [
        {
          "internalType": "uint256",
          "name": "index",
          "type": "uint256"
        }
      ],
      "name": "remove",
      "outputs": [],
      "payable": false,
      "stateMutability": "nonpayable",
      "type": "function"
    },
    {
      "constant": true,
      "inputs": [
        {
          "internalType": "address",
          "name": "add",
          "type": "address"
        }
      ],
      "name": "checkVerification",
      "outputs": [
        {
          "internalType": "string",
          "name": "",
          "type": "string"
        }
      ],
      "payable": false,
      "stateMutability": "view",
      "type": "function"
    },
    {
      "constant": false,
      "inputs": [
        {
          "internalType": "address",
          "name": "addr",
          "type": "address"
        }
      ],
      "name": "verified",
      "outputs": [],
      "payable": false,
      "stateMutability": "nonpayable",
      "type": "function"
    },
    {
      "constant": true,
      "inputs": [
        {
          "internalType": "address",
          "name": "stu",
          "type": "address"
        }
      ],
      "name": "jobStatus",
      "outputs": [
        {
          "internalType": "string",
          "name": "status",
          "type": "string"
        }
      ],
      "payable": false,
      "stateMutability": "view",
      "type": "function"
    },
    {
      "constant": false,
      "inputs": [
        {
          "internalType": "address",
          "name": "add",
          "type": "address"
        }
      ],
      "name": "setHired",
      "outputs": [],
      "payable": false,
      "stateMutability": "nonpayable",
      "type": "function"
    },
    {
      "constant": true,
      "inputs": [],
      "name": "isActive",
      "outputs": [
        {
          "internalType": "bool",
          "name": "",
          "type": "bool"
        }
      ],
      "payable": false,
      "stateMutability": "view",
      "type": "function"
    }
  ],
  "bytecode": "0x608060405234801561001057600080fd5b50611589806100206000396000f3fe608060405234801561001057600080fd5b50600436106101c45760003560e01c80638813ce12116100f9578063baab979711610097578063dce523f811610071578063dce523f814610366578063f5ec2eed14610379578063f683747b14610381578063faf34aa914610394576101c4565b8063baab979714610338578063c2939d971461034b578063cd29485614610353576101c4565b8063a1194fcf116100d3578063a1194fcf146102f7578063ab0da5a91461030a578063b4cc4f791461031d578063b8d80f9a14610330576101c4565b80638813ce12146102c55780638c9878cc146102dc5780639056631d146102ef576101c4565b80633cb0cb20116101665780635c8ee5cf116101405780635c8ee5cf1461029a5780635d35f5f9146102ad5780637b2414e1146102b55780638080be77146102bd576101c4565b80633cb0cb20146102545780634cc82215146102675780634e38679a1461027a576101c4565b80631c270356116101a25780631c2703561461020f5780631eba26791461022f57806322bd6d3f1461023757806322f3e2d41461023f576101c4565b80630397b652146101c95780630db065f4146101e75780630f9c774d146101fc575b600080fd5b6101d16103a7565b6040516101de9190611457565b60405180910390f35b6101fa6101f53660046110a3565b6103ad565b005b6101d161020a366004611229565b610401565b61022261021d366004611229565b61041f565b6040516101de91906113e8565b610222610446565b610222610455565b610247610464565b6040516101de9190611438565b6101fa61026236600461112e565b610475565b6101fa610275366004611229565b610506565b61028d6102883660046110a3565b6105ae565b6040516101de9190611446565b6101fa6102a83660046110a3565b6106ed565b61028d610716565b6101d16107a4565b61028d6107aa565b6102cd610805565b6040516101de939291906113f6565b6102226102ea366004611229565b61099b565b6102476109a8565b61028d610305366004611229565b6109b8565b6101fa6103183660046110a3565b610a2b565b6101fa61032b3660046110c9565b610ad5565b61028d610bf3565b61028d6103463660046110a3565b610c4e565b6101d1610ce7565b6101fa610361366004611229565b610ced565b6101fa610374366004611229565b610d5e565b61028d610de1565b61022261038f366004611229565b610e3c565b6101fa6103a2366004611229565b610e49565b60055481565b60005b600a548110156103fd57816001600160a01b0316600a82815481106103d157fe5b6000918252602090912001546001600160a01b031614156103f5576103f581610506565b6001016103b0565b5050565b600c818154811061040e57fe5b600091825260209091200154905081565b6002818154811061042c57fe5b6000918252602090912001546001600160a01b0316905081565b6001546001600160a01b031681565b600d546001600160a01b031681565b600d54600160a01b900460ff165b90565b86516104889060009060208a0190610edf565b50600180546001600160a01b0319166001600160a01b038816179055600585905583516104bc906006906020870190610edf565b5082516104d0906007906020860190610edf565b50600482905580516104e9906008906020840190610edf565b5050600d805460ff60a01b1916600160a01b179055505050505050565b805b600a546000190181101561057d57600a816001018154811061052657fe5b600091825260209091200154600a80546001600160a01b03909216918390811061054c57fe5b600091825260209091200180546001600160a01b0319166001600160a01b0392909216919091179055600101610508565b50600a80548061058957fe5b600082815260209020810160001990810180546001600160a01b031916905501905550565b600d546060906001600160a01b03838116911614156105e95750604080518082019091526005815264121254915160da1b60208201526106e8565b60005b60025481101561065557826001600160a01b03166002828154811061060d57fe5b6000918252602090912001546001600160a01b0316141561064d5750506040805180820190915260078152661054141312515160ca1b60208201526106e8565b6001016105ec565b5060005b6009548110156106c357826001600160a01b03166009828154811061067a57fe5b6000918252602090912001546001600160a01b031614156106bb5750506040805180820190915260088152671491529150d5115160c21b60208201526106e8565b600101610659565b505060408051808201909152600b81526a1393d5081054141312515160aa1b60208201525b919050565b600d80546001600160a01b0319166001600160a01b03929092169190911760ff60a01b19169055565b6006805460408051602060026001851615610100026000190190941693909304601f8101849004840282018401909252818152929183018282801561079c5780601f106107715761010080835404028352916020019161079c565b820191906000526020600020905b81548152906001019060200180831161077f57829003601f168201915b505050505081565b60035481565b6007805460408051602060026001851615610100026000190190941693909304601f8101849004840282018401909252818152929183018282801561079c5780601f106107715761010080835404028352916020019161079c565b60608060606002600b600c8280548060200260200160405190810160405280929190818152602001828054801561086557602002820191906000526020600020905b81546001600160a01b03168152600190910190602001808311610847575b5050505050925081805480602002602001604051908101604052809291908181526020016000905b828210156109385760008481526020908190208301805460408051601f60026000196101006001871615020190941693909304928301859004850281018501909152818152928301828280156109245780601f106108f957610100808354040283529160200191610924565b820191906000526020600020905b81548152906001019060200180831161090757829003601f168201915b50505050508152602001906001019061088d565b5050505091508080548060200260200160405190810160405280929190818152602001828054801561098957602002820191906000526020600020905b815481526020019060010190808311610975575b50505050509050925092509250909192565b6009818154811061042c57fe5b600d54600160a01b900460ff1681565b600b81815481106109c557fe5b600091825260209182902001805460408051601f600260001961010060018716150201909416939093049283018590048502810185019091528181529350909183018282801561079c5780601f106107715761010080835404028352916020019161079c565b6009805460018101825560009182527f6e1540171b6c0c960b71a7020d9f60077f6af931a8bbf590da0223dacf75c7af0180546001600160a01b0319166001600160a01b0384161790555b6002548110156103fd57816001600160a01b031660028281548110610a9757fe5b6000918252602090912001546001600160a01b03161415610acd57610abb81610d5e565b610ac481610e49565b610acd81610ced565b600101610a76565b6002805460018082019092557f405787fa12a823e0f2b7631cc41b3ba8828b3321ca811111fa75cd3aa3bb5ace0180546001600160a01b0319166001600160a01b038616179055600b805491820180825560009190915283519091610b63917f0175b7a638427703f0dbe7bb9bbf987a2551717b34e79f33b5b1008d1fa01db9909101906020860190610edf565b5050600c805460018082019092557fdf6966c971051c3d54ec59162606531493a51404a002842f56009d7e5cf4a8c70191909155600a805480830182556000919091527fc65a7bb8d6351c1cf70c95a316cc6a92839c986682d98bc35f958f4883f9d2a80180546001600160a01b0319166001600160a01b03949094169390931790925550600380549091019055565b6000805460408051602060026001851615610100026000190190941693909304601f8101849004840282018401909252818152929183018282801561079c5780601f106107715761010080835404028352916020019161079c565b606060005b600a54811015610cc157826001600160a01b0316600a8281548110610c7457fe5b6000918252602090912001546001600160a01b03161415610cb957505060408051808201909152600c81526b139bdd0815995c9a599a595960a21b60208201526106e8565b600101610c53565b505060408051808201909152600881526715995c9a599a595960c21b6020820152919050565b60045481565b805b600c5460001901811015610d3957600c8160010181548110610d0d57fe5b9060005260206000200154600c8281548110610d2557fe5b600091825260209091200155600101610cef565b50600c805480610d4557fe5b6001900381819060005260206000200160009055905550565b805b60025460001901811015610dd55760028160010181548110610d7e57fe5b600091825260209091200154600280546001600160a01b039092169183908110610da457fe5b600091825260209091200180546001600160a01b0319166001600160a01b0392909216919091179055600101610d60565b50600280548061058957fe5b6008805460408051602060026001851615610100026000190190941693909304601f8101849004840282018401909252818152929183018282801561079c5780601f106107715761010080835404028352916020019161079c565b600a818154811061042c57fe5b805b600b5460001901811015610eb257600b8160010181548110610e6957fe5b90600052602060002001600b8281548110610e8057fe5b906000526020600020019080546001816001161561010002031660029004610ea9929190610f5d565b50600101610e4b565b50600b805480610ebe57fe5b600190038181906000526020600020016000610eda9190610fd2565b905550565b828054600181600116156101000203166002900490600052602060002090601f016020900481019282601f10610f2057805160ff1916838001178555610f4d565b82800160010185558215610f4d579182015b82811115610f4d578251825591602001919060010190610f32565b50610f59929150611019565b5090565b828054600181600116156101000203166002900490600052602060002090601f016020900481019282601f10610f965780548555610f4d565b82800160010185558215610f4d57600052602060002091601f016020900482015b82811115610f4d578254825591600101919060010190610fb7565b50805460018160011615610100020316600290046000825580601f10610ff85750611016565b601f0160209004906000526020600020908101906110169190611019565b50565b61047291905b80821115610f59576000815560010161101f565b803561103e81611529565b92915050565b600082601f83011261105557600080fd5b81356110686110638261148c565b611465565b9150808252602083016020830185838301111561108457600080fd5b61108f8382846114e3565b50505092915050565b803561103e8161153d565b6000602082840312156110b557600080fd5b60006110c18484611033565b949350505050565b6000806000606084860312156110de57600080fd5b60006110ea8686611033565b935050602084013567ffffffffffffffff81111561110757600080fd5b61111386828701611044565b925050604061112486828701611098565b9150509250925092565b600080600080600080600060e0888a03121561114957600080fd5b873567ffffffffffffffff81111561116057600080fd5b61116c8a828b01611044565b975050602061117d8a828b01611033565b965050604061118e8a828b01611098565b955050606088013567ffffffffffffffff8111156111ab57600080fd5b6111b78a828b01611044565b945050608088013567ffffffffffffffff8111156111d457600080fd5b6111e08a828b01611044565b93505060a06111f18a828b01611098565b92505060c088013567ffffffffffffffff81111561120e57600080fd5b61121a8a828b01611044565b91505092959891949750929550565b60006020828403121561123b57600080fd5b60006110c18484611098565b6000611253838361127a565b505060200190565b600061126783836113a7565b9392505050565b600061125383836113df565b611283816114c7565b82525050565b6000611294826114ba565b61129e81856114be565b93506112a9836114b4565b8060005b838110156112d75781516112c18882611247565b97506112cc836114b4565b9250506001016112ad565b509495945050505050565b60006112ed826114ba565b6112f781856114be565b935083602082028501611309856114b4565b8060005b858110156113435784840389528151611326858261125b565b9450611331836114b4565b60209a909a019992505060010161130d565b5091979650505050505050565b600061135b826114ba565b61136581856114be565b9350611370836114b4565b8060005b838110156112d7578151611388888261126e565b9750611393836114b4565b925050600101611374565b611283816114d2565b60006113b2826114ba565b6113bc81856114be565b93506113cc8185602086016114ef565b6113d58161151f565b9093019392505050565b61128381610472565b6020810161103e828461127a565b606080825281016114078186611289565b9050818103602083015261141b81856112e2565b9050818103604083015261142f8184611350565b95945050505050565b6020810161103e828461139e565b6020808252810161126781846113a7565b6020810161103e82846113df565b60405181810167ffffffffffffffff8111828210171561148457600080fd5b604052919050565b600067ffffffffffffffff8211156114a357600080fd5b506020601f91909101601f19160190565b60200190565b5190565b90815260200190565b600061103e826114d7565b151590565b6001600160a01b031690565b82818337506000910152565b60005b8381101561150a5781810151838201526020016114f2565b83811115611519576000848401525b50505050565b601f01601f191690565b611532816114c7565b811461101657600080fd5b6115328161047256fea365627a7a72315820cb8e2ee148e008a89e4c022f078e3eefcd84352cb9f95b4f7e02fb92e08a9d6b6c6578706572696d656e74616cf564736f6c63430005100040",
  "source": "pragma solidity >=0.4.21 <0.7.0;\npragma experimental ABIEncoderV2;\n\ncontract Job {\n    string public jobName;\n    address public postedBy;\n    address[] public appliedBy;\n    uint256 public noOfApplied;\n    uint256 public jobId;\n    uint256 public salary;\n    // string public jobDescription;\n    string public jobLocation;\n    string public jobType;\n    string public companyName;\n    address[] public rejected;\n    address[] public notVerified;\n    string[] public ipfsC;\n    uint256[] public certificateIds;\n    address public hired;\n\n    bool public isActiv;\n\n    // mapping(address => string) studentToIPFS;\n    // mapping(address => uint256) studentToCertificateId;\n\n    function addJob(\n        string memory _jobName,\n        address _postedBy,\n        uint256 _salary,\n        string memory _jobLocation,\n        string memory _jobType,\n        uint256 _jobid,\n        string memory _companyName\n    ) public {\n        jobName = _jobName;\n        postedBy = _postedBy;\n        salary = _salary;\n        jobLocation = _jobLocation;\n        jobType = _jobType;\n        jobId = _jobid;\n        companyName = _companyName;\n        isActiv = true;\n    }\n\n    function applyJob(\n        address addr,\n        string memory ipfs,\n        uint256 cerId\n    ) public {\n        appliedBy.push(addr);\n        ipfsC.push(ipfs);\n        certificateIds.push(cerId);\n        notVerified.push(addr);\n        noOfApplied++;\n    }\n\n    function getRequests()\n        public\n        view\n        returns (\n            address[] memory,\n            string[] memory,\n            uint256[] memory\n        )\n    {\n        return (appliedBy, ipfsC, certificateIds);\n    }\n\n    function reject(address addr) public {\n        rejected.push(addr);\n\n        for (uint256 i = 0; i < appliedBy.length; i++) {\n            if (appliedBy[i] == addr) {\n                // verified(addr);\n                removeApplied(i);\n                removeIpfs(i);\n                removeCertificateId(i);\n            }\n        }\n    }\n\n    function removeApplied(uint256 index) public {\n        for (uint256 j = index; j < appliedBy.length - 1; j++) {\n            appliedBy[j] = appliedBy[j + 1];\n        }\n        appliedBy.pop();\n    }\n\n    function removeIpfs(uint256 index) public {\n        for (uint256 j = index; j < ipfsC.length - 1; j++) {\n            ipfsC[j] = ipfsC[j + 1];\n        }\n        ipfsC.pop();\n    }\n\n    function removeCertificateId(uint256 index) public {\n        for (uint256 j = index; j < certificateIds.length - 1; j++) {\n            certificateIds[j] = certificateIds[j + 1];\n        }\n        certificateIds.pop();\n    }\n\n    function remove(uint256 index) public {\n        for (uint256 i = index; i < notVerified.length - 1; i++) {\n            notVerified[i] = notVerified[i + 1];\n        }\n        notVerified.pop();\n    }\n\n    function checkVerification(address add)\n        public\n        view\n        returns (string memory)\n    {\n        for (uint256 i = 0; i < notVerified.length; i++) {\n            if (notVerified[i] == add) {\n                return \"Not Verified\";\n            }\n        }\n        return \"Verified\";\n    }\n\n    function verified(address addr) public {\n        for (uint256 i = 0; i < notVerified.length; i++) {\n            if (notVerified[i] == addr) {\n                // for (uint256 j = i; j < notVerified.length; j++) {\n                //     notVerified[j] = notVerified[j + 1];\n                // }\n                // notVerified.pop();\n                // return \"present\";\n                remove(i);\n            }\n        }\n        // return \"not present\";\n    }\n\n    function jobStatus(address stu) public view returns (string memory status) {\n        if (hired == stu) {\n            return \"HIRED\";\n        }\n        for (uint256 i = 0; i < appliedBy.length; i++) {\n            if (appliedBy[i] == stu) {\n                return \"APPLIED\";\n            }\n        }\n        for (uint256 i = 0; i < rejected.length; i++) {\n            if (rejected[i] == stu) {\n                return \"REJECTED\";\n            }\n        }\n        return \"NOT APPLIED\";\n    }\n\n    function setHired(address add) public {\n        hired = add;\n        isActiv = false;\n    }\n\n    function isActive() public view returns (bool) {\n        return isActiv;\n    }\n}\n",
  "sourcePath": "C:\\Users\\sthipp005\\Downloads\\cryptoblockchain\\blockcrypto\\contracts\\Job.sol",
  "compiler": {
    "name": "solc",
    "version": "0.5.16+commit.9c3226ce.Emscripten.clang"
  },
  "schemaVersion": "3.4.11",
  "updatedAt": "2023-02-20T16:00:50.332Z",
  "devdoc": {
    "methods": {}
  },
  "userdoc": {
    "methods": {}
  }
}