{
  "contractName": "Organisation",
  "abi": [
    {
      "constant": true,
      "inputs": [
        {
          "internalType": "uint256",
          "name": "",
          "type": "uint256"
        }
      ],
      "name": "arr",
      "outputs": [
        {
          "internalType": "uint256",
          "name": "",
          "type": "uint256"
        }
      ],
      "payable": false,
      "stateMutability": "view",
      "type": "function"
    },
    {
      "constant": true,
      "inputs": [],
      "name": "organisationAddress",
      "outputs": [
        {
          "internalType": "address",
          "name": "",
          "type": "address"
        }
      ],
      "payable": false,
      "stateMutability": "view",
      "type": "function"
    },
    {
      "constant": true,
      "inputs": [],
      "name": "organisationName",
      "outputs": [
        {
          "internalType": "string",
          "name": "",
          "type": "string"
        }
      ],
      "payable": false,
      "stateMutability": "view",
      "type": "function"
    },
    {
      "constant": true,
      "inputs": [
        {
          "internalType": "uint256",
          "name": "",
          "type": "uint256"
        }
      ],
      "name": "studentIDs",
      "outputs": [
        {
          "internalType": "uint256",
          "name": "",
          "type": "uint256"
        }
      ],
      "payable": false,
      "stateMutability": "view",
      "type": "function"
    },
    {
      "constant": true,
      "inputs": [
        {
          "internalType": "uint256",
          "name": "",
          "type": "uint256"
        }
      ],
      "name": "students",
      "outputs": [
        {
          "internalType": "contract Student",
          "name": "",
          "type": "address"
        }
      ],
      "payable": false,
      "stateMutability": "view",
      "type": "function"
    },
    {
      "constant": true,
      "inputs": [
        {
          "internalType": "uint256",
          "name": "",
          "type": "uint256"
        }
      ],
      "name": "suidToAddress",
      "outputs": [
        {
          "internalType": "address",
          "name": "",
          "type": "address"
        }
      ],
      "payable": false,
      "stateMutability": "view",
      "type": "function"
    },
    {
      "constant": false,
      "inputs": [
        {
          "internalType": "string",
          "name": "_name",
          "type": "string"
        },
        {
          "internalType": "uint256",
          "name": "_uid",
          "type": "uint256"
        },
        {
          "internalType": "address",
          "name": "_addr",
          "type": "address"
        },
        {
          "internalType": "address",
          "name": "_orgAddress",
          "type": "address"
        }
      ],
      "name": "addStudent",
      "outputs": [],
      "payable": false,
      "stateMutability": "nonpayable",
      "type": "function"
    },
    {
      "constant": true,
      "inputs": [],
      "name": "noOfStudents",
      "outputs": [
        {
          "internalType": "uint256",
          "name": "",
          "type": "uint256"
        }
      ],
      "payable": false,
      "stateMutability": "view",
      "type": "function"
    },
    {
      "constant": true,
      "inputs": [],
      "name": "noOfUniqueIds",
      "outputs": [
        {
          "internalType": "uint256",
          "name": "",
          "type": "uint256"
        }
      ],
      "payable": false,
      "stateMutability": "view",
      "type": "function"
    },
    {
      "constant": false,
      "inputs": [
        {
          "internalType": "string",
          "name": "_organisationName",
          "type": "string"
        },
        {
          "internalType": "address",
          "name": "_organisationAddress",
          "type": "address"
        }
      ],
      "name": "addOrganisation",
      "outputs": [],
      "payable": false,
      "stateMutability": "nonpayable",
      "type": "function"
    },
    {
      "constant": false,
      "inputs": [
        {
          "internalType": "uint256",
          "name": "_id",
          "type": "uint256"
        }
      ],
      "name": "findId",
      "outputs": [
        {
          "internalType": "uint256",
          "name": "",
          "type": "uint256"
        }
      ],
      "payable": false,
      "stateMutability": "nonpayable",
      "type": "function"
    },
    {
      "constant": false,
      "inputs": [
        {
          "internalType": "uint256",
          "name": "_studentID",
          "type": "uint256"
        }
      ],
      "name": "addStudentId",
      "outputs": [],
      "payable": false,
      "stateMutability": "nonpayable",
      "type": "function"
    },
    {
      "constant": true,
      "inputs": [
        {
          "internalType": "uint256",
          "name": "_studentID",
          "type": "uint256"
        }
      ],
      "name": "checkStudentId",
      "outputs": [
        {
          "internalType": "bool",
          "name": "",
          "type": "bool"
        }
      ],
      "payable": false,
      "stateMutability": "view",
      "type": "function"
    }
  ],
  "bytecode": "0x61010060405260016080908152600260a052600360c052600460e0819052610027918161003a565b5034801561003457600080fd5b506100a7565b82805482825590600052602060002090810192821561007a579160200282015b8281111561007a578251829060ff1690559160200191906001019061005a565b5061008692915061008a565b5090565b6100a491905b808211156100865760008155600101610090565b90565b61293c806100b66000396000f3fe608060405234801561001057600080fd5b50600436106100cf5760003560e01c806351d332311161008c578063c5d1637511610066578063c5d163751461019b578063ec5d9e58146101b0578063faead812146101c5578063fe794b00146101d8576100cf565b806351d332311461015557806371e5ee5f146101755780638c74a77b14610188576100cf565b806306ead22e146100d4578063137c3f7d146100fd5780632bff309a146101125780632ce349be1461013257806330dc15531461014557806351c165d51461014d575b600080fd5b6100e76100e2366004610878565b6101eb565b6040516100f491906109d3565b60405180910390f35b61011061010b366004610800565b610212565b005b610125610120366004610878565b61046e565b6040516100f49190610a1a565b610125610140366004610878565b6104ce565b6101256104ec565b6101256104f3565b610168610163366004610878565b6104f9565b6040516100f491906109c5565b610125610183366004610878565b610538565b610110610196366004610878565b610545565b6101a36105ab565b6040516100f491906109b7565b6101b86105ba565b6040516100f491906109e1565b6101a36101d3366004610878565b610648565b6101106101e63660046107af565b610663565b600581815481106101f857fe5b6000918252602090912001546001600160a01b0316905081565b60006040516102209061069a565b604051809103906000f08015801561023c573d6000803e3d6000fd5b506040516308a79aa760e41b81529091506001600160a01b03821690638a79aa709061026c9088906004016109e1565b600060405180830381600087803b15801561028657600080fd5b505af115801561029a573d6000803e3d6000fd5b5050604051635d37eeb760e01b81526001600160a01b0384169250635d37eeb791506102ca9086906004016109b7565b600060405180830381600087803b1580156102e457600080fd5b505af11580156102f8573d6000803e3d6000fd5b505060405163893ec75b60e01b81526001600160a01b038416925063893ec75b9150610328908790600401610a1a565b600060405180830381600087803b15801561034257600080fd5b505af1158015610356573d6000803e3d6000fd5b50506040516304b62c6f60e51b81526001600160a01b03841692506396c58de09150610387906000906004016109f9565b600060405180830381600087803b1580156103a157600080fd5b505af11580156103b5573d6000803e3d6000fd5b505060405163506283cd60e01b81526001600160a01b038416925063506283cd91506103e59085906004016109b7565b600060405180830381600087803b1580156103ff57600080fd5b505af1158015610413573d6000803e3d6000fd5b5050600580546001810182556000919091527f036b6384b5eca791c62761152d0c79bb0604c104a5fb6f4eb0703f3154bb3db00180546001600160a01b0319166001600160a01b039490941693909317909255505050505050565b6000805b6002548110156104c357826002828154811061048a57fe5b906000526020600020015414156104bb57600281815481106104a857fe5b90600052602060002001549150506104c9565b600101610472565b50600090505b919050565b600281815481106104db57fe5b600091825260209091200154905081565b6005545b90565b60025490565b6000805b6002548110156104c357826002828154811061051557fe5b906000526020600020015414156105305760019150506104c9565b6001016104fd565b600481815481106104db57fe5b61054e8161046e565b8114156105765760405162461bcd60e51b815260040161056d90610a0a565b60405180910390fd5b600280546001810182556000919091527f405787fa12a823e0f2b7631cc41b3ba8828b3321ca811111fa75cd3aa3bb5ace0155565b6001546001600160a01b031681565b6000805460408051602060026001851615610100026000190190941693909304601f810184900484028201840190925281815292918301828280156106405780601f1061061557610100808354040283529160200191610640565b820191906000526020600020905b81548152906001019060200180831161062357829003601f168201915b505050505081565b6003602052600090815260409020546001600160a01b031681565b81516106769060009060208501906106a7565b50600180546001600160a01b0319166001600160a01b039290921691909117905550565b611ddc80610b1e83390190565b828054600181600116156101000203166002900490600052602060002090601f016020900481019282601f106106e857805160ff1916838001178555610715565b82800160010185558215610715579182015b828111156107155782518255916020019190600101906106fa565b50610721929150610725565b5090565b6104f091905b80821115610721576000815560010161072b565b803561074a81610afd565b92915050565b600082601f83011261076157600080fd5b813561077461076f82610a4f565b610a28565b9150808252602083016020830185838301111561079057600080fd5b61079b838284610ab7565b50505092915050565b803561074a81610b14565b600080604083850312156107c257600080fd5b823567ffffffffffffffff8111156107d957600080fd5b6107e585828601610750565b92505060206107f68582860161073f565b9150509250929050565b6000806000806080858703121561081657600080fd5b843567ffffffffffffffff81111561082d57600080fd5b61083987828801610750565b945050602061084a878288016107a4565b935050604061085b8782880161073f565b925050606061086c8782880161073f565b91505092959194509250565b60006020828403121561088a57600080fd5b600061089684846107a4565b949350505050565b6108a781610a90565b82525050565b6108a781610a9b565b6108a781610aac565b60006108ca82610a83565b6108d48185610a87565b93506108e4818560208601610ac3565b6108ed81610af3565b9093019392505050565b600081546001811660008114610914576001811461093a57610979565b607f60028304166109258187610a87565b60ff1984168152955050602085019250610979565b600282046109488187610a87565b955061095385610a77565b60005b8281101561097257815488820152600190910190602001610956565b8701945050505b505092915050565b600061098e601183610a87565b70494420616c72656164792065786973747360781b815260200192915050565b6108a7816104f0565b6020810161074a828461089e565b6020810161074a82846108ad565b6020810161074a82846108b6565b602080825281016109f281846108bf565b9392505050565b602080825281016109f281846108f7565b6020808252810161074a81610981565b6020810161074a82846109ae565b60405181810167ffffffffffffffff81118282101715610a4757600080fd5b604052919050565b600067ffffffffffffffff821115610a6657600080fd5b506020601f91909101601f19160190565b60009081526020902090565b5190565b90815260200190565b600061074a82610aa0565b151590565b6001600160a01b031690565b600061074a82610a90565b82818337506000910152565b60005b83811015610ade578181015183820152602001610ac6565b83811115610aed576000848401525b50505050565b601f01601f191690565b610b0681610a90565b8114610b1157600080fd5b50565b610b06816104f056fe608060405234801561001057600080fd5b50611dbc806100206000396000f3fe608060405234801561001057600080fd5b50600436106101215760003560e01c80636af6d78c116100ad57806396c58de01161007157806396c58de0146103ff578063af991a05146104a3578063b32f36c9146104c0578063ec3615cd146104ec578063f7692bea146104f457610121565b80636af6d78c1461029d57806376db0ecc146102a557806381d12c58146102d1578063893ec75b1461033e5780638a79aa701461035b57610121565b80634cd05742116100f45780634cd0574214610212578063506283cd1461022c57806351640fee146102525780635d37eeb71461026f57806368a969971461029557610121565b8063032c6ced14610126578063331a01fd146101545780633c0359a4146101d15780633e78c7c01461020a575b600080fd5b6101526004803603604081101561013c57600080fd5b506001600160a01b038135169060200135610634565b005b61015c6106b6565b6040805160208082528351818301528351919283929083019185019080838360005b8381101561019657818101518382015260200161017e565b50505050905090810190601f1680156101c35780820380516001836020036101000a031916815260200191505b509250505060405180910390f35b6101ee600480360360208110156101e757600080fd5b5035610743565b604080516001600160a01b039092168252519081900360200190f35b6101ee61076a565b61021a610779565b60408051918252519081900360200190f35b6101526004803603602081101561024257600080fd5b50356001600160a01b031661077f565b6101ee6004803603602081101561026857600080fd5b50356107a1565b6101526004803603602081101561028557600080fd5b50356001600160a01b0316610872565b6101ee610894565b61021a6108a3565b61015c600480360360408110156102bb57600080fd5b506001600160a01b0381351690602001356108aa565b6102ee600480360360208110156102e757600080fd5b5035610a03565b60408051602080825283518183015283519192839290830191858101910280838360005b8381101561032a578181015183820152602001610312565b505050509050019250505060405180910390f35b6101526004803603602081101561035457600080fd5b5035610b1a565b6101526004803603602081101561037157600080fd5b810190602081018135600160201b81111561038b57600080fd5b82018360208201111561039d57600080fd5b803590602001918460018302840111600160201b831117156103be57600080fd5b91908080601f016020809104026020016040519081016040528093929190818152602001838380828437600092019190915250929550610b1f945050505050565b6101526004803603602081101561041557600080fd5b810190602081018135600160201b81111561042f57600080fd5b82018360208201111561044157600080fd5b803590602001918460018302840111600160201b8311171561046257600080fd5b91908080601f016020809104026020016040519081016040528093929190818152602001838380828437600092019190915250929550610b36945050505050565b61021a600480360360208110156104b957600080fd5b5035610b49565b610152600480360360408110156104d657600080fd5b506001600160a01b038135169060200135610b67565b61015c610bcc565b610152600480360360a081101561050a57600080fd5b810190602081018135600160201b81111561052457600080fd5b82018360208201111561053657600080fd5b803590602001918460018302840111600160201b8311171561055757600080fd5b91908080601f0160208091040260200160405190810160405280939291908181526020018383808284376000920191909152509295949360208101935035915050600160201b8111156105a957600080fd5b8201836020820111156105bb57600080fd5b803590602001918460018302840111600160201b831117156105dc57600080fd5b91908080601f0160208091040260200160405190810160405280939291908181526020018383808284376000920191909152509295505082359350506001600160a01b03602083013581169260400135169050610c27565b600061063f826107a1565b9050806001600160a01b0316631679876a846040518263ffffffff1660e01b815260040180826001600160a01b03166001600160a01b03168152602001915050600060405180830381600087803b15801561069957600080fd5b505af11580156106ad573d6000803e3d6000fd5b50505050505050565b60018054604080516020600284861615610100026000190190941693909304601f8101849004840282018401909252818152929183018282801561073b5780601f106107105761010080835404028352916020019161073b565b820191906000526020600020905b81548152906001019060200180831161071e57829003601f168201915b505050505081565b6005818154811061075057fe5b6000918252602090912001546001600160a01b0316905081565b6002546001600160a01b031681565b60035481565b600480546001600160a01b0319166001600160a01b0392909216919091179055565b6000805b60055481101561086b5782600582815481106107bd57fe5b6000918252602091829020015460408051636bcda13b60e01b815290516001600160a01b0390921692636bcda13b92600480840193829003018186803b15801561080657600080fd5b505afa15801561081a573d6000803e3d6000fd5b505050506040513d602081101561083057600080fd5b50511415610863576005818154811061084557fe5b6000918252602090912001546001600160a01b0316915061086d9050565b6001016107a5565b505b919050565b600280546001600160a01b0319166001600160a01b0392909216919091179055565b6004546001600160a01b031681565b6005545b90565b606060006108b7836107a1565b9050806001600160a01b031663e6e6b7c1856040518263ffffffff1660e01b815260040180826001600160a01b03166001600160a01b0316815260200191505060006040518083038186803b15801561090f57600080fd5b505afa158015610923573d6000803e3d6000fd5b505050506040513d6000823e601f3d908101601f19168201604052602081101561094c57600080fd5b8101908080516040519392919084600160201b82111561096b57600080fd5b90830190602082018581111561098057600080fd5b8251600160201b81118282018810171561099957600080fd5b82525081516020918201929091019080838360005b838110156109c65781810151838201526020016109ae565b50505050905090810190601f1680156109f35780820380516001836020036101000a031916815260200191505b5060405250505091505092915050565b60606000610a10836107a1565b9050806001600160a01b031663b74cb2db6040518163ffffffff1660e01b815260040160006040518083038186803b158015610a4b57600080fd5b505afa158015610a5f573d6000803e3d6000fd5b505050506040513d6000823e601f3d908101601f191682016040526020811015610a8857600080fd5b8101908080516040519392919084600160201b821115610aa757600080fd5b908301906020820185811115610abc57600080fd5b82518660208202830111600160201b82111715610ad857600080fd5b82525081516020918201928201910280838360005b83811015610b05578181015183820152602001610aed565b50505050905001604052505050915050919050565b600355565b8051610b32906000906020840190611094565b5050565b8051610b32906001906020840190611094565b60068181548110610b5657fe5b600091825260209091200154905081565b6000610b72826107a1565b9050806001600160a01b031663717a29a0846040518263ffffffff1660e01b815260040180826001600160a01b03166001600160a01b03168152602001915050600060405180830381600087803b15801561069957600080fd5b6000805460408051602060026001851615610100026000190190941693909304601f8101849004840282018401909252818152929183018282801561073b5780601f106107105761010080835404028352916020019161073b565b6000604051610c3590611112565b604051809103906000f080158015610c51573d6000803e3d6000fd5b506040516335bb738760e21b81526020600482018181528951602484015289519394506001600160a01b0385169363d6edce1c938b9383926044909201919085019080838360005b83811015610cb1578181015183820152602001610c99565b50505050905090810190601f168015610cde5780820380516001836020036101000a031916815260200191505b5092505050600060405180830381600087803b158015610cfd57600080fd5b505af1158015610d11573d6000803e3d6000fd5b5050604051632b2f75ad60e11b81526020600482018181528951602484015289516001600160a01b038716955063565eeb5a94508a9391928392604401919085019080838360005b83811015610d71578181015183820152602001610d59565b50505050905090810190601f168015610d9e5780820380516001836020036101000a031916815260200191505b5092505050600060405180830381600087803b158015610dbd57600080fd5b505af1158015610dd1573d6000803e3d6000fd5b50505050806001600160a01b031663cea1e858856040518263ffffffff1660e01b815260040180828152602001915050600060405180830381600087803b158015610e1b57600080fd5b505af1158015610e2f573d6000803e3d6000fd5b50505050806001600160a01b03166399aad941846040518263ffffffff1660e01b815260040180826001600160a01b03166001600160a01b03168152602001915050600060405180830381600087803b158015610e8b57600080fd5b505af1158015610e9f573d6000803e3d6000fd5b50505050806001600160a01b031663f98500086040518163ffffffff1660e01b8152600401600060405180830381600087803b158015610ede57600080fd5b505af1158015610ef2573d6000803e3d6000fd5b50506040516308a79aa760e41b81526020600482019081526000805460026000196101006001841615020190911604602484018190526001600160a01b0387169550638a79aa7094509092829160449091019084908015610f945780601f10610f6957610100808354040283529160200191610f94565b820191906000526020600020905b815481529060010190602001808311610f7757829003601f168201915b505092505050600060405180830381600087803b158015610fb457600080fd5b505af1158015610fc8573d6000803e3d6000fd5b50505050806001600160a01b031663e5d235f4836040518263ffffffff1660e01b815260040180826001600160a01b03166001600160a01b03168152602001915050600060405180830381600087803b15801561102457600080fd5b505af1158015611038573d6000803e3d6000fd5b5050600580546001810182556000919091527f036b6384b5eca791c62761152d0c79bb0604c104a5fb6f4eb0703f3154bb3db00180546001600160a01b0319166001600160a01b03949094169390931790925550505050505050565b828054600181600116156101000203166002900490600052602060002090601f016020900481019282601f106110d557805160ff1916838001178555611102565b82800160010185558215611102579182015b828111156111025782518255916020019190600101906110e7565b5061110e92915061111f565b5090565b610c4e8061113a83390190565b6108a791905b8082111561110e576000815560010161112556fe608060405234801561001057600080fd5b50610c2e806100206000396000f3fe608060405234801561001057600080fd5b506004361061014d5760003560e01c806399aad941116100c3578063d40afd8b1161007c578063d40afd8b146104c2578063d6edce1c146104ca578063e264da6914610570578063e5d235f41461058d578063e6e6b7c1146105b3578063f9850008146105d95761014d565b806399aad941146103dc578063a982bd5014610402578063b508ba3114610428578063b74cb2db14610430578063bf088e5714610488578063cea1e858146104a55761014d565b80634cc82215116101155780634cc822151461023d578063557084ce1461025a578063565eeb5a146102625780636bcda13b14610308578063717a29a0146103105780638a79aa70146103365761014d565b8063091841f1146101525780631679876a146101cf5780631f4591dd146101f75780632b64818f1461021b578063323046b114610235575b600080fd5b61015a6105e1565b6040805160208082528351818301528351919283929083019185019080838360005b8381101561019457818101518382015260200161017c565b50505050905090810190601f1680156101c15780820380516001836020036101000a031916815260200191505b509250505060405180910390f35b6101f5600480360360208110156101e557600080fd5b50356001600160a01b031661066e565b005b6101ff6106c0565b604080516001600160a01b039092168252519081900360200190f35b6102236106cf565b60408051918252519081900360200190f35b6102236106d6565b6101f56004803603602081101561025357600080fd5b50356106dc565b61015a610784565b6101f56004803603602081101561027857600080fd5b81019060208101813564010000000081111561029357600080fd5b8201836020820111156102a557600080fd5b803590602001918460018302840111640100000000831117156102c757600080fd5b91908080601f0160208091040260200160405190810160405280939291908181526020018383808284376000920191909152509295506107df945050505050565b6102236107f6565b6101f56004803603602081101561032657600080fd5b50356001600160a01b03166107fc565b6101f56004803603602081101561034c57600080fd5b81019060208101813564010000000081111561036757600080fd5b82018360208201111561037957600080fd5b8035906020019184600183028401116401000000008311171561039b57600080fd5b91908080601f016020809104026020016040519081016040528093929190818152602001838380828437600092019190915250929550610894945050505050565b6101f5600480360360208110156103f257600080fd5b50356001600160a01b03166108a7565b6101f56004803603602081101561041857600080fd5b50356001600160a01b03166108c9565b61015a61091b565b610438610976565b60408051602080825283518183015283519192839290830191858101910280838360005b8381101561047457818101518382015260200161045c565b505050509050019250505060405180910390f35b6101ff6004803603602081101561049e57600080fd5b50356109d8565b6101f5600480360360208110156104bb57600080fd5b50356109ff565b6101ff610a04565b6101f5600480360360208110156104e057600080fd5b8101906020810181356401000000008111156104fb57600080fd5b82018360208201111561050d57600080fd5b8035906020019184600183028401116401000000008311171561052f57600080fd5b91908080601f016020809104026020016040519081016040528093929190818152602001838380828437600092019190915250929550610a13945050505050565b6101ff6004803603602081101561058657600080fd5b5035610a26565b6101f5600480360360208110156105a357600080fd5b50356001600160a01b0316610a33565b61015a600480360360208110156105c957600080fd5b50356001600160a01b0316610a55565b6101f5610b5b565b60018054604080516020600284861615610100026000190190941693909304601f810184900484028201840190925281815292918301828280156106665780601f1061063b57610100808354040283529160200191610666565b820191906000526020600020905b81548152906001019060200180831161064957829003601f168201915b505050505081565b600880546001810182556000919091527ff3f7a9fe364faab93b216da50a3214154f22a0a2b415b23a84c8169e8b636ee30180546001600160a01b0319166001600160a01b0392909216919091179055565b6007546001600160a01b031681565b6002545b90565b60065481565b805b6008546000190181101561075357600881600101815481106106fc57fe5b600091825260209091200154600880546001600160a01b03909216918390811061072257fe5b600091825260209091200180546001600160a01b0319166001600160a01b03929092169190911790556001016106de565b50600880548061075f57fe5b600082815260209020810160001990810180546001600160a01b031916905501905550565b6000805460408051602060026001851615610100026000190190941693909304601f810184900484028201840190925281815292918301828280156106665780601f1061063b57610100808354040283529160200191610666565b80516107f2906001906020840190610b61565b5050565b60035481565b6002805460018101825560009182527f405787fa12a823e0f2b7631cc41b3ba8828b3321ca811111fa75cd3aa3bb5ace0180546001600160a01b0319166001600160a01b0384161790555b6008548110156107f257816001600160a01b03166008828154811061086857fe5b6000918252602090912001546001600160a01b0316141561088c5761088c816106dc565b600101610847565b80516107f2906005906020840190610b61565b600480546001600160a01b0319166001600160a01b0392909216919091179055565b600280546001810182556000919091527f405787fa12a823e0f2b7631cc41b3ba8828b3321ca811111fa75cd3aa3bb5ace0180546001600160a01b0319166001600160a01b0392909216919091179055565b6005805460408051602060026001851615610100026000190190941693909304601f810184900484028201840190925281815292918301828280156106665780601f1061063b57610100808354040283529160200191610666565b606060088054806020026020016040519081016040528092919081815260200182805480156109ce57602002820191906000526020600020905b81546001600160a01b031681526001909101906020018083116109b0575b5050505050905090565b600281815481106109e557fe5b6000918252602090912001546001600160a01b0316905081565b600355565b6004546001600160a01b031681565b80516107f2906000906020840190610b61565b600881815481106109e557fe5b600780546001600160a01b0319166001600160a01b0392909216919091179055565b606060005b600254811015610ac357826001600160a01b031660028281548110610a7b57fe5b6000918252602090912001546001600160a01b03161415610abb57505060408051808201909152600781526614149154d1539560ca1b6020820152610b56565b600101610a5a565b5060005b600854811015610b3257826001600160a01b031660088281548110610ae857fe5b6000918252602090912001546001600160a01b03161415610b2a575050604080518082019091526009815268149154555154d5115160ba1b6020820152610b56565b600101610ac7565b505060408051808201909152600a8152691393d517d4149154d39560b21b60208201525b919050565b42600655565b828054600181600116156101000203166002900490600052602060002090601f016020900481019282601f10610ba257805160ff1916838001178555610bcf565b82800160010185558215610bcf579182015b82811115610bcf578251825591602001919060010190610bb4565b50610bdb929150610bdf565b5090565b6106d391905b80821115610bdb5760008155600101610be556fea265627a7a72315820e509f0d0a9afc8660e99c4f75f103b1c7221976bbe5116860419a87109fa1b6464736f6c63430005100032a265627a7a7231582028e64fbd8a3413bd71a602584f62c914074ed4ae287fd23ce3c12ad03139715564736f6c63430005100032a365627a7a72315820e017ec88c2c0c284c8073f84e269ac9053910ea26273b0ad1063342a8ab2cf1a6c6578706572696d656e74616cf564736f6c63430005100040",
  "source": "// SPDX-License-Identifier: MIT\npragma solidity >=0.4.21 <0.7.0;\npragma experimental ABIEncoderV2;\nimport \"./Student.sol\";\nimport \"./Certification.sol\";\n\ncontract Organisation {\n    string public organisationName;\n    address public organisationAddress;\n\n    uint256[] public studentIDs;\n\n    mapping(uint256 => address) public suidToAddress;\n\n    uint256[] public arr = [1, 2, 3, 4];\n\n    Student[] public students;\n\n    function addStudent(\n        string memory _name,\n        uint256 _uid,\n        address _addr,\n        address _orgAddress\n    ) public {\n        Student s = new Student();\n        s.setStudentName(_name);\n        s.setStudentAccAddress(_addr);\n        s.setStudentUniqueId(_uid);\n        s.setOrganisationName(organisationName);\n        s.setOrganisationAddress(_orgAddress);\n\n        students.push(s);\n    }\n\n    function noOfStudents() public view returns (uint256) {\n        return students.length;\n    }\n\n    function noOfUniqueIds() public view returns (uint256) {\n        return studentIDs.length;\n    }\n\n    function addOrganisation(\n        string memory _organisationName,\n        address _organisationAddress\n    ) public {\n        organisationName = _organisationName;\n        organisationAddress = _organisationAddress;\n    }\n\n    function findId(uint256 _id) public returns (uint256) {\n        for (uint256 i = 0; i < studentIDs.length; i++) {\n            if (studentIDs[i] == _id) {\n                return studentIDs[i];\n            }\n        }\n        return 0;\n    }\n\n    function addStudentId(uint256 _studentID) public {\n        require(_studentID != findId(_studentID), \"ID already exists\");\n        studentIDs.push(_studentID);\n    }\n\n    function checkStudentId(uint256 _studentID) public view returns (bool) {\n        for (uint256 i = 0; i < studentIDs.length; i++) {\n            if (studentIDs[i] == _studentID) {\n                return true;\n            }\n        }\n        return false;\n    }\n}\n",
  "sourcePath": "C:\\Users\\sthipp005\\Downloads\\cryptoblockchain\\blockcrypto\\contracts\\Organisation.sol",
  "compiler": {
    "name": "solc",
    "version": "0.5.16+commit.9c3226ce.Emscripten.clang"
  },
  "schemaVersion": "3.4.11",
  "updatedAt": "2023-02-20T16:00:54.959Z",
  "networkType": "ethereum",
  "devdoc": {
    "methods": {}
  },
  "userdoc": {
    "methods": {}
  }
}