{
  "contractName": "OverAll",
  "abi": [
    {
      "constant": true,
      "inputs": [
        {
          "internalType": "uint256",
          "name": "",
          "type": "uint256"
        }
      ],
      "name": "Orgaganisations",
      "outputs": [
        {
          "internalType": "contract Organisation",
          "name": "",
          "type": "address"
        }
      ],
      "payable": false,
      "stateMutability": "view",
      "type": "function"
    },
    {
      "constant": true,
      "inputs": [],
      "name": "helper",
      "outputs": [
        {
          "internalType": "contract HelperOrg",
          "name": "",
          "type": "address"
        }
      ],
      "payable": false,
      "stateMutability": "view",
      "type": "function"
    },
    {
      "constant": true,
      "inputs": [
        {
          "internalType": "address",
          "name": "",
          "type": "address"
        }
      ],
      "name": "stToOrg",
      "outputs": [
        {
          "internalType": "address",
          "name": "",
          "type": "address"
        }
      ],
      "payable": false,
      "stateMutability": "view",
      "type": "function"
    },
    {
      "constant": false,
      "inputs": [
        {
          "internalType": "string",
          "name": "name",
          "type": "string"
        }
      ],
      "name": "addOrganisation",
      "outputs": [],
      "payable": false,
      "stateMutability": "nonpayable",
      "type": "function"
    },
    {
      "constant": true,
      "inputs": [],
      "name": "checkOrganisation",
      "outputs": [
        {
          "internalType": "string",
          "name": "",
          "type": "string"
        }
      ],
      "payable": false,
      "stateMutability": "view",
      "type": "function"
    },
    {
      "constant": true,
      "inputs": [],
      "name": "getOrganisation",
      "outputs": [
        {
          "internalType": "contract Organisation",
          "name": "",
          "type": "address"
        }
      ],
      "payable": false,
      "stateMutability": "view",
      "type": "function"
    },
    {
      "constant": true,
      "inputs": [],
      "name": "getAllOrganisations",
      "outputs": [
        {
          "components": [
            {
              "internalType": "string",
              "name": "name",
              "type": "string"
            },
            {
              "internalType": "address",
              "name": "addr",
              "type": "address"
            },
            {
              "internalType": "uint256",
              "name": "noOfStudents",
              "type": "uint256"
            },
            {
              "internalType": "uint256",
              "name": "noOfCertificates",
              "type": "uint256"
            }
          ],
          "internalType": "struct OverAll.organisation[]",
          "name": "",
          "type": "tuple[]"
        }
      ],
      "payable": false,
      "stateMutability": "view",
      "type": "function"
    },
    {
      "constant": true,
      "inputs": [],
      "name": "getOrganisationDetails",
      "outputs": [
        {
          "internalType": "string",
          "name": "",
          "type": "string"
        },
        {
          "internalType": "address",
          "name": "",
          "type": "address"
        },
        {
          "internalType": "uint256",
          "name": "",
          "type": "uint256"
        },
        {
          "internalType": "uint256",
          "name": "",
          "type": "uint256"
        },
        {
          "internalType": "uint256",
          "name": "",
          "type": "uint256"
        }
      ],
      "payable": false,
      "stateMutability": "view",
      "type": "function"
    },
    {
      "constant": true,
      "inputs": [],
      "name": "getAllStudents",
      "outputs": [
        {
          "components": [
            {
              "internalType": "string",
              "name": "name",
              "type": "string"
            },
            {
              "internalType": "address",
              "name": "addr",
              "type": "address"
            },
            {
              "internalType": "uint256",
              "name": "studentUniqueId",
              "type": "uint256"
            },
            {
              "internalType": "uint256",
              "name": "noOfCertificates",
              "type": "uint256"
            }
          ],
          "internalType": "struct OverAll.student[]",
          "name": "",
          "type": "tuple[]"
        }
      ],
      "payable": false,
      "stateMutability": "view",
      "type": "function"
    },
    {
      "constant": false,
      "inputs": [
        {
          "internalType": "string",
          "name": "_name",
          "type": "string"
        },
        {
          "internalType": "uint256",
          "name": "_uid",
          "type": "uint256"
        },
        {
          "internalType": "address",
          "name": "_orgAddr",
          "type": "address"
        }
      ],
      "name": "addStudent",
      "outputs": [],
      "payable": false,
      "stateMutability": "nonpayable",
      "type": "function"
    },
    {
      "constant": true,
      "inputs": [
        {
          "internalType": "address",
          "name": "_orgAddress",
          "type": "address"
        }
      ],
      "name": "getAllCertificates",
      "outputs": [
        {
          "components": [
            {
              "internalType": "string",
              "name": "name",
              "type": "string"
            },
            {
              "internalType": "uint256",
              "name": "uniqueId",
              "type": "uint256"
            },
            {
              "internalType": "address",
              "name": "issuedTo",
              "type": "address"
            },
            {
              "internalType": "uint256",
              "name": "date",
              "type": "uint256"
            },
            {
              "internalType": "address",
              "name": "issuedBy",
              "type": "address"
            },
            {
              "internalType": "string",
              "name": "ipfs",
              "type": "string"
            }
          ],
          "internalType": "struct OverAll.certificate[]",
          "name": "",
          "type": "tuple[]"
        }
      ],
      "payable": false,
      "stateMutability": "view",
      "type": "function"
    },
    {
      "constant": true,
      "inputs": [],
      "name": "checkStudent",
      "outputs": [
        {
          "internalType": "string",
          "name": "",
          "type": "string"
        }
      ],
      "payable": false,
      "stateMutability": "view",
      "type": "function"
    },
    {
      "constant": false,
      "inputs": [
        {
          "internalType": "uint256",
          "name": "_id",
          "type": "uint256"
        }
      ],
      "name": "addStudentUniqueID",
      "outputs": [],
      "payable": false,
      "stateMutability": "nonpayable",
      "type": "function"
    },
    {
      "constant": false,
      "inputs": [
        {
          "internalType": "string",
          "name": "_ipfs",
          "type": "string"
        },
        {
          "internalType": "string",
          "name": "_merklee",
          "type": "string"
        },
        {
          "internalType": "uint256",
          "name": "cUnique",
          "type": "uint256"
        },
        {
          "internalType": "address",
          "name": "sUnique",
          "type": "address"
        }
      ],
      "name": "addCertificate",
      "outputs": [],
      "payable": false,
      "stateMutability": "nonpayable",
      "type": "function"
    },
    {
      "constant": true,
      "inputs": [
        {
          "internalType": "address",
          "name": "addr",
          "type": "address"
        }
      ],
      "name": "getStudentDetail",
      "outputs": [
        {
          "internalType": "string",
          "name": "",
          "type": "string"
        },
        {
          "internalType": "uint256",
          "name": "",
          "type": "uint256"
        },
        {
          "internalType": "string",
          "name": "",
          "type": "string"
        },
        {
          "internalType": "address",
          "name": "",
          "type": "address"
        },
        {
          "internalType": "uint256",
          "name": "",
          "type": "uint256"
        },
        {
          "internalType": "address",
          "name": "",
          "type": "address"
        }
      ],
      "payable": false,
      "stateMutability": "view",
      "type": "function"
    },
    {
      "constant": false,
      "inputs": [
        {
          "internalType": "uint256",
          "name": "_id",
          "type": "uint256"
        },
        {
          "internalType": "address",
          "name": "_orgAdd",
          "type": "address"
        }
      ],
      "name": "requestAcess",
      "outputs": [],
      "payable": false,
      "stateMutability": "nonpayable",
      "type": "function"
    },
    {
      "constant": true,
      "inputs": [
        {
          "internalType": "uint256",
          "name": "_id",
          "type": "uint256"
        },
        {
          "internalType": "address",
          "name": "_orgAdd",
          "type": "address"
        }
      ],
      "name": "checkAcess",
      "outputs": [
        {
          "internalType": "string",
          "name": "",
          "type": "string"
        }
      ],
      "payable": false,
      "stateMutability": "view",
      "type": "function"
    },
    {
      "constant": true,
      "inputs": [
        {
          "internalType": "uint256",
          "name": "_id",
          "type": "uint256"
        },
        {
          "internalType": "address",
          "name": "stu",
          "type": "address"
        }
      ],
      "name": "requests",
      "outputs": [
        {
          "internalType": "address[]",
          "name": "",
          "type": "address[]"
        }
      ],
      "payable": false,
      "stateMutability": "view",
      "type": "function"
    },
    {
      "constant": false,
      "inputs": [
        {
          "internalType": "address",
          "name": "stu",
          "type": "address"
        },
        {
          "internalType": "uint256",
          "name": "_id",
          "type": "uint256"
        }
      ],
      "name": "giveAcess",
      "outputs": [],
      "payable": false,
      "stateMutability": "nonpayable",
      "type": "function"
    }
  ],
  "bytecode": "0x6080604052604051620000129062000064565b604051809103906000f0801580156200002f573d6000803e3d6000fd5b50600080546001600160a01b0319166001600160a01b03929092169190911790553480156200005d57600080fd5b5062000072565b611ad980620059b583390190565b61593380620000826000396000f3fe60806040523480156200001157600080fd5b50600436106200013b5760003560e01c8063a1263f6d11620000bd578063b502a6e0116200007b578063b502a6e014620002be578063c79f28bb14620002d5578063e9e3092714620002df578063e9e8a17c14620002f8578063ec1fe611146200030f576200013b565b8063a1263f6d146200023c578063a5af4ae21462000246578063b163e03d1462000271578063b1743b8e146200028a578063b32f36c914620002a7576200013b565b806363b0e66a116200010b57806363b0e66a14620001b8578063665756e214620001d15780637ff7a03114620001f757806384de69f3146200020e578063988760c11462000225576200013b565b80628fafaf1462000140578063281c2730146200016257806328811b14146200017b5780633e03a1f114620001a1575b600080fd5b6200014a62000335565b60405162000159919062002c20565b60405180910390f35b62000179620001733660046200260d565b620003c8565b005b620001926200018c3660046200264f565b6200043d565b60405162000159919062002a58565b62000179620001b236600462002441565b620004d8565b620001c2620005d8565b60405162000159919062002c10565b620001e8620001e236600462002254565b620005e7565b60405162000159919062002a48565b62000179620002083660046200264f565b62000602565b6200014a6200021f3660046200264f565b6200063b565b620001796200023636600462002370565b620006cd565b6200014a620007b4565b6200025d6200025736600462002254565b620007ea565b604051620001599695949392919062002d0c565b6200027b620008ab565b60405162000159919062002bea565b6200029462000c02565b6040516200015995949392919062002c46565b62000179620002b83660046200229e565b62000cab565b620001c2620002cf3660046200260d565b62000ce4565b620001c262000d0c565b620002e962000d95565b60405162000159919062002bfd565b6200017962000309366004620024dc565b62001311565b620003266200032036600462002254565b62001438565b60405162000159919062002bd7565b600054604051637c815bbf60e11b81526060916001600160a01b03169063f902b77e906200036b90600190339060040162002a96565b60006040518083038186803b1580156200038457600080fd5b505afa15801562000399573d6000803e3d6000fd5b505050506040513d6000823e601f3d908101601f19168201604052620003c3919081019062002337565b905090565b6000620003d462000d0c565b604051638c74a77b60e01b81529091506001600160a01b03821690638c74a77b906200040590859060040162002d7e565b600060405180830381600087803b1580156200042057600080fd5b505af115801562000435573d6000803e3d6000fd5b505050505050565b60005460405163bd11906960e01b81526060916001600160a01b03169063bd11906990620004779060019033908790899060040162002aed565b60006040518083038186803b1580156200049057600080fd5b505afa158015620004a5573d6000803e3d6000fd5b505050506040513d6000823e601f3d908101601f19168201604052620004cf9190810190620022dd565b90505b92915050565b6000805460405163fce9f72160e01b81526001600160a01b039091169063fce9f7219062000510906001903390879060040162002aba565b60206040518083038186803b1580156200052957600080fd5b505afa1580156200053e573d6000803e3d6000fd5b505050506040513d601f19601f8201168201806040525062000564919081019062002316565b604051637bb495f560e11b81529091506001600160a01b0382169063f7692bea906200059d908890889088908890339060040162002ca1565b600060405180830381600087803b158015620005b857600080fd5b505af1158015620005cd573d6000803e3d6000fd5b505050505050505050565b6000546001600160a01b031681565b6002602052600090815260409020546001600160a01b031681565b600054604051631ba2433360e31b81526001600160a01b039091169063dd12199890620004059060019086903390879060040162002b53565b6000546040516301362b3960e51b81526060916001600160a01b0316906326c5672090620006759060019087903390889060040162002b53565b60006040518083038186803b1580156200068e57600080fd5b505afa158015620006a3573d6000803e3d6000fd5b505050506040513d6000823e601f3d908101601f19168201604052620004cf919081019062002337565b6000604051620006dd9062002060565b604051809103906000f080158015620006fa573d6000803e3d6000fd5b5060405162fe794b60e81b81529091506001600160a01b0382169063fe794b00906200072d908590339060040162002c33565b600060405180830381600087803b1580156200074857600080fd5b505af11580156200075d573d6000803e3d6000fd5b50506001805480820182556000919091527fb10e2d527612073b26eecdfd717e6a320cf44b4afac2b0732d9fcbe2b7fa0cf60180546001600160a01b0319166001600160a01b039490941693909317909255505050565b60005460405163326948ad60e01b81526060916001600160a01b03169063326948ad906200036b90600190339060040162002a96565b600080546001600160a01b0383811683526002602052604080842054905163bee3e32560e01b815260609493859385938493849383169263bee3e325926200083f9260019291909116908c9060040162002b2f565b60006040518083038186803b1580156200085857600080fd5b505afa1580156200086d573d6000803e3d6000fd5b505050506040513d6000823e601f3d908101601f1916820160405262000897919081019062002548565b949c939b5091995097509550909350915050565b606080600180549050604051908082528060200260200182016040528015620008f157816020015b620008dd6200206e565b815260200190600190039081620008d35790505b50905060005b60015481101562000bfc57600181815481106200091057fe5b600091825260208220015460408051631d8bb3cb60e31b815290516001600160a01b039092169263ec5d9e5892600480840193829003018186803b1580156200095857600080fd5b505afa1580156200096d573d6000803e3d6000fd5b505050506040513d6000823e601f3d908101601f1916820160405262000997919081019062002337565b828281518110620009a457fe5b60200260200101516000018190525060018181548110620009c157fe5b600091825260209182902001546040805163c5d1637560e01b815290516001600160a01b039092169263c5d1637592600480840193829003018186803b15801562000a0b57600080fd5b505afa15801562000a20573d6000803e3d6000fd5b505050506040513d601f19601f8201168201806040525062000a4691908101906200227d565b82828151811062000a5357fe5b6020026020010151602001906001600160a01b031690816001600160a01b0316815250506001818154811062000a8557fe5b60009182526020918290200154604080516330dc155360e01b815290516001600160a01b03909216926330dc155392600480840193829003018186803b15801562000acf57600080fd5b505afa15801562000ae4573d6000803e3d6000fd5b505050506040513d601f19601f8201168201806040525062000b0a91908101906200262e565b82828151811062000b1757fe5b602090810291909101015160400152600054600180546001600160a01b0390921691631a11a72391908490811062000b4b57fe5b6000918252602090912001546040516001600160e01b031960e084901b16815262000b83916001600160a01b03169060040162002c10565b60206040518083038186803b15801562000b9c57600080fd5b505afa15801562000bb1573d6000803e3d6000fd5b505050506040513d601f19601f8201168201806040525062000bd791908101906200262e565b82828151811062000be457fe5b602090810291909101015160600152600101620008f7565b50905090565b6000805460405163322c7aa160e11b8152606092918291829182916001600160a01b0390911690636458f5429062000c4290600190339060040162002a96565b60006040518083038186803b15801562000c5b57600080fd5b505afa15801562000c70573d6000803e3d6000fd5b505050506040513d6000823e601f3d908101601f1916820160405262000c9a9190810190620023a9565b945094509450945094509091929394565b60005460405163ab096cf560e01b81526001600160a01b039091169063ab096cf590620004059060019085908790339060040162002b95565b6001818154811062000cf257fe5b6000918252602090912001546001600160a01b0316905081565b6000805460405162d5cc2960e31b81526001600160a01b03909116906306ae61489062000d4190600190339060040162002a96565b60206040518083038186803b15801562000d5a57600080fd5b505afa15801562000d6f573d6000803e3d6000fd5b505050506040513d601f19601f82011682018060405250620003c3919081019062002316565b6060600062000da362000d0c565b90506060816001600160a01b03166330dc15536040518163ffffffff1660e01b815260040160206040518083038186803b15801562000de157600080fd5b505afa15801562000df6573d6000803e3d6000fd5b505050506040513d601f19601f8201168201806040525062000e1c91908101906200262e565b60405190808252806020026020018201604052801562000e5957816020015b62000e456200206e565b81526020019060019003908162000e3b5790505b50905060005b826001600160a01b03166330dc15536040518163ffffffff1660e01b815260040160206040518083038186803b15801562000e9957600080fd5b505afa15801562000eae573d6000803e3d6000fd5b505050506040513d601f19601f8201168201806040525062000ed491908101906200262e565b8110156200130a5762000ee66200206e565b604080516080810191829052630375691760e11b909152806001600160a01b0386166306ead22e62000f1c866084850162002d7e565b60206040518083038186803b15801562000f3557600080fd5b505afa15801562000f4a573d6000803e3d6000fd5b505050506040513d601f19601f8201168201806040525062000f70919081019062002316565b6001600160a01b031663ec3615cd6040518163ffffffff1660e01b815260040160006040518083038186803b15801562000fa957600080fd5b505afa15801562000fbe573d6000803e3d6000fd5b505050506040513d6000823e601f3d908101601f1916820160405262000fe8919081019062002337565b8152602001856001600160a01b03166306ead22e856040518263ffffffff1660e01b81526004016200101b919062002d7e565b60206040518083038186803b1580156200103457600080fd5b505afa15801562001049573d6000803e3d6000fd5b505050506040513d601f19601f820116820180604052506200106f919081019062002316565b6001600160a01b0316633e78c7c06040518163ffffffff1660e01b815260040160206040518083038186803b158015620010a857600080fd5b505afa158015620010bd573d6000803e3d6000fd5b505050506040513d601f19601f82011682018060405250620010e391908101906200227d565b6001600160a01b03168152602001856001600160a01b03166306ead22e856040518263ffffffff1660e01b81526004016200111f919062002d7e565b60206040518083038186803b1580156200113857600080fd5b505afa1580156200114d573d6000803e3d6000fd5b505050506040513d601f19601f8201168201806040525062001173919081019062002316565b6001600160a01b0316634cd057426040518163ffffffff1660e01b815260040160206040518083038186803b158015620011ac57600080fd5b505afa158015620011c1573d6000803e3d6000fd5b505050506040513d601f19601f82011682018060405250620011e791908101906200262e565b8152602001856001600160a01b03166306ead22e856040518263ffffffff1660e01b81526004016200121a919062002d7e565b60206040518083038186803b1580156200123357600080fd5b505afa15801562001248573d6000803e3d6000fd5b505050506040513d601f19601f820116820180604052506200126e919081019062002316565b6001600160a01b0316636af6d78c6040518163ffffffff1660e01b815260040160206040518083038186803b158015620012a757600080fd5b505afa158015620012bc573d6000803e3d6000fd5b505050506040513d601f19601f82011682018060405250620012e291908101906200262e565b815250905080838381518110620012f557fe5b60209081029190910101525060010162000e5f565b5091505090565b6000805460405162d5cc2960e31b81526001600160a01b03909116906306ae6148906200134690600190869060040162002a6b565b60206040518083038186803b1580156200135f57600080fd5b505afa15801562001374573d6000803e3d6000fd5b505050506040513d601f19601f820116820180604052506200139a919081019062002316565b60405163137c3f7d60e01b81529091506001600160a01b0382169063137c3f7d90620013d190879087903390889060040162002cf9565b600060405180830381600087803b158015620013ec57600080fd5b505af115801562001401573d6000803e3d6000fd5b505033600090815260026020526040902080546001600160a01b0319166001600160a01b0395909516949094179093555050505050565b6000805460405162d5cc2960e31b8152606092916001600160a01b0316906306ae6148906200146f90600190879060040162002a6b565b60206040518083038186803b1580156200148857600080fd5b505afa1580156200149d573d6000803e3d6000fd5b505050506040513d601f19601f82011682018060405250620014c3919081019062002316565b600054604051631a11a72360e01b81529192506060916001600160a01b0390911690631a11a72390620014fb90859060040162002c10565b60206040518083038186803b1580156200151457600080fd5b505afa15801562001529573d6000803e3d6000fd5b505050506040513d601f19601f820116820180604052506200154f91908101906200262e565b6040519080825280602002602001820160405280156200158c57816020015b620015786200209f565b8152602001906001900390816200156e5790505b5090506000805b836001600160a01b03166330dc15536040518163ffffffff1660e01b815260040160206040518083038186803b158015620015cd57600080fd5b505afa158015620015e2573d6000803e3d6000fd5b505050506040513d601f19601f820116820180604052506200160891908101906200262e565b811015620020565760005b604051630375691760e11b81526001600160a01b038616906306ead22e906200164190859060040162002d7e565b60206040518083038186803b1580156200165a57600080fd5b505afa1580156200166f573d6000803e3d6000fd5b505050506040513d601f19601f8201168201806040525062001695919081019062002316565b6001600160a01b0316636af6d78c6040518163ffffffff1660e01b815260040160206040518083038186803b158015620016ce57600080fd5b505afa158015620016e3573d6000803e3d6000fd5b505050506040513d601f19601f820116820180604052506200170991908101906200262e565b8110156200204c576200171b6200209f565b6040805160c0810191829052630375691760e11b909152806001600160a01b0388166306ead22e620017518760c4850162002d7e565b60206040518083038186803b1580156200176a57600080fd5b505afa1580156200177f573d6000803e3d6000fd5b505050506040513d601f19601f82011682018060405250620017a5919081019062002316565b6001600160a01b0316633c0359a4856040518263ffffffff1660e01b8152600401620017d2919062002d7e565b60206040518083038186803b158015620017eb57600080fd5b505afa15801562001800573d6000803e3d6000fd5b505050506040513d601f19601f8201168201806040525062001826919081019062002316565b6001600160a01b031663b508ba316040518163ffffffff1660e01b815260040160006040518083038186803b1580156200185f57600080fd5b505afa15801562001874573d6000803e3d6000fd5b505050506040513d6000823e601f3d908101601f191682016040526200189e919081019062002337565b8152602001876001600160a01b03166306ead22e866040518263ffffffff1660e01b8152600401620018d1919062002d7e565b60206040518083038186803b158015620018ea57600080fd5b505afa158015620018ff573d6000803e3d6000fd5b505050506040513d601f19601f8201168201806040525062001925919081019062002316565b6001600160a01b0316633c0359a4856040518263ffffffff1660e01b815260040162001952919062002d7e565b60206040518083038186803b1580156200196b57600080fd5b505afa15801562001980573d6000803e3d6000fd5b505050506040513d601f19601f82011682018060405250620019a6919081019062002316565b6001600160a01b0316636bcda13b6040518163ffffffff1660e01b815260040160206040518083038186803b158015620019df57600080fd5b505afa158015620019f4573d6000803e3d6000fd5b505050506040513d601f19601f8201168201806040525062001a1a91908101906200262e565b8152602001876001600160a01b03166306ead22e866040518263ffffffff1660e01b815260040162001a4d919062002d7e565b60206040518083038186803b15801562001a6657600080fd5b505afa15801562001a7b573d6000803e3d6000fd5b505050506040513d601f19601f8201168201806040525062001aa1919081019062002316565b6001600160a01b0316633c0359a4856040518263ffffffff1660e01b815260040162001ace919062002d7e565b60206040518083038186803b15801562001ae757600080fd5b505afa15801562001afc573d6000803e3d6000fd5b505050506040513d601f19601f8201168201806040525062001b22919081019062002316565b6001600160a01b031663d40afd8b6040518163ffffffff1660e01b815260040160206040518083038186803b15801562001b5b57600080fd5b505afa15801562001b70573d6000803e3d6000fd5b505050506040513d601f19601f8201168201806040525062001b9691908101906200227d565b6001600160a01b03168152602001876001600160a01b03166306ead22e866040518263ffffffff1660e01b815260040162001bd2919062002d7e565b60206040518083038186803b15801562001beb57600080fd5b505afa15801562001c00573d6000803e3d6000fd5b505050506040513d601f19601f8201168201806040525062001c26919081019062002316565b6001600160a01b0316633c0359a4856040518263ffffffff1660e01b815260040162001c53919062002d7e565b60206040518083038186803b15801562001c6c57600080fd5b505afa15801562001c81573d6000803e3d6000fd5b505050506040513d601f19601f8201168201806040525062001ca7919081019062002316565b6001600160a01b031663323046b16040518163ffffffff1660e01b815260040160206040518083038186803b15801562001ce057600080fd5b505afa15801562001cf5573d6000803e3d6000fd5b505050506040513d601f19601f8201168201806040525062001d1b91908101906200262e565b8152602001876001600160a01b03166306ead22e866040518263ffffffff1660e01b815260040162001d4e919062002d7e565b60206040518083038186803b15801562001d6757600080fd5b505afa15801562001d7c573d6000803e3d6000fd5b505050506040513d601f19601f8201168201806040525062001da2919081019062002316565b6001600160a01b0316633c0359a4856040518263ffffffff1660e01b815260040162001dcf919062002d7e565b60206040518083038186803b15801562001de857600080fd5b505afa15801562001dfd573d6000803e3d6000fd5b505050506040513d601f19601f8201168201806040525062001e23919081019062002316565b6001600160a01b0316631f4591dd6040518163ffffffff1660e01b815260040160206040518083038186803b15801562001e5c57600080fd5b505afa15801562001e71573d6000803e3d6000fd5b505050506040513d601f19601f8201168201806040525062001e9791908101906200227d565b6001600160a01b03168152602001876001600160a01b03166306ead22e866040518263ffffffff1660e01b815260040162001ed3919062002d7e565b60206040518083038186803b15801562001eec57600080fd5b505afa15801562001f01573d6000803e3d6000fd5b505050506040513d601f19601f8201168201806040525062001f27919081019062002316565b6001600160a01b0316633c0359a4856040518263ffffffff1660e01b815260040162001f54919062002d7e565b60206040518083038186803b15801562001f6d57600080fd5b505afa15801562001f82573d6000803e3d6000fd5b505050506040513d601f19601f8201168201806040525062001fa8919081019062002316565b6001600160a01b031663557084ce6040518163ffffffff1660e01b815260040160006040518083038186803b15801562001fe157600080fd5b505afa15801562001ff6573d6000803e3d6000fd5b505050506040513d6000823e601f3d908101601f1916820160405262002020919081019062002337565b8152509050808585815181106200203357fe5b6020908102919091010152506001928301920162001613565b5060010162001593565b5090949350505050565b6129f28062002eff83390190565b60405180608001604052806060815260200160006001600160a01b0316815260200160008152602001600081525090565b6040518060c00160405280606081526020016000815260200160006001600160a01b031681526020016000815260200160006001600160a01b03168152602001606081525090565b8035620004d28162002ece565b8051620004d28162002ece565b600082601f8301126200211357600080fd5b81516200212a620021248262002db6565b62002d8e565b915081818352602084019350602081019050838560208402820111156200215057600080fd5b60005b83811015620021805781620021698882620020f4565b845250602092830192919091019060010162002153565b5050505092915050565b8051620004d28162002ee8565b600082601f830112620021a957600080fd5b8151620021ba620021248262002dd8565b91508082526020830160208301858383011115620021d757600080fd5b620021e483828462002e6c565b50505092915050565b600082601f830112620021ff57600080fd5b813562002210620021248262002dd8565b915080825260208301602083018583830111156200222d57600080fd5b620021e483828462002e60565b8035620004d28162002ef3565b8051620004d28162002ef3565b6000602082840312156200226757600080fd5b6000620022758484620020e7565b949350505050565b6000602082840312156200229057600080fd5b6000620022758484620020f4565b60008060408385031215620022b257600080fd5b6000620022c08585620020e7565b9250506020620022d3858286016200223a565b9150509250929050565b600060208284031215620022f057600080fd5b815167ffffffffffffffff8111156200230857600080fd5b620022758482850162002101565b6000602082840312156200232957600080fd5b60006200227584846200218a565b6000602082840312156200234a57600080fd5b815167ffffffffffffffff8111156200236257600080fd5b620022758482850162002197565b6000602082840312156200238357600080fd5b813567ffffffffffffffff8111156200239b57600080fd5b6200227584828501620021ed565b600080600080600060a08688031215620023c257600080fd5b855167ffffffffffffffff811115620023da57600080fd5b620023e88882890162002197565b9550506020620023fb88828901620020f4565b94505060406200240e8882890162002247565b9350506060620024218882890162002247565b9250506080620024348882890162002247565b9150509295509295909350565b600080600080608085870312156200245857600080fd5b843567ffffffffffffffff8111156200247057600080fd5b6200247e87828801620021ed565b945050602085013567ffffffffffffffff8111156200249c57600080fd5b620024aa87828801620021ed565b9350506040620024bd878288016200223a565b9250506060620024d087828801620020e7565b91505092959194509250565b600080600060608486031215620024f257600080fd5b833567ffffffffffffffff8111156200250a57600080fd5b6200251886828701620021ed565b93505060206200252b868287016200223a565b92505060406200253e86828701620020e7565b9150509250925092565b60008060008060008060c087890312156200256257600080fd5b865167ffffffffffffffff8111156200257a57600080fd5b6200258889828a0162002197565b96505060206200259b89828a0162002247565b955050604087015167ffffffffffffffff811115620025b957600080fd5b620025c789828a0162002197565b9450506060620025da89828a01620020f4565b9350506080620025ed89828a0162002247565b92505060a06200260089828a01620020f4565b9150509295509295509295565b6000602082840312156200262057600080fd5b60006200227584846200223a565b6000602082840312156200264157600080fd5b600062002275848462002247565b600080604083850312156200266357600080fd5b60006200267185856200223a565b9250506020620022d385828601620020e7565b6000620026928383620026d5565b505060200190565b6000620026928383620028fc565b6000620004cf838362002947565b6000620004cf8383620029da565b620026cf8162002e53565b82525050565b620026cf8162002e36565b6000620026ed8262002e13565b620026f9818562002e21565b9350620027068362002e01565b8060005b838110156200273a57815162002721888262002684565b97506200272e8362002e01565b9250506001016200270a565b509495945050505050565b6000620027528262002e17565b6200275e818562002e21565b93506200276b8362002e07565b8060005b838110156200273a57620027838262002eb6565b6200278f88826200269a565b97506200279c8362002e1b565b9250506001016200276f565b6000620027b58262002e13565b620027c1818562002e21565b935083602082028501620027d58562002e01565b8060005b85811015620028155784840389528151620027f58582620026a8565b9450620028028362002e01565b60209a909a0199925050600101620027d9565b5091979650505050505050565b60006200282f8262002e13565b6200283b818562002e21565b9350836020820285016200284f8562002e01565b8060005b858110156200281557848403895281516200286f8582620026b6565b94506200287c8362002e01565b60209a909a019992505060010162002853565b60006200289c8262002e13565b620028a8818562002e21565b935083602082028501620028bc8562002e01565b8060005b85811015620028155784840389528151620028dc8582620026b6565b9450620028e98362002e01565b60209a909a0199925050600101620028c0565b620026cf8162002e43565b6000620029148262002e13565b62002920818562002e21565b93506200293281856020860162002e6c565b6200293d8162002ec4565b9093019392505050565b805160c08084526000919084019062002961828262002907565b915050602083015162002978602086018262002a3d565b5060408301516200298d6040860182620026d5565b506060830151620029a2606086018262002a3d565b506080830151620029b76080860182620026d5565b5060a083015184820360a0860152620029d1828262002907565b95945050505050565b8051608080845260009190840190620029f4828262002907565b915050602083015162002a0b6020860182620026d5565b50604083015162002a20604086018262002a3d565b50606083015162002a35606086018262002a3d565b509392505050565b620026cf8162002e50565b60208101620004d28284620026d5565b60208082528101620004cf8184620026e0565b6040808252810162002a7e818562002745565b905062002a8f6020830184620026d5565b9392505050565b6040808252810162002aa9818562002745565b905062002a8f6020830184620026c4565b6060808252810162002acd818662002745565b905062002ade6020830185620026c4565b620022756040830184620026d5565b6080808252810162002b00818762002745565b905062002b116020830186620026c4565b62002b206040830185620026d5565b620029d1606083018462002a3d565b6060808252810162002b42818662002745565b905062002ade6020830185620026d5565b6080808252810162002b66818762002745565b905062002b77602083018662002a3d565b62002b866040830185620026c4565b620029d16060830184620026d5565b6080808252810162002ba8818762002745565b905062002bb9602083018662002a3d565b62002bc86040830185620026d5565b620029d16060830184620026c4565b60208082528101620004cf8184620027a8565b60208082528101620004cf818462002822565b60208082528101620004cf81846200288f565b60208101620004d28284620028fc565b60208082528101620004cf818462002907565b6040808252810162002aa9818562002907565b60a0808252810162002c59818862002907565b905062002c6a6020830187620026d5565b62002c79604083018662002a3d565b62002c88606083018562002a3d565b62002c97608083018462002a3d565b9695505050505050565b60a0808252810162002cb4818862002907565b9050818103602083015262002cca818762002907565b905062002cdb604083018662002a3d565b62002cea6060830185620026d5565b62002c976080830184620026c4565b6080808252810162002b66818762002907565b60c0808252810162002d1f818962002907565b905062002d30602083018862002a3d565b818103604083015262002d44818762002907565b905062002d556060830186620026d5565b62002d64608083018562002a3d565b62002d7360a0830184620026d5565b979650505050505050565b60208101620004d2828462002a3d565b60405181810167ffffffffffffffff8111828210171562002dae57600080fd5b604052919050565b600067ffffffffffffffff82111562002dce57600080fd5b5060209081020190565b600067ffffffffffffffff82111562002df057600080fd5b506020601f91909101601f19160190565b60200190565b60009081526020902090565b5190565b5490565b60010190565b90815260200190565b6001600160a01b031690565b6000620004d28262002e2a565b6000620004d28262002e36565b90565b6000620004d28262002e43565b82818337506000910152565b60005b8381101562002e8957818101518382015260200162002e6f565b8381111562002e99576000848401525b50505050565b6000620004d262002eb08362002e50565b62002e2a565b6000620004d2825462002e9f565b601f01601f191690565b62002ed98162002e36565b811462002ee557600080fd5b50565b62002ed98162002e43565b62002ed98162002e5056fe61010060405260016080908152600260a052600360c052600460e0819052610027918161003a565b5034801561003457600080fd5b506100a7565b82805482825590600052602060002090810192821561007a579160200282015b8281111561007a578251829060ff1690559160200191906001019061005a565b5061008692915061008a565b5090565b6100a491905b808211156100865760008155600101610090565b90565b61293c806100b66000396000f3fe608060405234801561001057600080fd5b50600436106100cf5760003560e01c806351d332311161008c578063c5d1637511610066578063c5d163751461019b578063ec5d9e58146101b0578063faead812146101c5578063fe794b00146101d8576100cf565b806351d332311461015557806371e5ee5f146101755780638c74a77b14610188576100cf565b806306ead22e146100d4578063137c3f7d146100fd5780632bff309a146101125780632ce349be1461013257806330dc15531461014557806351c165d51461014d575b600080fd5b6100e76100e2366004610878565b6101eb565b6040516100f491906109d3565b60405180910390f35b61011061010b366004610800565b610212565b005b610125610120366004610878565b61046e565b6040516100f49190610a1a565b610125610140366004610878565b6104ce565b6101256104ec565b6101256104f3565b610168610163366004610878565b6104f9565b6040516100f491906109c5565b610125610183366004610878565b610538565b610110610196366004610878565b610545565b6101a36105ab565b6040516100f491906109b7565b6101b86105ba565b6040516100f491906109e1565b6101a36101d3366004610878565b610648565b6101106101e63660046107af565b610663565b600581815481106101f857fe5b6000918252602090912001546001600160a01b0316905081565b60006040516102209061069a565b604051809103906000f08015801561023c573d6000803e3d6000fd5b506040516308a79aa760e41b81529091506001600160a01b03821690638a79aa709061026c9088906004016109e1565b600060405180830381600087803b15801561028657600080fd5b505af115801561029a573d6000803e3d6000fd5b5050604051635d37eeb760e01b81526001600160a01b0384169250635d37eeb791506102ca9086906004016109b7565b600060405180830381600087803b1580156102e457600080fd5b505af11580156102f8573d6000803e3d6000fd5b505060405163893ec75b60e01b81526001600160a01b038416925063893ec75b9150610328908790600401610a1a565b600060405180830381600087803b15801561034257600080fd5b505af1158015610356573d6000803e3d6000fd5b50506040516304b62c6f60e51b81526001600160a01b03841692506396c58de09150610387906000906004016109f9565b600060405180830381600087803b1580156103a157600080fd5b505af11580156103b5573d6000803e3d6000fd5b505060405163506283cd60e01b81526001600160a01b038416925063506283cd91506103e59085906004016109b7565b600060405180830381600087803b1580156103ff57600080fd5b505af1158015610413573d6000803e3d6000fd5b5050600580546001810182556000919091527f036b6384b5eca791c62761152d0c79bb0604c104a5fb6f4eb0703f3154bb3db00180546001600160a01b0319166001600160a01b039490941693909317909255505050505050565b6000805b6002548110156104c357826002828154811061048a57fe5b906000526020600020015414156104bb57600281815481106104a857fe5b90600052602060002001549150506104c9565b600101610472565b50600090505b919050565b600281815481106104db57fe5b600091825260209091200154905081565b6005545b90565b60025490565b6000805b6002548110156104c357826002828154811061051557fe5b906000526020600020015414156105305760019150506104c9565b6001016104fd565b600481815481106104db57fe5b61054e8161046e565b8114156105765760405162461bcd60e51b815260040161056d90610a0a565b60405180910390fd5b600280546001810182556000919091527f405787fa12a823e0f2b7631cc41b3ba8828b3321ca811111fa75cd3aa3bb5ace0155565b6001546001600160a01b031681565b6000805460408051602060026001851615610100026000190190941693909304601f810184900484028201840190925281815292918301828280156106405780601f1061061557610100808354040283529160200191610640565b820191906000526020600020905b81548152906001019060200180831161062357829003601f168201915b505050505081565b6003602052600090815260409020546001600160a01b031681565b81516106769060009060208501906106a7565b50600180546001600160a01b0319166001600160a01b039290921691909117905550565b611ddc80610b1e83390190565b828054600181600116156101000203166002900490600052602060002090601f016020900481019282601f106106e857805160ff1916838001178555610715565b82800160010185558215610715579182015b828111156107155782518255916020019190600101906106fa565b50610721929150610725565b5090565b6104f091905b80821115610721576000815560010161072b565b803561074a81610afd565b92915050565b600082601f83011261076157600080fd5b813561077461076f82610a4f565b610a28565b9150808252602083016020830185838301111561079057600080fd5b61079b838284610ab7565b50505092915050565b803561074a81610b14565b600080604083850312156107c257600080fd5b823567ffffffffffffffff8111156107d957600080fd5b6107e585828601610750565b92505060206107f68582860161073f565b9150509250929050565b6000806000806080858703121561081657600080fd5b843567ffffffffffffffff81111561082d57600080fd5b61083987828801610750565b945050602061084a878288016107a4565b935050604061085b8782880161073f565b925050606061086c8782880161073f565b91505092959194509250565b60006020828403121561088a57600080fd5b600061089684846107a4565b949350505050565b6108a781610a90565b82525050565b6108a781610a9b565b6108a781610aac565b60006108ca82610a83565b6108d48185610a87565b93506108e4818560208601610ac3565b6108ed81610af3565b9093019392505050565b600081546001811660008114610914576001811461093a57610979565b607f60028304166109258187610a87565b60ff1984168152955050602085019250610979565b600282046109488187610a87565b955061095385610a77565b60005b8281101561097257815488820152600190910190602001610956565b8701945050505b505092915050565b600061098e601183610a87565b70494420616c72656164792065786973747360781b815260200192915050565b6108a7816104f0565b6020810161074a828461089e565b6020810161074a82846108ad565b6020810161074a82846108b6565b602080825281016109f281846108bf565b9392505050565b602080825281016109f281846108f7565b6020808252810161074a81610981565b6020810161074a82846109ae565b60405181810167ffffffffffffffff81118282101715610a4757600080fd5b604052919050565b600067ffffffffffffffff821115610a6657600080fd5b506020601f91909101601f19160190565b60009081526020902090565b5190565b90815260200190565b600061074a82610aa0565b151590565b6001600160a01b031690565b600061074a82610a90565b82818337506000910152565b60005b83811015610ade578181015183820152602001610ac6565b83811115610aed576000848401525b50505050565b601f01601f191690565b610b0681610a90565b8114610b1157600080fd5b50565b610b06816104f056fe608060405234801561001057600080fd5b50611dbc806100206000396000f3fe608060405234801561001057600080fd5b50600436106101215760003560e01c80636af6d78c116100ad57806396c58de01161007157806396c58de0146103ff578063af991a05146104a3578063b32f36c9146104c0578063ec3615cd146104ec578063f7692bea146104f457610121565b80636af6d78c1461029d57806376db0ecc146102a557806381d12c58146102d1578063893ec75b1461033e5780638a79aa701461035b57610121565b80634cd05742116100f45780634cd0574214610212578063506283cd1461022c57806351640fee146102525780635d37eeb71461026f57806368a969971461029557610121565b8063032c6ced14610126578063331a01fd146101545780633c0359a4146101d15780633e78c7c01461020a575b600080fd5b6101526004803603604081101561013c57600080fd5b506001600160a01b038135169060200135610634565b005b61015c6106b6565b6040805160208082528351818301528351919283929083019185019080838360005b8381101561019657818101518382015260200161017e565b50505050905090810190601f1680156101c35780820380516001836020036101000a031916815260200191505b509250505060405180910390f35b6101ee600480360360208110156101e757600080fd5b5035610743565b604080516001600160a01b039092168252519081900360200190f35b6101ee61076a565b61021a610779565b60408051918252519081900360200190f35b6101526004803603602081101561024257600080fd5b50356001600160a01b031661077f565b6101ee6004803603602081101561026857600080fd5b50356107a1565b6101526004803603602081101561028557600080fd5b50356001600160a01b0316610872565b6101ee610894565b61021a6108a3565b61015c600480360360408110156102bb57600080fd5b506001600160a01b0381351690602001356108aa565b6102ee600480360360208110156102e757600080fd5b5035610a03565b60408051602080825283518183015283519192839290830191858101910280838360005b8381101561032a578181015183820152602001610312565b505050509050019250505060405180910390f35b6101526004803603602081101561035457600080fd5b5035610b1a565b6101526004803603602081101561037157600080fd5b810190602081018135600160201b81111561038b57600080fd5b82018360208201111561039d57600080fd5b803590602001918460018302840111600160201b831117156103be57600080fd5b91908080601f016020809104026020016040519081016040528093929190818152602001838380828437600092019190915250929550610b1f945050505050565b6101526004803603602081101561041557600080fd5b810190602081018135600160201b81111561042f57600080fd5b82018360208201111561044157600080fd5b803590602001918460018302840111600160201b8311171561046257600080fd5b91908080601f016020809104026020016040519081016040528093929190818152602001838380828437600092019190915250929550610b36945050505050565b61021a600480360360208110156104b957600080fd5b5035610b49565b610152600480360360408110156104d657600080fd5b506001600160a01b038135169060200135610b67565b61015c610bcc565b610152600480360360a081101561050a57600080fd5b810190602081018135600160201b81111561052457600080fd5b82018360208201111561053657600080fd5b803590602001918460018302840111600160201b8311171561055757600080fd5b91908080601f0160208091040260200160405190810160405280939291908181526020018383808284376000920191909152509295949360208101935035915050600160201b8111156105a957600080fd5b8201836020820111156105bb57600080fd5b803590602001918460018302840111600160201b831117156105dc57600080fd5b91908080601f0160208091040260200160405190810160405280939291908181526020018383808284376000920191909152509295505082359350506001600160a01b03602083013581169260400135169050610c27565b600061063f826107a1565b9050806001600160a01b0316631679876a846040518263ffffffff1660e01b815260040180826001600160a01b03166001600160a01b03168152602001915050600060405180830381600087803b15801561069957600080fd5b505af11580156106ad573d6000803e3d6000fd5b50505050505050565b60018054604080516020600284861615610100026000190190941693909304601f8101849004840282018401909252818152929183018282801561073b5780601f106107105761010080835404028352916020019161073b565b820191906000526020600020905b81548152906001019060200180831161071e57829003601f168201915b505050505081565b6005818154811061075057fe5b6000918252602090912001546001600160a01b0316905081565b6002546001600160a01b031681565b60035481565b600480546001600160a01b0319166001600160a01b0392909216919091179055565b6000805b60055481101561086b5782600582815481106107bd57fe5b6000918252602091829020015460408051636bcda13b60e01b815290516001600160a01b0390921692636bcda13b92600480840193829003018186803b15801561080657600080fd5b505afa15801561081a573d6000803e3d6000fd5b505050506040513d602081101561083057600080fd5b50511415610863576005818154811061084557fe5b6000918252602090912001546001600160a01b0316915061086d9050565b6001016107a5565b505b919050565b600280546001600160a01b0319166001600160a01b0392909216919091179055565b6004546001600160a01b031681565b6005545b90565b606060006108b7836107a1565b9050806001600160a01b031663e6e6b7c1856040518263ffffffff1660e01b815260040180826001600160a01b03166001600160a01b0316815260200191505060006040518083038186803b15801561090f57600080fd5b505afa158015610923573d6000803e3d6000fd5b505050506040513d6000823e601f3d908101601f19168201604052602081101561094c57600080fd5b8101908080516040519392919084600160201b82111561096b57600080fd5b90830190602082018581111561098057600080fd5b8251600160201b81118282018810171561099957600080fd5b82525081516020918201929091019080838360005b838110156109c65781810151838201526020016109ae565b50505050905090810190601f1680156109f35780820380516001836020036101000a031916815260200191505b5060405250505091505092915050565b60606000610a10836107a1565b9050806001600160a01b031663b74cb2db6040518163ffffffff1660e01b815260040160006040518083038186803b158015610a4b57600080fd5b505afa158015610a5f573d6000803e3d6000fd5b505050506040513d6000823e601f3d908101601f191682016040526020811015610a8857600080fd5b8101908080516040519392919084600160201b821115610aa757600080fd5b908301906020820185811115610abc57600080fd5b82518660208202830111600160201b82111715610ad857600080fd5b82525081516020918201928201910280838360005b83811015610b05578181015183820152602001610aed565b50505050905001604052505050915050919050565b600355565b8051610b32906000906020840190611094565b5050565b8051610b32906001906020840190611094565b60068181548110610b5657fe5b600091825260209091200154905081565b6000610b72826107a1565b9050806001600160a01b031663717a29a0846040518263ffffffff1660e01b815260040180826001600160a01b03166001600160a01b03168152602001915050600060405180830381600087803b15801561069957600080fd5b6000805460408051602060026001851615610100026000190190941693909304601f8101849004840282018401909252818152929183018282801561073b5780601f106107105761010080835404028352916020019161073b565b6000604051610c3590611112565b604051809103906000f080158015610c51573d6000803e3d6000fd5b506040516335bb738760e21b81526020600482018181528951602484015289519394506001600160a01b0385169363d6edce1c938b9383926044909201919085019080838360005b83811015610cb1578181015183820152602001610c99565b50505050905090810190601f168015610cde5780820380516001836020036101000a031916815260200191505b5092505050600060405180830381600087803b158015610cfd57600080fd5b505af1158015610d11573d6000803e3d6000fd5b5050604051632b2f75ad60e11b81526020600482018181528951602484015289516001600160a01b038716955063565eeb5a94508a9391928392604401919085019080838360005b83811015610d71578181015183820152602001610d59565b50505050905090810190601f168015610d9e5780820380516001836020036101000a031916815260200191505b5092505050600060405180830381600087803b158015610dbd57600080fd5b505af1158015610dd1573d6000803e3d6000fd5b50505050806001600160a01b031663cea1e858856040518263ffffffff1660e01b815260040180828152602001915050600060405180830381600087803b158015610e1b57600080fd5b505af1158015610e2f573d6000803e3d6000fd5b50505050806001600160a01b03166399aad941846040518263ffffffff1660e01b815260040180826001600160a01b03166001600160a01b03168152602001915050600060405180830381600087803b158015610e8b57600080fd5b505af1158015610e9f573d6000803e3d6000fd5b50505050806001600160a01b031663f98500086040518163ffffffff1660e01b8152600401600060405180830381600087803b158015610ede57600080fd5b505af1158015610ef2573d6000803e3d6000fd5b50506040516308a79aa760e41b81526020600482019081526000805460026000196101006001841615020190911604602484018190526001600160a01b0387169550638a79aa7094509092829160449091019084908015610f945780601f10610f6957610100808354040283529160200191610f94565b820191906000526020600020905b815481529060010190602001808311610f7757829003601f168201915b505092505050600060405180830381600087803b158015610fb457600080fd5b505af1158015610fc8573d6000803e3d6000fd5b50505050806001600160a01b031663e5d235f4836040518263ffffffff1660e01b815260040180826001600160a01b03166001600160a01b03168152602001915050600060405180830381600087803b15801561102457600080fd5b505af1158015611038573d6000803e3d6000fd5b5050600580546001810182556000919091527f036b6384b5eca791c62761152d0c79bb0604c104a5fb6f4eb0703f3154bb3db00180546001600160a01b0319166001600160a01b03949094169390931790925550505050505050565b828054600181600116156101000203166002900490600052602060002090601f016020900481019282601f106110d557805160ff1916838001178555611102565b82800160010185558215611102579182015b828111156111025782518255916020019190600101906110e7565b5061110e92915061111f565b5090565b610c4e8061113a83390190565b6108a791905b8082111561110e576000815560010161112556fe608060405234801561001057600080fd5b50610c2e806100206000396000f3fe608060405234801561001057600080fd5b506004361061014d5760003560e01c806399aad941116100c3578063d40afd8b1161007c578063d40afd8b146104c2578063d6edce1c146104ca578063e264da6914610570578063e5d235f41461058d578063e6e6b7c1146105b3578063f9850008146105d95761014d565b806399aad941146103dc578063a982bd5014610402578063b508ba3114610428578063b74cb2db14610430578063bf088e5714610488578063cea1e858146104a55761014d565b80634cc82215116101155780634cc822151461023d578063557084ce1461025a578063565eeb5a146102625780636bcda13b14610308578063717a29a0146103105780638a79aa70146103365761014d565b8063091841f1146101525780631679876a146101cf5780631f4591dd146101f75780632b64818f1461021b578063323046b114610235575b600080fd5b61015a6105e1565b6040805160208082528351818301528351919283929083019185019080838360005b8381101561019457818101518382015260200161017c565b50505050905090810190601f1680156101c15780820380516001836020036101000a031916815260200191505b509250505060405180910390f35b6101f5600480360360208110156101e557600080fd5b50356001600160a01b031661066e565b005b6101ff6106c0565b604080516001600160a01b039092168252519081900360200190f35b6102236106cf565b60408051918252519081900360200190f35b6102236106d6565b6101f56004803603602081101561025357600080fd5b50356106dc565b61015a610784565b6101f56004803603602081101561027857600080fd5b81019060208101813564010000000081111561029357600080fd5b8201836020820111156102a557600080fd5b803590602001918460018302840111640100000000831117156102c757600080fd5b91908080601f0160208091040260200160405190810160405280939291908181526020018383808284376000920191909152509295506107df945050505050565b6102236107f6565b6101f56004803603602081101561032657600080fd5b50356001600160a01b03166107fc565b6101f56004803603602081101561034c57600080fd5b81019060208101813564010000000081111561036757600080fd5b82018360208201111561037957600080fd5b8035906020019184600183028401116401000000008311171561039b57600080fd5b91908080601f016020809104026020016040519081016040528093929190818152602001838380828437600092019190915250929550610894945050505050565b6101f5600480360360208110156103f257600080fd5b50356001600160a01b03166108a7565b6101f56004803603602081101561041857600080fd5b50356001600160a01b03166108c9565b61015a61091b565b610438610976565b60408051602080825283518183015283519192839290830191858101910280838360005b8381101561047457818101518382015260200161045c565b505050509050019250505060405180910390f35b6101ff6004803603602081101561049e57600080fd5b50356109d8565b6101f5600480360360208110156104bb57600080fd5b50356109ff565b6101ff610a04565b6101f5600480360360208110156104e057600080fd5b8101906020810181356401000000008111156104fb57600080fd5b82018360208201111561050d57600080fd5b8035906020019184600183028401116401000000008311171561052f57600080fd5b91908080601f016020809104026020016040519081016040528093929190818152602001838380828437600092019190915250929550610a13945050505050565b6101ff6004803603602081101561058657600080fd5b5035610a26565b6101f5600480360360208110156105a357600080fd5b50356001600160a01b0316610a33565b61015a600480360360208110156105c957600080fd5b50356001600160a01b0316610a55565b6101f5610b5b565b60018054604080516020600284861615610100026000190190941693909304601f810184900484028201840190925281815292918301828280156106665780601f1061063b57610100808354040283529160200191610666565b820191906000526020600020905b81548152906001019060200180831161064957829003601f168201915b505050505081565b600880546001810182556000919091527ff3f7a9fe364faab93b216da50a3214154f22a0a2b415b23a84c8169e8b636ee30180546001600160a01b0319166001600160a01b0392909216919091179055565b6007546001600160a01b031681565b6002545b90565b60065481565b805b6008546000190181101561075357600881600101815481106106fc57fe5b600091825260209091200154600880546001600160a01b03909216918390811061072257fe5b600091825260209091200180546001600160a01b0319166001600160a01b03929092169190911790556001016106de565b50600880548061075f57fe5b600082815260209020810160001990810180546001600160a01b031916905501905550565b6000805460408051602060026001851615610100026000190190941693909304601f810184900484028201840190925281815292918301828280156106665780601f1061063b57610100808354040283529160200191610666565b80516107f2906001906020840190610b61565b5050565b60035481565b6002805460018101825560009182527f405787fa12a823e0f2b7631cc41b3ba8828b3321ca811111fa75cd3aa3bb5ace0180546001600160a01b0319166001600160a01b0384161790555b6008548110156107f257816001600160a01b03166008828154811061086857fe5b6000918252602090912001546001600160a01b0316141561088c5761088c816106dc565b600101610847565b80516107f2906005906020840190610b61565b600480546001600160a01b0319166001600160a01b0392909216919091179055565b600280546001810182556000919091527f405787fa12a823e0f2b7631cc41b3ba8828b3321ca811111fa75cd3aa3bb5ace0180546001600160a01b0319166001600160a01b0392909216919091179055565b6005805460408051602060026001851615610100026000190190941693909304601f810184900484028201840190925281815292918301828280156106665780601f1061063b57610100808354040283529160200191610666565b606060088054806020026020016040519081016040528092919081815260200182805480156109ce57602002820191906000526020600020905b81546001600160a01b031681526001909101906020018083116109b0575b5050505050905090565b600281815481106109e557fe5b6000918252602090912001546001600160a01b0316905081565b600355565b6004546001600160a01b031681565b80516107f2906000906020840190610b61565b600881815481106109e557fe5b600780546001600160a01b0319166001600160a01b0392909216919091179055565b606060005b600254811015610ac357826001600160a01b031660028281548110610a7b57fe5b6000918252602090912001546001600160a01b03161415610abb57505060408051808201909152600781526614149154d1539560ca1b6020820152610b56565b600101610a5a565b5060005b600854811015610b3257826001600160a01b031660088281548110610ae857fe5b6000918252602090912001546001600160a01b03161415610b2a575050604080518082019091526009815268149154555154d5115160ba1b6020820152610b56565b600101610ac7565b505060408051808201909152600a8152691393d517d4149154d39560b21b60208201525b919050565b42600655565b828054600181600116156101000203166002900490600052602060002090601f016020900481019282601f10610ba257805160ff1916838001178555610bcf565b82800160010185558215610bcf579182015b82811115610bcf578251825591602001919060010190610bb4565b50610bdb929150610bdf565b5090565b6106d391905b80821115610bdb5760008155600101610be556fea265627a7a72315820e509f0d0a9afc8660e99c4f75f103b1c7221976bbe5116860419a87109fa1b6464736f6c63430005100032a265627a7a7231582028e64fbd8a3413bd71a602584f62c914074ed4ae287fd23ce3c12ad03139715564736f6c63430005100032a365627a7a72315820e017ec88c2c0c284c8073f84e269ac9053910ea26273b0ad1063342a8ab2cf1a6c6578706572696d656e74616cf564736f6c63430005100040a365627a7a7231582028841aaac71d5301f0ff2221e072b76cfd272efe0c5236eebeb32b1ca6a9e5a46c6578706572696d656e74616cf564736f6c63430005100040608060405234801561001057600080fd5b50611ab9806100206000396000f3fe608060405234801561001057600080fd5b50600436106100a95760003560e01c8063ab096cf511610071578063ab096cf51461014e578063bd11906914610163578063bee3e32514610183578063dd121998146101a8578063f902b77e146101bb578063fce9f721146101ce576100a9565b806306ae6148146100ae5780631a11a723146100d757806326c56720146100f7578063326948ad146101175780636458f5421461012a575b600080fd5b6100c16100bc366004611577565b6101e1565b6040516100ce9190611891565b60405180910390f35b6100ea6100e5366004611710565b6102b7565b6040516100ce919061195d565b61010a6101053660046116a4565b61042c565b6040516100ce919061189f565b61010a610125366004611577565b6104ca565b61013d610138366004611577565b61062e565b6040516100ce9594939291906118b0565b61016161015c3660046116a4565b6107b9565b005b61017661017136600461162c565b610830565b6040516100ce9190611880565b6101966101913660046115c8565b6108c2565b6040516100ce969594939291906118f7565b6101616101b63660046116a4565b610f4e565b61010a6101c9366004611577565b610f8c565b6100c16101dc3660046115c8565b611176565b6000805b83518110156102af57826001600160a01b031684828151811061020457fe5b60200260200101516001600160a01b031663c5d163756040518163ffffffff1660e01b815260040160206040518083038186803b15801561024457600080fd5b505afa158015610258573d6000803e3d6000fd5b505050506040513d601f19601f8201168201806040525061027c919081019061151c565b6001600160a01b031614156102a75783818151811061029757fe5b60200260200101519150506102b1565b6001016101e5565b505b92915050565b600080805b836001600160a01b03166330dc15536040518163ffffffff1660e01b815260040160206040518083038186803b1580156102f557600080fd5b505afa158015610309573d6000803e3d6000fd5b505050506040513d601f19601f8201168201806040525061032d9190810190611781565b8110156102af57604051630375691760e11b81526001600160a01b038516906306ead22e9061036090849060040161195d565b60206040518083038186803b15801561037857600080fd5b505afa15801561038c573d6000803e3d6000fd5b505050506040513d601f19601f820116820180604052506103b0919081019061172e565b6001600160a01b0316636af6d78c6040518163ffffffff1660e01b815260040160206040518083038186803b1580156103e857600080fd5b505afa1580156103fc573d6000803e3d6000fd5b505050506040513d601f19601f820116820180604052506104209190810190611781565b909101906001016102bc565b6060600061043b868486611176565b604051631db6c3b360e21b81529091506001600160a01b038216906376db0ecc9061046c9087908990600401611865565b60006040518083038186803b15801561048457600080fd5b505afa158015610498573d6000803e3d6000fd5b505050506040513d6000823e601f3d908101601f191682016040526104c0919081019061174c565b9695505050505050565b606060005b835181101561060d57826001600160a01b03168482815181106104ee57fe5b60200260200101516001600160a01b031663c5d163756040518163ffffffff1660e01b815260040160206040518083038186803b15801561052e57600080fd5b505afa158015610542573d6000803e3d6000fd5b505050506040513d601f19601f82011682018060405250610566919081019061151c565b6001600160a01b031614156106055783818151811061058157fe5b60200260200101516001600160a01b031663ec5d9e586040518163ffffffff1660e01b815260040160006040518083038186803b1580156105c157600080fd5b505afa1580156105d5573d6000803e3d6000fd5b505050506040513d6000823e601f3d908101601f191682016040526105fd919081019061174c565b9150506102b1565b6001016104cf565b50506040805180820190915260028152616e6f60f01b602082015292915050565b6060600080600080600061064288886101e1565b9050806001600160a01b031663ec5d9e586040518163ffffffff1660e01b815260040160006040518083038186803b15801561067d57600080fd5b505afa158015610691573d6000803e3d6000fd5b505050506040513d6000823e601f3d908101601f191682016040526106b9919081019061174c565b87826001600160a01b03166351c165d56040518163ffffffff1660e01b815260040160206040518083038186803b1580156106f357600080fd5b505afa158015610707573d6000803e3d6000fd5b505050506040513d601f19601f8201168201806040525061072b9190810190611781565b836001600160a01b03166330dc15536040518163ffffffff1660e01b815260040160206040518083038186803b15801561076457600080fd5b505afa158015610778573d6000803e3d6000fd5b505050506040513d601f19601f8201168201806040525061079c9190810190611781565b6107a5856102b7565b939c929b5090995097509095509350505050565b60006107c6858385611176565b60405163b32f36c960e01b81529091506001600160a01b0382169063b32f36c9906107f79086908890600401611865565b600060405180830381600087803b15801561081157600080fd5b505af1158015610825573d6000803e3d6000fd5b505050505050505050565b6060600061083f868686611176565b60405163103a258b60e31b81529091506001600160a01b038216906381d12c589061086e90869060040161195d565b60006040518083038186803b15801561088657600080fd5b505afa15801561089a573d6000803e3d6000fd5b505050506040513d6000823e601f3d908101601f191682016040526104c09190810190611542565b6060600060606000806000806108d88a8a6101e1565b905060005b816001600160a01b03166330dc15536040518163ffffffff1660e01b815260040160206040518083038186803b15801561091657600080fd5b505afa15801561092a573d6000803e3d6000fd5b505050506040513d601f19601f8201168201806040525061094e9190810190611781565b811015610f1357886001600160a01b0316826001600160a01b03166306ead22e836040518263ffffffff1660e01b815260040161098b919061195d565b60206040518083038186803b1580156109a357600080fd5b505afa1580156109b7573d6000803e3d6000fd5b505050506040513d601f19601f820116820180604052506109db919081019061172e565b6001600160a01b0316633e78c7c06040518163ffffffff1660e01b815260040160206040518083038186803b158015610a1357600080fd5b505afa158015610a27573d6000803e3d6000fd5b505050506040513d601f19601f82011682018060405250610a4b919081019061151c565b6001600160a01b03161415610f0b57604051630375691760e11b81526001600160a01b038316906306ead22e90610a8690849060040161195d565b60206040518083038186803b158015610a9e57600080fd5b505afa158015610ab2573d6000803e3d6000fd5b505050506040513d601f19601f82011682018060405250610ad6919081019061172e565b6001600160a01b031663ec3615cd6040518163ffffffff1660e01b815260040160006040518083038186803b158015610b0e57600080fd5b505afa158015610b22573d6000803e3d6000fd5b505050506040513d6000823e601f3d908101601f19168201604052610b4a919081019061174c565b604051630375691760e11b81526001600160a01b038416906306ead22e90610b7690859060040161195d565b60206040518083038186803b158015610b8e57600080fd5b505afa158015610ba2573d6000803e3d6000fd5b505050506040513d601f19601f82011682018060405250610bc6919081019061172e565b6001600160a01b0316634cd057426040518163ffffffff1660e01b815260040160206040518083038186803b158015610bfe57600080fd5b505afa158015610c12573d6000803e3d6000fd5b505050506040513d601f19601f82011682018060405250610c369190810190611781565b836001600160a01b031663ec5d9e586040518163ffffffff1660e01b815260040160006040518083038186803b158015610c6f57600080fd5b505afa158015610c83573d6000803e3d6000fd5b505050506040513d6000823e601f3d908101601f19168201604052610cab919081019061174c565b604051630375691760e11b81526001600160a01b038616906306ead22e90610cd790879060040161195d565b60206040518083038186803b158015610cef57600080fd5b505afa158015610d03573d6000803e3d6000fd5b505050506040513d601f19601f82011682018060405250610d27919081019061172e565b6001600160a01b0316633e78c7c06040518163ffffffff1660e01b815260040160206040518083038186803b158015610d5f57600080fd5b505afa158015610d73573d6000803e3d6000fd5b505050506040513d601f19601f82011682018060405250610d97919081019061151c565b604051630375691760e11b81526001600160a01b038716906306ead22e90610dc390889060040161195d565b60206040518083038186803b158015610ddb57600080fd5b505afa158015610def573d6000803e3d6000fd5b505050506040513d601f19601f82011682018060405250610e13919081019061172e565b6001600160a01b0316636af6d78c6040518163ffffffff1660e01b815260040160206040518083038186803b158015610e4b57600080fd5b505afa158015610e5f573d6000803e3d6000fd5b505050506040513d601f19601f82011682018060405250610e839190810190611781565b866001600160a01b031663c5d163756040518163ffffffff1660e01b815260040160206040518083038186803b158015610ebc57600080fd5b505afa158015610ed0573d6000803e3d6000fd5b505050506040513d601f19601f82011682018060405250610ef4919081019061151c565b949c50929a50909850965094509250610f42915050565b6001016108dd565b505060408051602080820183526000808352835191820190935282815290975090955093508492508291508190505b93975093979195509350565b6000610f5b858385611176565b60405163032c6ced60e01b81529091506001600160a01b0382169063032c6ced906107f79086908890600401611865565b606060005b835181101561060d5760005b848281518110610fa957fe5b60200260200101516001600160a01b03166330dc15536040518163ffffffff1660e01b815260040160206040518083038186803b158015610fe957600080fd5b505afa158015610ffd573d6000803e3d6000fd5b505050506040513d601f19601f820116820180604052506110219190810190611781565b81101561116d57836001600160a01b031685838151811061103e57fe5b60200260200101516001600160a01b03166306ead22e836040518263ffffffff1660e01b8152600401611071919061195d565b60206040518083038186803b15801561108957600080fd5b505afa15801561109d573d6000803e3d6000fd5b505050506040513d601f19601f820116820180604052506110c1919081019061172e565b6001600160a01b0316633e78c7c06040518163ffffffff1660e01b815260040160206040518083038186803b1580156110f957600080fd5b505afa15801561110d573d6000803e3d6000fd5b505050506040513d601f19601f82011682018060405250611131919081019061151c565b6001600160a01b03161415611165576040518060400160405280600381526020016279657360e81b815250925050506102b1565b600101610f9d565b50600101610f91565b60008061118385856101e1565b905060005b816001600160a01b03166330dc15536040518163ffffffff1660e01b815260040160206040518083038186803b1580156111c157600080fd5b505afa1580156111d5573d6000803e3d6000fd5b505050506040513d601f19601f820116820180604052506111f99190810190611781565b81101561139257836001600160a01b0316826001600160a01b03166306ead22e836040518263ffffffff1660e01b8152600401611236919061195d565b60206040518083038186803b15801561124e57600080fd5b505afa158015611262573d6000803e3d6000fd5b505050506040513d601f19601f82011682018060405250611286919081019061172e565b6001600160a01b0316633e78c7c06040518163ffffffff1660e01b815260040160206040518083038186803b1580156112be57600080fd5b505afa1580156112d2573d6000803e3d6000fd5b505050506040513d601f19601f820116820180604052506112f6919081019061151c565b6001600160a01b0316141561138a57604051630375691760e11b81526001600160a01b038316906306ead22e9061133190849060040161195d565b60206040518083038186803b15801561134957600080fd5b505afa15801561135d573d6000803e3d6000fd5b505050506040513d601f19601f82011682018060405250611381919081019061172e565b92505050611395565b600101611188565b50505b9392505050565b80356102b181611a4d565b80516102b181611a4d565b600082601f8301126113c357600080fd5b81516113d66113d182611992565b61196b565b915081818352602084019350602081019050838560208402820111156113fb57600080fd5b60005b83811015611427578161141188826113a7565b84525060209283019291909101906001016113fe565b5050505092915050565b600082601f83011261144257600080fd5b81356114506113d182611992565b9150818183526020840193506020810190508385602084028201111561147557600080fd5b60005b83811015611427578161148b88826114a1565b8452506020928301929190910190600101611478565b80356102b181611a64565b80516102b181611a64565b600082601f8301126114c857600080fd5b81516114d66113d1826119b3565b915080825260208301602083018583830111156114f257600080fd5b6114fd838284611a13565b50505092915050565b80356102b181611a6d565b80516102b181611a6d565b60006020828403121561152e57600080fd5b600061153a84846113a7565b949350505050565b60006020828403121561155457600080fd5b815167ffffffffffffffff81111561156b57600080fd5b61153a848285016113b2565b6000806040838503121561158a57600080fd5b823567ffffffffffffffff8111156115a157600080fd5b6115ad85828601611431565b92505060206115be8582860161139c565b9150509250929050565b6000806000606084860312156115dd57600080fd5b833567ffffffffffffffff8111156115f457600080fd5b61160086828701611431565b93505060206116118682870161139c565b92505060406116228682870161139c565b9150509250925092565b6000806000806080858703121561164257600080fd5b843567ffffffffffffffff81111561165957600080fd5b61166587828801611431565b94505060206116768782880161139c565b93505060406116878782880161139c565b925050606061169887828801611506565b91505092959194509250565b600080600080608085870312156116ba57600080fd5b843567ffffffffffffffff8111156116d157600080fd5b6116dd87828801611431565b94505060206116ee87828801611506565b93505060406116ff8782880161139c565b92505060606116988782880161139c565b60006020828403121561172257600080fd5b600061153a84846114a1565b60006020828403121561174057600080fd5b600061153a84846114ac565b60006020828403121561175e57600080fd5b815167ffffffffffffffff81111561177557600080fd5b61153a848285016114b7565b60006020828403121561179357600080fd5b600061153a8484611511565b60006117ab83836117b3565b505060200190565b6117bc816119ee565b82525050565b60006117cd826119e1565b6117d781856119e5565b93506117e2836119db565b8060005b838110156118105781516117fa888261179f565b9750611805836119db565b9250506001016117e6565b509495945050505050565b6117bc816119f9565b600061182f826119e1565b61183981856119e5565b9350611849818560208601611a13565b61185281611a43565b9093019392505050565b6117bc81611a10565b6040810161187382856117b3565b611395602083018461185c565b6020808252810161139581846117c2565b602081016102b1828461181b565b602080825281016113958184611824565b60a080825281016118c18188611824565b90506118d060208301876117b3565b6118dd604083018661185c565b6118ea606083018561185c565b6104c0608083018461185c565b60c080825281016119088189611824565b9050611917602083018861185c565b81810360408301526119298187611824565b905061193860608301866117b3565b611945608083018561185c565b61195260a08301846117b3565b979650505050505050565b602081016102b1828461185c565b60405181810167ffffffffffffffff8111828210171561198a57600080fd5b604052919050565b600067ffffffffffffffff8211156119a957600080fd5b5060209081020190565b600067ffffffffffffffff8211156119ca57600080fd5b506020601f91909101601f19160190565b60200190565b5190565b90815260200190565b60006102b182611a04565b60006102b1826119ee565b6001600160a01b031690565b90565b60005b83811015611a2e578181015183820152602001611a16565b83811115611a3d576000848401525b50505050565b601f01601f191690565b611a56816119ee565b8114611a6157600080fd5b50565b611a56816119f9565b611a5681611a1056fea365627a7a72315820db3af0c247cd17fd24180c60d5a95c86f8d14daff7eb371c77d0117719c46fc36c6578706572696d656e74616cf564736f6c63430005100040",
  "source": "// SPDX-License-Identifier: MIT\r\npragma solidity >=0.4.21 <0.7.0;\r\npragma experimental ABIEncoderV2;\r\nimport \"./Organisation.sol\";\r\nimport \"./Student.sol\";\r\nimport \"./Company.sol\";\r\nimport \"./HelperOrg.sol\";\r\n\r\ncontract OverAll {\r\n    struct certificate {\r\n        string name;\r\n        uint256 uniqueId;\r\n        address issuedTo;\r\n        uint256 date;\r\n        address issuedBy;\r\n        string ipfs;\r\n    }\r\n    HelperOrg public helper = new HelperOrg();\r\n    Organisation[] public Orgaganisations;\r\n\r\n    // Company[] public Companies;\r\n\r\n    mapping(address => address) public stToOrg;\r\n\r\n    struct organisation {\r\n        string name;\r\n        address addr;\r\n        uint256 noOfStudents;\r\n        uint256 noOfCertificates;\r\n    }\r\n    struct student {\r\n        string name;\r\n        address addr;\r\n        uint256 studentUniqueId;\r\n        uint256 noOfCertificates;\r\n    }\r\n\r\n    // addd organisation\r\n    function addOrganisation(string memory name) public {\r\n        Organisation org = new Organisation();\r\n        org.addOrganisation(name, msg.sender);\r\n        Orgaganisations.push(org);\r\n    }\r\n\r\n    function checkOrganisation() public view returns (string memory) {\r\n        return helper.checkOrganisation(Orgaganisations, msg.sender);\r\n    }\r\n\r\n    function getOrganisation() public view returns (Organisation) {\r\n        return helper.getOrganisation(Orgaganisations, msg.sender);\r\n    }\r\n\r\n    // all orgaisations\r\n    function getAllOrganisations() public view returns (organisation[] memory) {\r\n        organisation[] memory orgs = new organisation[](Orgaganisations.length);\r\n        for (uint256 i = 0; i < Orgaganisations.length; i++) {\r\n            orgs[i].name = Orgaganisations[i].organisationName();\r\n            orgs[i].addr = Orgaganisations[i].organisationAddress();\r\n            orgs[i].noOfStudents = Orgaganisations[i].noOfStudents();\r\n            orgs[i].noOfCertificates = helper.totalCertificates(\r\n                Orgaganisations[i]\r\n            );\r\n        }\r\n        return orgs;\r\n        // return Orgaganisations;\r\n    }\r\n\r\n    // get organisation details\r\n    function getOrganisationDetails()\r\n        public\r\n        view\r\n        returns (\r\n            string memory,\r\n            address,\r\n            uint256,\r\n            uint256,\r\n            uint256\r\n        )\r\n    {\r\n        return helper.getOrganisationDetails(Orgaganisations, msg.sender);\r\n    }\r\n\r\n    // get allstudents\r\n    function getAllStudents() public view returns (student[] memory) {\r\n        Organisation org = getOrganisation();\r\n        student[] memory allStudents = new student[](org.noOfStudents());\r\n        for (uint256 i = 0; i < org.noOfStudents(); i++) {\r\n            student memory s = student(\r\n                org.students(i).student_name(),\r\n                org.students(i).student_acc_address(),\r\n                org.students(i).student_unique_id(),\r\n                org.students(i).noOfCertificates()\r\n            );\r\n            allStudents[i] = s;\r\n        }\r\n        return allStudents;\r\n    }\r\n\r\n    // add student\r\n    function addStudent(\r\n        string memory _name,\r\n        uint256 _uid,\r\n        address _orgAddr\r\n    ) public {\r\n        Organisation org = helper.getOrganisation(Orgaganisations, _orgAddr);\r\n        org.addStudent(_name, _uid, msg.sender, _orgAddr);\r\n\r\n        stToOrg[msg.sender] = _orgAddr;\r\n    }\r\n\r\n    // get all certificates of a student\r\n    function getAllCertificates(address _orgAddress) public view returns (certificate[] memory) {\r\n        // Organisation org = getOrganisation();\r\n        Organisation org=helper.getOrganisation(Orgaganisations, _orgAddress);\r\n        certificate[] memory allCertificates = new certificate[](\r\n            helper.totalCertificates(org)\r\n        );\r\n        uint256 k = 0;\r\n        for (uint256 i = 0; i < org.noOfStudents(); i++) {\r\n            for (uint256 j = 0; j < org.students(i).noOfCertificates(); j++) {\r\n                certificate memory c = certificate(\r\n                    org.students(i).certifications(j).studentName(),\r\n                    org.students(i).certifications(j).certification_unique_id(),\r\n                    org.students(i).certifications(j).issued_to(),\r\n                    org.students(i).certifications(j).date(),\r\n                    org.students(i).certifications(j).issuedBy(),\r\n                    org\r\n                        .students(i)\r\n                        .certifications(j)\r\n                        .certification_ipfs_hashValue()\r\n                );\r\n                allCertificates[k] = c;\r\n                k++;\r\n            }\r\n        }\r\n        return allCertificates;\r\n    }\r\n\r\n    // checkstudent\r\n    function checkStudent() public view returns (string memory) {\r\n        return helper.checkStudent(Orgaganisations, msg.sender);\r\n    }\r\n\r\n    function addStudentUniqueID(uint256 _id) public {\r\n        Organisation org = getOrganisation();\r\n        org.addStudentId(_id);\r\n    }\r\n\r\n    // addcertificate to student\r\n    function addCertificate(\r\n        string memory _ipfs,\r\n        string memory _merklee,\r\n        uint256 cUnique,\r\n        address sUnique\r\n    ) public {\r\n        Student s = helper.getStudent(Orgaganisations, msg.sender, sUnique);\r\n        s.addCertificate(_ipfs, _merklee, cUnique, sUnique, msg.sender); // add certificate\r\n    }\r\n\r\n    // getstudentdetail\r\n    function getStudentDetail(address addr)\r\n        public\r\n        view\r\n        returns (\r\n            string memory,\r\n            uint256,\r\n            string memory,\r\n            address,\r\n            uint256,\r\n            address\r\n        )\r\n    {\r\n        return helper.getStudentDetail(Orgaganisations, stToOrg[addr], addr);\r\n    }\r\n\r\n    function requestAcess(uint256 _id, address _orgAdd) public {\r\n        helper.requestAcess(Orgaganisations, _id, msg.sender, _orgAdd);\r\n    }\r\n\r\n    function checkAcess(uint256 _id, address _orgAdd)\r\n        public\r\n        view\r\n        returns (string memory)\r\n    {\r\n        return helper.checkAcess(Orgaganisations, _id, msg.sender, _orgAdd);\r\n    }\r\n\r\n    function requests(uint256 _id, address stu)\r\n        public\r\n        view\r\n        returns (address[] memory)\r\n    {\r\n        return helper.requests(Orgaganisations, msg.sender, stu, _id);\r\n    }\r\n\r\n    function giveAcess(address stu, uint256 _id) public {\r\n        return helper.giveAcess(Orgaganisations, _id, stu, msg.sender);\r\n    }\r\n\r\n    // function addCompany(string memory _name) public {\r\n    //     Company c = new Company();\r\n    //     c.addCompany(_name, msg.sender);\r\n    //     Companies.push(c);\r\n    // }\r\n}\r\n",
  "sourcePath": "C:\\Users\\sthipp005\\Downloads\\cryptoblockchain\\blockcrypto\\contracts\\OverAll.sol",
  "compiler": {
    "name": "solc",
    "version": "0.5.16+commit.9c3226ce.Emscripten.clang"
  },
  "schemaVersion": "3.4.11",
  "updatedAt": "2023-02-20T16:00:57.849Z",
  "networkType": "ethereum",
  "devdoc": {
    "methods": {}
  },
  "userdoc": {
    "methods": {}
  }
}