{
  "contractName": "OverAllTem",
  "abi": [
    {
      "constant": true,
      "inputs": [
        {
          "internalType": "uint256",
          "name": "",
          "type": "uint256"
        }
      ],
      "name": "Companies",
      "outputs": [
        {
          "internalType": "contract Company",
          "name": "",
          "type": "address"
        }
      ],
      "payable": false,
      "stateMutability": "view",
      "type": "function"
    },
    {
      "constant": true,
      "inputs": [
        {
          "internalType": "uint256",
          "name": "",
          "type": "uint256"
        }
      ],
      "name": "Orgaganisations",
      "outputs": [
        {
          "internalType": "contract Organisation",
          "name": "",
          "type": "address"
        }
      ],
      "payable": false,
      "stateMutability": "view",
      "type": "function"
    },
    {
      "constant": true,
      "inputs": [
        {
          "internalType": "uint256",
          "name": "",
          "type": "uint256"
        }
      ],
      "name": "studentToOrganisationArray",
      "outputs": [
        {
          "internalType": "address",
          "name": "_studentAdd",
          "type": "address"
        },
        {
          "internalType": "address",
          "name": "_orgAddress",
          "type": "address"
        }
      ],
      "payable": false,
      "stateMutability": "view",
      "type": "function"
    },
    {
      "constant": true,
      "inputs": [
        {
          "internalType": "address",
          "name": "_stAddress",
          "type": "address"
        }
      ],
      "name": "getStudentOrgAddress",
      "outputs": [
        {
          "internalType": "address",
          "name": "",
          "type": "address"
        }
      ],
      "payable": false,
      "stateMutability": "view",
      "type": "function"
    },
    {
      "constant": true,
      "inputs": [
        {
          "internalType": "address",
          "name": "_orgAddress",
          "type": "address"
        }
      ],
      "name": "getOrganisationByAddress",
      "outputs": [
        {
          "internalType": "contract Organisation",
          "name": "",
          "type": "address"
        }
      ],
      "payable": false,
      "stateMutability": "view",
      "type": "function"
    },
    {
      "constant": false,
      "inputs": [
        {
          "internalType": "string",
          "name": "_ipfs",
          "type": "string"
        },
        {
          "internalType": "string",
          "name": "_merklee",
          "type": "string"
        },
        {
          "internalType": "uint256",
          "name": "cUnique",
          "type": "uint256"
        },
        {
          "internalType": "address",
          "name": "sUnique",
          "type": "address"
        }
      ],
      "name": "addCertificate",
      "outputs": [],
      "payable": false,
      "stateMutability": "nonpayable",
      "type": "function"
    },
    {
      "constant": true,
      "inputs": [],
      "name": "getStudentDetail",
      "outputs": [
        {
          "internalType": "string",
          "name": "",
          "type": "string"
        },
        {
          "internalType": "uint256",
          "name": "",
          "type": "uint256"
        },
        {
          "internalType": "string",
          "name": "",
          "type": "string"
        },
        {
          "internalType": "address",
          "name": "",
          "type": "address"
        },
        {
          "internalType": "uint256",
          "name": "",
          "type": "uint256"
        }
      ],
      "payable": false,
      "stateMutability": "view",
      "type": "function"
    },
    {
      "constant": false,
      "inputs": [
        {
          "internalType": "string",
          "name": "_name",
          "type": "string"
        },
        {
          "internalType": "uint256",
          "name": "_uid",
          "type": "uint256"
        },
        {
          "internalType": "address",
          "name": "_orgAddr",
          "type": "address"
        }
      ],
      "name": "addStudent",
      "outputs": [],
      "payable": false,
      "stateMutability": "nonpayable",
      "type": "function"
    },
    {
      "constant": false,
      "inputs": [
        {
          "internalType": "string",
          "name": "_companyName",
          "type": "string"
        }
      ],
      "name": "addCompany",
      "outputs": [],
      "payable": false,
      "stateMutability": "nonpayable",
      "type": "function"
    },
    {
      "constant": true,
      "inputs": [],
      "name": "getAllOrganisations",
      "outputs": [
        {
          "components": [
            {
              "internalType": "string",
              "name": "name",
              "type": "string"
            },
            {
              "internalType": "address",
              "name": "addr",
              "type": "address"
            }
          ],
          "internalType": "struct OverAllTem.organisation[]",
          "name": "",
          "type": "tuple[]"
        }
      ],
      "payable": false,
      "stateMutability": "view",
      "type": "function"
    },
    {
      "constant": false,
      "inputs": [
        {
          "internalType": "string",
          "name": "_organisationName",
          "type": "string"
        }
      ],
      "name": "addOrganisation",
      "outputs": [],
      "payable": false,
      "stateMutability": "nonpayable",
      "type": "function"
    },
    {
      "constant": true,
      "inputs": [],
      "name": "checkOrganisation",
      "outputs": [
        {
          "internalType": "string",
          "name": "",
          "type": "string"
        }
      ],
      "payable": false,
      "stateMutability": "view",
      "type": "function"
    },
    {
      "constant": true,
      "inputs": [],
      "name": "checkStudent",
      "outputs": [
        {
          "internalType": "string",
          "name": "",
          "type": "string"
        }
      ],
      "payable": false,
      "stateMutability": "view",
      "type": "function"
    },
    {
      "constant": true,
      "inputs": [],
      "name": "getOrganisation",
      "outputs": [
        {
          "internalType": "contract Organisation",
          "name": "",
          "type": "address"
        }
      ],
      "payable": false,
      "stateMutability": "view",
      "type": "function"
    },
    {
      "constant": true,
      "inputs": [],
      "name": "getOrganisationDetails",
      "outputs": [
        {
          "internalType": "string",
          "name": "",
          "type": "string"
        },
        {
          "internalType": "address",
          "name": "",
          "type": "address"
        },
        {
          "internalType": "uint256",
          "name": "",
          "type": "uint256"
        },
        {
          "internalType": "uint256",
          "name": "",
          "type": "uint256"
        },
        {
          "internalType": "uint256",
          "name": "",
          "type": "uint256"
        }
      ],
      "payable": false,
      "stateMutability": "view",
      "type": "function"
    },
    {
      "constant": true,
      "inputs": [],
      "name": "getAllStudents",
      "outputs": [
        {
          "components": [
            {
              "internalType": "string",
              "name": "name",
              "type": "string"
            },
            {
              "internalType": "address",
              "name": "addr",
              "type": "address"
            },
            {
              "internalType": "uint256",
              "name": "studentUniqueId",
              "type": "uint256"
            },
            {
              "internalType": "uint256",
              "name": "noOfCertificates",
              "type": "uint256"
            }
          ],
          "internalType": "struct OverAllTem.student[]",
          "name": "",
          "type": "tuple[]"
        }
      ],
      "payable": false,
      "stateMutability": "view",
      "type": "function"
    },
    {
      "constant": true,
      "inputs": [],
      "name": "totalCertificates",
      "outputs": [
        {
          "internalType": "uint256",
          "name": "",
          "type": "uint256"
        }
      ],
      "payable": false,
      "stateMutability": "view",
      "type": "function"
    },
    {
      "constant": true,
      "inputs": [],
      "name": "getAllCertificates",
      "outputs": [
        {
          "components": [
            {
              "internalType": "string",
              "name": "name",
              "type": "string"
            },
            {
              "internalType": "uint256",
              "name": "uniqueId",
              "type": "uint256"
            },
            {
              "internalType": "address",
              "name": "issuedTo",
              "type": "address"
            },
            {
              "internalType": "uint256",
              "name": "date",
              "type": "uint256"
            },
            {
              "internalType": "address",
              "name": "issuedBy",
              "type": "address"
            }
          ],
          "internalType": "struct OverAllTem.certificate[]",
          "name": "",
          "type": "tuple[]"
        }
      ],
      "payable": false,
      "stateMutability": "view",
      "type": "function"
    },
    {
      "constant": false,
      "inputs": [
        {
          "internalType": "uint256",
          "name": "_id",
          "type": "uint256"
        }
      ],
      "name": "addStudentUniqueID",
      "outputs": [],
      "payable": false,
      "stateMutability": "nonpayable",
      "type": "function"
    }
  ],
  "bytecode": "0x608060405234801561001057600080fd5b50618c5b806100206000396000f3fe60806040523480156200001157600080fd5b50600436106200013b5760003560e01c8063988760c111620000bd578063c79f28bb116200007b578063c79f28bb14620002c2578063d6483d1714620002cc578063e9e3092714620002e3578063e9e8a17c14620002fc578063efeda3d71462000313576200013b565b8063988760c11462000254578063a1263f6d146200026b578063b163e03d1462000275578063b1743b8e146200028e578063b502a6e014620002ab576200013b565b80632adb5687116200010b5780632adb568714620001b15780632d978fb114620001d75780633e03a1f114620001fe578063596b772f146200021557806368be7887146200022e576200013b565b80628fafaf146200014057806313fcfe801462000162578063281c2730146200017b578063294f2eee1462000194575b600080fd5b6200014a6200032a565b604051620001599190620036b4565b60405180910390f35b6200016c6200055b565b6040516200015991906200366b565b620001926200018c36600462003304565b62000f07565b005b6200019e62000f7c565b60405162000159959493929190620037e9565b620001c8620001c236600462003120565b620017be565b6040516200015991906200363c565b620001ee620001e836600462003304565b6200184f565b604051620001599291906200364c565b620001926200020f366004620031fd565b62001886565b6200021f62001cbe565b60405162000159919062003832565b620002456200023f36600462003120565b62001e58565b604051620001599190620036a4565b6200019262000265366004620031c4565b62001f50565b6200014a62002035565b6200027f62002199565b6040516200015991906200367e565b620002986200236a565b60405162000159959493929190620036eb565b62000245620002bc36600462003304565b62002616565b620002456200263e565b62000192620002dd366004620031c4565b62002734565b620002ed6200281c565b60405162000159919062003691565b620001926200030d36600462003298565b62002d91565b620002456200032436600462003304565b62002f7c565b606060005b6000548110156200053c5760005b600082815481106200034b57fe5b60009182526020918290200154604080516330dc155360e01b815290516001600160a01b03909216926330dc155392600480840193829003018186803b1580156200039557600080fd5b505afa158015620003aa573d6000803e3d6000fd5b505050506040513d601f19601f82011682018060405250620003d0919081019062003325565b8110156200053257336001600160a01b031660008381548110620003f057fe5b600091825260209091200154604051630375691760e11b81526001600160a01b03909116906306ead22e906200042b90859060040162003832565b60206040518083038186803b1580156200044457600080fd5b505afa15801562000459573d6000803e3d6000fd5b505050506040513d601f19601f820116820180604052506200047f91908101906200316a565b6001600160a01b0316633e78c7c06040518163ffffffff1660e01b815260040160206040518083038186803b158015620004b857600080fd5b505afa158015620004cd573d6000803e3d6000fd5b505050506040513d601f19601f82011682018060405250620004f3919081019062003149565b6001600160a01b0316141562000529576040518060400160405280600381526020016279657360e81b8152509250505062000558565b6001016200033d565b506001016200032f565b50506040805180820190915260028152616e6f60f01b60208201525b90565b60606000620005696200263e565b905060606200057762001cbe565b604051908082528060200260200182016040528015620005b457816020015b620005a062002f8a565b815260200190600190039081620005965790505b5090506000805b836001600160a01b03166330dc15536040518163ffffffff1660e01b815260040160206040518083038186803b158015620005f557600080fd5b505afa1580156200060a573d6000803e3d6000fd5b505050506040513d601f19601f8201168201806040525062000630919081019062003325565b81101562000efe5760005b604051630375691760e11b81526001600160a01b038616906306ead22e906200066990859060040162003832565b60206040518083038186803b1580156200068257600080fd5b505afa15801562000697573d6000803e3d6000fd5b505050506040513d601f19601f82011682018060405250620006bd91908101906200316a565b6001600160a01b0316636af6d78c6040518163ffffffff1660e01b815260040160206040518083038186803b158015620006f657600080fd5b505afa1580156200070b573d6000803e3d6000fd5b505050506040513d601f19601f8201168201806040525062000731919081019062003325565b81101562000ef4576200074362002f8a565b6040805160a0810191829052630375691760e11b909152806001600160a01b0388166306ead22e620007798760a4850162003832565b60206040518083038186803b1580156200079257600080fd5b505afa158015620007a7573d6000803e3d6000fd5b505050506040513d601f19601f82011682018060405250620007cd91908101906200316a565b6001600160a01b0316633c0359a4856040518263ffffffff1660e01b8152600401620007fa919062003832565b60206040518083038186803b1580156200081357600080fd5b505afa15801562000828573d6000803e3d6000fd5b505050506040513d601f19601f820116820180604052506200084e91908101906200316a565b6001600160a01b031663b508ba316040518163ffffffff1660e01b815260040160006040518083038186803b1580156200088757600080fd5b505afa1580156200089c573d6000803e3d6000fd5b505050506040513d6000823e601f3d908101601f19168201604052620008c691908101906200318b565b8152602001876001600160a01b03166306ead22e866040518263ffffffff1660e01b8152600401620008f9919062003832565b60206040518083038186803b1580156200091257600080fd5b505afa15801562000927573d6000803e3d6000fd5b505050506040513d601f19601f820116820180604052506200094d91908101906200316a565b6001600160a01b0316633c0359a4856040518263ffffffff1660e01b81526004016200097a919062003832565b60206040518083038186803b1580156200099357600080fd5b505afa158015620009a8573d6000803e3d6000fd5b505050506040513d601f19601f82011682018060405250620009ce91908101906200316a565b6001600160a01b0316636bcda13b6040518163ffffffff1660e01b815260040160206040518083038186803b15801562000a0757600080fd5b505afa15801562000a1c573d6000803e3d6000fd5b505050506040513d601f19601f8201168201806040525062000a42919081019062003325565b8152602001876001600160a01b03166306ead22e866040518263ffffffff1660e01b815260040162000a75919062003832565b60206040518083038186803b15801562000a8e57600080fd5b505afa15801562000aa3573d6000803e3d6000fd5b505050506040513d601f19601f8201168201806040525062000ac991908101906200316a565b6001600160a01b0316633c0359a4856040518263ffffffff1660e01b815260040162000af6919062003832565b60206040518083038186803b15801562000b0f57600080fd5b505afa15801562000b24573d6000803e3d6000fd5b505050506040513d601f19601f8201168201806040525062000b4a91908101906200316a565b6001600160a01b031663d40afd8b6040518163ffffffff1660e01b815260040160206040518083038186803b15801562000b8357600080fd5b505afa15801562000b98573d6000803e3d6000fd5b505050506040513d601f19601f8201168201806040525062000bbe919081019062003149565b6001600160a01b03168152602001876001600160a01b03166306ead22e866040518263ffffffff1660e01b815260040162000bfa919062003832565b60206040518083038186803b15801562000c1357600080fd5b505afa15801562000c28573d6000803e3d6000fd5b505050506040513d601f19601f8201168201806040525062000c4e91908101906200316a565b6001600160a01b0316633c0359a4856040518263ffffffff1660e01b815260040162000c7b919062003832565b60206040518083038186803b15801562000c9457600080fd5b505afa15801562000ca9573d6000803e3d6000fd5b505050506040513d601f19601f8201168201806040525062000ccf91908101906200316a565b6001600160a01b031663323046b16040518163ffffffff1660e01b815260040160206040518083038186803b15801562000d0857600080fd5b505afa15801562000d1d573d6000803e3d6000fd5b505050506040513d601f19601f8201168201806040525062000d43919081019062003325565b8152602001876001600160a01b03166306ead22e866040518263ffffffff1660e01b815260040162000d76919062003832565b60206040518083038186803b15801562000d8f57600080fd5b505afa15801562000da4573d6000803e3d6000fd5b505050506040513d601f19601f8201168201806040525062000dca91908101906200316a565b6001600160a01b0316633c0359a4856040518263ffffffff1660e01b815260040162000df7919062003832565b60206040518083038186803b15801562000e1057600080fd5b505afa15801562000e25573d6000803e3d6000fd5b505050506040513d601f19601f8201168201806040525062000e4b91908101906200316a565b6001600160a01b0316631f4591dd6040518163ffffffff1660e01b815260040160206040518083038186803b15801562000e8457600080fd5b505afa15801562000e99573d6000803e3d6000fd5b505050506040513d601f19601f8201168201806040525062000ebf919081019062003149565b6001600160a01b031681525090508085858151811062000edb57fe5b602090810291909101015250600192830192016200063b565b50600101620005bb565b50909250505090565b600062000f136200263e565b604051638c74a77b60e01b81529091506001600160a01b03821690638c74a77b9062000f4490859060040162003832565b600060405180830381600087803b15801562000f5f57600080fd5b505af115801562000f74573d6000803e3d6000fd5b505050505050565b60606000818180805b6002548110156200178d57336001600160a01b03166002828154811062000fa857fe5b60009182526020909120600290910201546001600160a01b03161415620017845760006002828154811062000fd957fe5b600091825260208220600160029092020101546001600160a01b031691505b6000548110156200178157816001600160a01b0316600082815481106200101b57fe5b600091825260209182902001546040805163c5d1637560e01b815290516001600160a01b039092169263c5d1637592600480840193829003018186803b1580156200106557600080fd5b505afa1580156200107a573d6000803e3d6000fd5b505050506040513d601f19601f82011682018060405250620010a0919081019062003149565b6001600160a01b03161415620017785760005b60008281548110620010c157fe5b60009182526020918290200154604080516330dc155360e01b815290516001600160a01b03909216926330dc155392600480840193829003018186803b1580156200110b57600080fd5b505afa15801562001120573d6000803e3d6000fd5b505050506040513d601f19601f8201168201806040525062001146919081019062003325565b8110156200177657336001600160a01b0316600083815481106200116657fe5b600091825260209091200154604051630375691760e11b81526001600160a01b03909116906306ead22e90620011a190859060040162003832565b60206040518083038186803b158015620011ba57600080fd5b505afa158015620011cf573d6000803e3d6000fd5b505050506040513d601f19601f82011682018060405250620011f591908101906200316a565b6001600160a01b0316633e78c7c06040518163ffffffff1660e01b815260040160206040518083038186803b1580156200122e57600080fd5b505afa15801562001243573d6000803e3d6000fd5b505050506040513d601f19601f8201168201806040525062001269919081019062003149565b6001600160a01b031614156200176d57600084815481106200128757fe5b600091825260209091200154604051630375691760e11b81526001600160a01b03909116906306ead22e90620012c290849060040162003832565b60206040518083038186803b158015620012db57600080fd5b505afa158015620012f0573d6000803e3d6000fd5b505050506040513d601f19601f820116820180604052506200131691908101906200316a565b6001600160a01b031663ec3615cd6040518163ffffffff1660e01b815260040160006040518083038186803b1580156200134f57600080fd5b505afa15801562001364573d6000803e3d6000fd5b505050506040513d6000823e601f3d908101601f191682016040526200138e91908101906200318b565b600085815481106200139c57fe5b600091825260209091200154604051630375691760e11b81526001600160a01b03909116906306ead22e90620013d790859060040162003832565b60206040518083038186803b158015620013f057600080fd5b505afa15801562001405573d6000803e3d6000fd5b505050506040513d601f19601f820116820180604052506200142b91908101906200316a565b6001600160a01b0316634cd057426040518163ffffffff1660e01b815260040160206040518083038186803b1580156200146457600080fd5b505afa15801562001479573d6000803e3d6000fd5b505050506040513d601f19601f820116820180604052506200149f919081019062003325565b60008681548110620014ad57fe5b600091825260208220015460408051631d8bb3cb60e31b815290516001600160a01b039092169263ec5d9e5892600480840193829003018186803b158015620014f557600080fd5b505afa1580156200150a573d6000803e3d6000fd5b505050506040513d6000823e601f3d908101601f191682016040526200153491908101906200318b565b600087815481106200154257fe5b600091825260209091200154604051630375691760e11b81526001600160a01b03909116906306ead22e906200157d90879060040162003832565b60206040518083038186803b1580156200159657600080fd5b505afa158015620015ab573d6000803e3d6000fd5b505050506040513d601f19601f82011682018060405250620015d191908101906200316a565b6001600160a01b0316633e78c7c06040518163ffffffff1660e01b815260040160206040518083038186803b1580156200160a57600080fd5b505afa1580156200161f573d6000803e3d6000fd5b505050506040513d601f19601f8201168201806040525062001645919081019062003149565b600088815481106200165357fe5b600091825260209091200154604051630375691760e11b81526001600160a01b03909116906306ead22e906200168e90889060040162003832565b60206040518083038186803b158015620016a757600080fd5b505afa158015620016bc573d6000803e3d6000fd5b505050506040513d601f19601f82011682018060405250620016e291908101906200316a565b6001600160a01b0316636af6d78c6040518163ffffffff1660e01b815260040160206040518083038186803b1580156200171b57600080fd5b505afa15801562001730573d6000803e3d6000fd5b505050506040513d601f19601f8201168201806040525062001756919081019062003325565b939c50919a50985096509450620017b79350505050565b600101620010b3565b505b60010162000ff8565b50505b60010162000f85565b50506040805160208082018352600080835283519182019093528281529095509093509150829050805b9091929394565b6000805b6002548110156200184457826001600160a01b031660028281548110620017e557fe5b60009182526020909120600290910201546001600160a01b031614156200183b57600281815481106200181457fe5b60009182526020909120600160029092020101546001600160a01b031691506200184a9050565b600101620017c2565b50600090505b919050565b600281815481106200185d57fe5b6000918252602090912060029091020180546001909101546001600160a01b0391821692501682565b60005b60005481101562001cb757336001600160a01b031660008281548110620018ac57fe5b600091825260209182902001546040805163c5d1637560e01b815290516001600160a01b039092169263c5d1637592600480840193829003018186803b158015620018f657600080fd5b505afa1580156200190b573d6000803e3d6000fd5b505050506040513d601f19601f8201168201806040525062001931919081019062003149565b6001600160a01b0316141562001cae5760005b600082815481106200195257fe5b60009182526020918290200154604080516330dc155360e01b815290516001600160a01b03909216926330dc155392600480840193829003018186803b1580156200199c57600080fd5b505afa158015620019b1573d6000803e3d6000fd5b505050506040513d601f19601f82011682018060405250620019d7919081019062003325565b81101562001cac57826001600160a01b031660008381548110620019f757fe5b600091825260209091200154604051630375691760e11b81526001600160a01b03909116906306ead22e9062001a3290859060040162003832565b60206040518083038186803b15801562001a4b57600080fd5b505afa15801562001a60573d6000803e3d6000fd5b505050506040513d601f19601f8201168201806040525062001a8691908101906200316a565b6001600160a01b0316633e78c7c06040518163ffffffff1660e01b815260040160206040518083038186803b15801562001abf57600080fd5b505afa15801562001ad4573d6000803e3d6000fd5b505050506040513d601f19601f8201168201806040525062001afa919081019062003149565b6001600160a01b0316141562001ca3576000828154811062001b1857fe5b600091825260209091200154604051630375691760e11b81526001600160a01b03909116906306ead22e9062001b5390849060040162003832565b60206040518083038186803b15801562001b6c57600080fd5b505afa15801562001b81573d6000803e3d6000fd5b505050506040513d601f19601f8201168201806040525062001ba791908101906200316a565b6001600160a01b031663f7692bea878787876000888154811062001bc757fe5b600091825260209182902001546040805163c5d1637560e01b815290516001600160a01b039092169263c5d1637592600480840193829003018186803b15801562001c1157600080fd5b505afa15801562001c26573d6000803e3d6000fd5b505050506040513d601f19601f8201168201806040525062001c4c919081019062003149565b6040518663ffffffff1660e01b815260040162001c6e95949392919062003746565b600060405180830381600087803b15801562001c8957600080fd5b505af115801562001c9e573d6000803e3d6000fd5b505050505b60010162001944565b505b60010162001889565b5050505050565b60008062001ccb6200263e565b90506000805b826001600160a01b03166330dc15536040518163ffffffff1660e01b815260040160206040518083038186803b15801562001d0b57600080fd5b505afa15801562001d20573d6000803e3d6000fd5b505050506040513d601f19601f8201168201806040525062001d46919081019062003325565b81101562001e5157604051630375691760e11b81526001600160a01b038416906306ead22e9062001d7c90849060040162003832565b60206040518083038186803b15801562001d9557600080fd5b505afa15801562001daa573d6000803e3d6000fd5b505050506040513d601f19601f8201168201806040525062001dd091908101906200316a565b6001600160a01b0316636af6d78c6040518163ffffffff1660e01b815260040160206040518083038186803b15801562001e0957600080fd5b505afa15801562001e1e573d6000803e3d6000fd5b505050506040513d601f19601f8201168201806040525062001e44919081019062003325565b9091019060010162001cd1565b5091505090565b6000805b60005481101562001f4a57826001600160a01b03166000828154811062001e7f57fe5b600091825260209182902001546040805163c5d1637560e01b815290516001600160a01b039092169263c5d1637592600480840193829003018186803b15801562001ec957600080fd5b505afa15801562001ede573d6000803e3d6000fd5b505050506040513d601f19601f8201168201806040525062001f04919081019062003149565b6001600160a01b0316141562001f41576000818154811062001f2257fe5b6000918252602090912001546001600160a01b031691506200184a9050565b60010162001e5c565b50919050565b600060405162001f609062002fcb565b604051809103906000f08015801562001f7d573d6000803e3d6000fd5b5060405162fe794b60e81b81529091506001600160a01b0382169063fe794b009062001fb09085903390600401620036c7565b600060405180830381600087803b15801562001fcb57600080fd5b505af115801562001fe0573d6000803e3d6000fd5b5050600080546001810182559080527f290decd9548b62a8d60345a988386fc84ba6bc95484008f6362f93160ef3e5630180546001600160a01b0319166001600160a01b039490941693909317909255505050565b606060005b6000548110156200053c57336001600160a01b0316600082815481106200205d57fe5b600091825260209182902001546040805163c5d1637560e01b815290516001600160a01b039092169263c5d1637592600480840193829003018186803b158015620020a757600080fd5b505afa158015620020bc573d6000803e3d6000fd5b505050506040513d601f19601f82011682018060405250620020e2919081019062003149565b6001600160a01b031614156200219057600081815481106200210057fe5b600091825260208220015460408051631d8bb3cb60e31b815290516001600160a01b039092169263ec5d9e5892600480840193829003018186803b1580156200214857600080fd5b505afa1580156200215d573d6000803e3d6000fd5b505050506040513d6000823e601f3d908101601f191682016040526200218791908101906200318b565b91505062000558565b6001016200203a565b606080600080549050604051908082528060200260200182016040528015620021df57816020015b620021cb62002fd9565b815260200190600190039081620021c15790505b50905060005b600054811015620023645760008181548110620021fe57fe5b600091825260208220015460408051631d8bb3cb60e31b815290516001600160a01b039092169263ec5d9e5892600480840193829003018186803b1580156200224657600080fd5b505afa1580156200225b573d6000803e3d6000fd5b505050506040513d6000823e601f3d908101601f191682016040526200228591908101906200318b565b8282815181106200229257fe5b60200260200101516000018190525060008181548110620022af57fe5b600091825260209182902001546040805163c5d1637560e01b815290516001600160a01b039092169263c5d1637592600480840193829003018186803b158015620022f957600080fd5b505afa1580156200230e573d6000803e3d6000fd5b505050506040513d601f19601f8201168201806040525062002334919081019062003149565b8282815181106200234157fe5b6020908102919091018101516001600160a01b03909216910152600101620021e5565b50905090565b60606000808080805b6000548110156200260e57336001600160a01b0316600082815481106200239657fe5b600091825260209182902001546040805163c5d1637560e01b815290516001600160a01b039092169263c5d1637592600480840193829003018186803b158015620023e057600080fd5b505afa158015620023f5573d6000803e3d6000fd5b505050506040513d601f19601f820116820180604052506200241b919081019062003149565b6001600160a01b031614156200260557600081815481106200243957fe5b600091825260208220015460408051631d8bb3cb60e31b815290516001600160a01b039092169263ec5d9e5892600480840193829003018186803b1580156200248157600080fd5b505afa15801562002496573d6000803e3d6000fd5b505050506040513d6000823e601f3d908101601f19168201604052620024c091908101906200318b565b3360008381548110620024cf57fe5b60009182526020918290200154604080516351c165d560e01b815290516001600160a01b03909216926351c165d592600480840193829003018186803b1580156200251957600080fd5b505afa1580156200252e573d6000803e3d6000fd5b505050506040513d601f19601f8201168201806040525062002554919081019062003325565b600084815481106200256257fe5b60009182526020918290200154604080516330dc155360e01b815290516001600160a01b03909216926330dc155392600480840193829003018186803b158015620025ac57600080fd5b505afa158015620025c1573d6000803e3d6000fd5b505050506040513d601f19601f82011682018060405250620025e7919081019062003325565b620025f162001cbe565b939950919750955093509150620017b79050565b60010162002373565b509091929394565b600081815481106200262457fe5b6000918252602090912001546001600160a01b0316905081565b6000805b6000548110156200273057336001600160a01b0316600082815481106200266557fe5b600091825260209182902001546040805163c5d1637560e01b815290516001600160a01b039092169263c5d1637592600480840193829003018186803b158015620026af57600080fd5b505afa158015620026c4573d6000803e3d6000fd5b505050506040513d601f19601f82011682018060405250620026ea919081019062003149565b6001600160a01b031614156200272757600081815481106200270857fe5b6000918252602090912001546001600160a01b03169150620005589050565b60010162002642565b5090565b6000604051620027449062002ff1565b604051809103906000f08015801562002761573d6000803e3d6000fd5b506040516338f0326960e01b81529091506001600160a01b038216906338f0326990620027959085903390600401620036c7565b600060405180830381600087803b158015620027b057600080fd5b505af1158015620027c5573d6000803e3d6000fd5b50506001805480820182556000919091527fb10e2d527612073b26eecdfd717e6a320cf44b4afac2b0732d9fcbe2b7fa0cf60180546001600160a01b0319166001600160a01b039490941693909317909255505050565b606060006200282a6200263e565b90506060816001600160a01b03166330dc15536040518163ffffffff1660e01b815260040160206040518083038186803b1580156200286857600080fd5b505afa1580156200287d573d6000803e3d6000fd5b505050506040513d601f19601f82011682018060405250620028a3919081019062003325565b604051908082528060200260200182016040528015620028e057816020015b620028cc62002fff565b815260200190600190039081620028c25790505b50905060005b826001600160a01b03166330dc15536040518163ffffffff1660e01b815260040160206040518083038186803b1580156200292057600080fd5b505afa15801562002935573d6000803e3d6000fd5b505050506040513d601f19601f820116820180604052506200295b919081019062003325565b81101562001e51576200296d62002fff565b604080516080810191829052630375691760e11b909152806001600160a01b0386166306ead22e620029a3866084850162003832565b60206040518083038186803b158015620029bc57600080fd5b505afa158015620029d1573d6000803e3d6000fd5b505050506040513d601f19601f82011682018060405250620029f791908101906200316a565b6001600160a01b031663ec3615cd6040518163ffffffff1660e01b815260040160006040518083038186803b15801562002a3057600080fd5b505afa15801562002a45573d6000803e3d6000fd5b505050506040513d6000823e601f3d908101601f1916820160405262002a6f91908101906200318b565b8152602001856001600160a01b03166306ead22e856040518263ffffffff1660e01b815260040162002aa2919062003832565b60206040518083038186803b15801562002abb57600080fd5b505afa15801562002ad0573d6000803e3d6000fd5b505050506040513d601f19601f8201168201806040525062002af691908101906200316a565b6001600160a01b0316633e78c7c06040518163ffffffff1660e01b815260040160206040518083038186803b15801562002b2f57600080fd5b505afa15801562002b44573d6000803e3d6000fd5b505050506040513d601f19601f8201168201806040525062002b6a919081019062003149565b6001600160a01b03168152602001856001600160a01b03166306ead22e856040518263ffffffff1660e01b815260040162002ba6919062003832565b60206040518083038186803b15801562002bbf57600080fd5b505afa15801562002bd4573d6000803e3d6000fd5b505050506040513d601f19601f8201168201806040525062002bfa91908101906200316a565b6001600160a01b0316634cd057426040518163ffffffff1660e01b815260040160206040518083038186803b15801562002c3357600080fd5b505afa15801562002c48573d6000803e3d6000fd5b505050506040513d601f19601f8201168201806040525062002c6e919081019062003325565b8152602001856001600160a01b03166306ead22e856040518263ffffffff1660e01b815260040162002ca1919062003832565b60206040518083038186803b15801562002cba57600080fd5b505afa15801562002ccf573d6000803e3d6000fd5b505050506040513d601f19601f8201168201806040525062002cf591908101906200316a565b6001600160a01b0316636af6d78c6040518163ffffffff1660e01b815260040160206040518083038186803b15801562002d2e57600080fd5b505afa15801562002d43573d6000803e3d6000fd5b505050506040513d601f19601f8201168201806040525062002d69919081019062003325565b81525090508083838151811062002d7c57fe5b602090810291909101015250600101620028e6565b60005b60005481101562002f7657816001600160a01b03166000828154811062002db757fe5b600091825260209182902001546040805163c5d1637560e01b815290516001600160a01b039092169263c5d1637592600480840193829003018186803b15801562002e0157600080fd5b505afa15801562002e16573d6000803e3d6000fd5b505050506040513d601f19601f8201168201806040525062002e3c919081019062003149565b6001600160a01b0316141562002f6d576000818154811062002e5a57fe5b60009182526020909120015460405163137c3f7d60e01b81526001600160a01b039091169063137c3f7d9062002e9b9087908790339088906004016200379e565b600060405180830381600087803b15801562002eb657600080fd5b505af115801562002ecb573d6000803e3d6000fd5b5050604080518082019091523381526001600160a01b0385811660208301908152600280546001810182556000829052935193027f405787fa12a823e0f2b7631cc41b3ba8828b3321ca811111fa75cd3aa3bb5ace810180549484166001600160a01b031995861617905590517f405787fa12a823e0f2b7631cc41b3ba8828b3321ca811111fa75cd3aa3bb5acf909101805491909216921691909117905550505b60010162002d94565b50505050565b600181815481106200262457fe5b6040518060a00160405280606081526020016000815260200160006001600160a01b031681526020016000815260200160006001600160a01b031681525090565b6129f2806200394f83390190565b60408051808201909152606081526000602082015290565b6128d8806200634183390190565b60405180608001604052806060815260200160006001600160a01b0316815260200160008152602001600081525090565b80356200303d816200391e565b92915050565b80516200303d816200391e565b80516200303d8162003938565b600082601f8301126200306f57600080fd5b81516200308662003080826200386a565b62003842565b91508082526020830160208301858383011115620030a357600080fd5b620030b0838284620038e5565b50505092915050565b600082601f830112620030cb57600080fd5b8135620030dc62003080826200386a565b91508082526020830160208301858383011115620030f957600080fd5b620030b0838284620038d9565b80356200303d8162003943565b80516200303d8162003943565b6000602082840312156200313357600080fd5b600062003141848462003030565b949350505050565b6000602082840312156200315c57600080fd5b600062003141848462003043565b6000602082840312156200317d57600080fd5b600062003141848462003050565b6000602082840312156200319e57600080fd5b815167ffffffffffffffff811115620031b657600080fd5b62003141848285016200305d565b600060208284031215620031d757600080fd5b813567ffffffffffffffff811115620031ef57600080fd5b6200314184828501620030b9565b600080600080608085870312156200321457600080fd5b843567ffffffffffffffff8111156200322c57600080fd5b6200323a87828801620030b9565b945050602085013567ffffffffffffffff8111156200325857600080fd5b6200326687828801620030b9565b9350506040620032798782880162003106565b92505060606200328c8782880162003030565b91505092959194509250565b600080600060608486031215620032ae57600080fd5b833567ffffffffffffffff811115620032c657600080fd5b620032d486828701620030b9565b9350506020620032e78682870162003106565b9250506040620032fa8682870162003030565b9150509250925092565b6000602082840312156200331757600080fd5b600062003141848462003106565b6000602082840312156200333857600080fd5b600062003141848462003113565b600062003354838362003532565b9392505050565b6000620033548383620035aa565b6000620033548383620035db565b6200338281620038cc565b82525050565b6200338281620038a6565b6000620033a08262003899565b620033ac81856200389d565b935083602082028501620033c08562003893565b8060005b85811015620034005784840389528151620033e0858262003346565b9450620033ed8362003893565b60209a909a0199925050600101620033c4565b5091979650505050505050565b60006200341a8262003899565b6200342681856200389d565b9350836020820285016200343a8562003893565b8060005b858110156200340057848403895281516200345a85826200335b565b9450620034678362003893565b60209a909a01999250506001016200343e565b6000620034878262003899565b6200349381856200389d565b935083602082028501620034a78562003893565b8060005b85811015620034005784840389528151620034c7858262003369565b9450620034d48362003893565b60209a909a0199925050600101620034ab565b6200338281620038b3565b6000620034ff8262003899565b6200350b81856200389d565b93506200351d818560208601620038e5565b620035288162003914565b9093019392505050565b805160a0808452600091908401906200354c8282620034f2565b915050602083015162003563602086018262003631565b50604083015162003578604086018262003388565b5060608301516200358d606086018262003631565b506080830151620035a2608086018262003388565b509392505050565b8051604080845260009190840190620035c48282620034f2565b9150506020830151620035a2602086018262003388565b8051608080845260009190840190620035f58282620034f2565b91505060208301516200360c602086018262003388565b50604083015162003621604086018262003631565b506060830151620035a260608601825b620033828162000558565b602081016200303d828462003388565b604081016200365c828562003388565b62003354602083018462003388565b6020808252810162003354818462003393565b602080825281016200335481846200340d565b602080825281016200335481846200347a565b602081016200303d8284620034e7565b60208082528101620033548184620034f2565b60408082528101620036da8185620034f2565b905062003354602083018462003377565b60a08082528101620036fe8188620034f2565b90506200370f602083018762003388565b6200371e604083018662003631565b6200372d606083018562003631565b6200373c608083018462003631565b9695505050505050565b60a08082528101620037598188620034f2565b905081810360208301526200376f8187620034f2565b905062003780604083018662003631565b6200378f606083018562003388565b6200373c608083018462003388565b60808082528101620037b18187620034f2565b9050620037c2602083018662003631565b620037d1604083018562003377565b620037e0606083018462003388565b95945050505050565b60a08082528101620037fc8188620034f2565b90506200380d602083018762003631565b8181036040830152620038218186620034f2565b90506200372d606083018562003388565b602081016200303d828462003631565b60405181810167ffffffffffffffff811182821017156200386257600080fd5b604052919050565b600067ffffffffffffffff8211156200388257600080fd5b506020601f91909101601f19160190565b60200190565b5190565b90815260200190565b60006200303d82620038c0565b60006200303d82620038a6565b6001600160a01b031690565b60006200303d82620038b3565b82818337506000910152565b60005b8381101562003902578181015183820152602001620038e8565b8381111562002f765750506000910152565b601f01601f191690565b6200392981620038a6565b81146200393557600080fd5b50565b6200392981620038b3565b62003929816200055856fe61010060405260016080908152600260a052600360c052600460e0819052610027918161003a565b5034801561003457600080fd5b506100a7565b82805482825590600052602060002090810192821561007a579160200282015b8281111561007a578251829060ff1690559160200191906001019061005a565b5061008692915061008a565b5090565b6100a491905b808211156100865760008155600101610090565b90565b61293c806100b66000396000f3fe608060405234801561001057600080fd5b50600436106100cf5760003560e01c806351d332311161008c578063c5d1637511610066578063c5d163751461019b578063ec5d9e58146101b0578063faead812146101c5578063fe794b00146101d8576100cf565b806351d332311461015557806371e5ee5f146101755780638c74a77b14610188576100cf565b806306ead22e146100d4578063137c3f7d146100fd5780632bff309a146101125780632ce349be1461013257806330dc15531461014557806351c165d51461014d575b600080fd5b6100e76100e2366004610878565b6101eb565b6040516100f491906109d3565b60405180910390f35b61011061010b366004610800565b610212565b005b610125610120366004610878565b61046e565b6040516100f49190610a1a565b610125610140366004610878565b6104ce565b6101256104ec565b6101256104f3565b610168610163366004610878565b6104f9565b6040516100f491906109c5565b610125610183366004610878565b610538565b610110610196366004610878565b610545565b6101a36105ab565b6040516100f491906109b7565b6101b86105ba565b6040516100f491906109e1565b6101a36101d3366004610878565b610648565b6101106101e63660046107af565b610663565b600581815481106101f857fe5b6000918252602090912001546001600160a01b0316905081565b60006040516102209061069a565b604051809103906000f08015801561023c573d6000803e3d6000fd5b506040516308a79aa760e41b81529091506001600160a01b03821690638a79aa709061026c9088906004016109e1565b600060405180830381600087803b15801561028657600080fd5b505af115801561029a573d6000803e3d6000fd5b5050604051635d37eeb760e01b81526001600160a01b0384169250635d37eeb791506102ca9086906004016109b7565b600060405180830381600087803b1580156102e457600080fd5b505af11580156102f8573d6000803e3d6000fd5b505060405163893ec75b60e01b81526001600160a01b038416925063893ec75b9150610328908790600401610a1a565b600060405180830381600087803b15801561034257600080fd5b505af1158015610356573d6000803e3d6000fd5b50506040516304b62c6f60e51b81526001600160a01b03841692506396c58de09150610387906000906004016109f9565b600060405180830381600087803b1580156103a157600080fd5b505af11580156103b5573d6000803e3d6000fd5b505060405163506283cd60e01b81526001600160a01b038416925063506283cd91506103e59085906004016109b7565b600060405180830381600087803b1580156103ff57600080fd5b505af1158015610413573d6000803e3d6000fd5b5050600580546001810182556000919091527f036b6384b5eca791c62761152d0c79bb0604c104a5fb6f4eb0703f3154bb3db00180546001600160a01b0319166001600160a01b039490941693909317909255505050505050565b6000805b6002548110156104c357826002828154811061048a57fe5b906000526020600020015414156104bb57600281815481106104a857fe5b90600052602060002001549150506104c9565b600101610472565b50600090505b919050565b600281815481106104db57fe5b600091825260209091200154905081565b6005545b90565b60025490565b6000805b6002548110156104c357826002828154811061051557fe5b906000526020600020015414156105305760019150506104c9565b6001016104fd565b600481815481106104db57fe5b61054e8161046e565b8114156105765760405162461bcd60e51b815260040161056d90610a0a565b60405180910390fd5b600280546001810182556000919091527f405787fa12a823e0f2b7631cc41b3ba8828b3321ca811111fa75cd3aa3bb5ace0155565b6001546001600160a01b031681565b6000805460408051602060026001851615610100026000190190941693909304601f810184900484028201840190925281815292918301828280156106405780601f1061061557610100808354040283529160200191610640565b820191906000526020600020905b81548152906001019060200180831161062357829003601f168201915b505050505081565b6003602052600090815260409020546001600160a01b031681565b81516106769060009060208501906106a7565b50600180546001600160a01b0319166001600160a01b039290921691909117905550565b611ddc80610b1e83390190565b828054600181600116156101000203166002900490600052602060002090601f016020900481019282601f106106e857805160ff1916838001178555610715565b82800160010185558215610715579182015b828111156107155782518255916020019190600101906106fa565b50610721929150610725565b5090565b6104f091905b80821115610721576000815560010161072b565b803561074a81610afd565b92915050565b600082601f83011261076157600080fd5b813561077461076f82610a4f565b610a28565b9150808252602083016020830185838301111561079057600080fd5b61079b838284610ab7565b50505092915050565b803561074a81610b14565b600080604083850312156107c257600080fd5b823567ffffffffffffffff8111156107d957600080fd5b6107e585828601610750565b92505060206107f68582860161073f565b9150509250929050565b6000806000806080858703121561081657600080fd5b843567ffffffffffffffff81111561082d57600080fd5b61083987828801610750565b945050602061084a878288016107a4565b935050604061085b8782880161073f565b925050606061086c8782880161073f565b91505092959194509250565b60006020828403121561088a57600080fd5b600061089684846107a4565b949350505050565b6108a781610a90565b82525050565b6108a781610a9b565b6108a781610aac565b60006108ca82610a83565b6108d48185610a87565b93506108e4818560208601610ac3565b6108ed81610af3565b9093019392505050565b600081546001811660008114610914576001811461093a57610979565b607f60028304166109258187610a87565b60ff1984168152955050602085019250610979565b600282046109488187610a87565b955061095385610a77565b60005b8281101561097257815488820152600190910190602001610956565b8701945050505b505092915050565b600061098e601183610a87565b70494420616c72656164792065786973747360781b815260200192915050565b6108a7816104f0565b6020810161074a828461089e565b6020810161074a82846108ad565b6020810161074a82846108b6565b602080825281016109f281846108bf565b9392505050565b602080825281016109f281846108f7565b6020808252810161074a81610981565b6020810161074a82846109ae565b60405181810167ffffffffffffffff81118282101715610a4757600080fd5b604052919050565b600067ffffffffffffffff821115610a6657600080fd5b506020601f91909101601f19160190565b60009081526020902090565b5190565b90815260200190565b600061074a82610aa0565b151590565b6001600160a01b031690565b600061074a82610a90565b82818337506000910152565b60005b83811015610ade578181015183820152602001610ac6565b83811115610aed576000848401525b50505050565b601f01601f191690565b610b0681610a90565b8114610b1157600080fd5b50565b610b06816104f056fe608060405234801561001057600080fd5b50611dbc806100206000396000f3fe608060405234801561001057600080fd5b50600436106101215760003560e01c80636af6d78c116100ad57806396c58de01161007157806396c58de0146103ff578063af991a05146104a3578063b32f36c9146104c0578063ec3615cd146104ec578063f7692bea146104f457610121565b80636af6d78c1461029d57806376db0ecc146102a557806381d12c58146102d1578063893ec75b1461033e5780638a79aa701461035b57610121565b80634cd05742116100f45780634cd0574214610212578063506283cd1461022c57806351640fee146102525780635d37eeb71461026f57806368a969971461029557610121565b8063032c6ced14610126578063331a01fd146101545780633c0359a4146101d15780633e78c7c01461020a575b600080fd5b6101526004803603604081101561013c57600080fd5b506001600160a01b038135169060200135610634565b005b61015c6106b6565b6040805160208082528351818301528351919283929083019185019080838360005b8381101561019657818101518382015260200161017e565b50505050905090810190601f1680156101c35780820380516001836020036101000a031916815260200191505b509250505060405180910390f35b6101ee600480360360208110156101e757600080fd5b5035610743565b604080516001600160a01b039092168252519081900360200190f35b6101ee61076a565b61021a610779565b60408051918252519081900360200190f35b6101526004803603602081101561024257600080fd5b50356001600160a01b031661077f565b6101ee6004803603602081101561026857600080fd5b50356107a1565b6101526004803603602081101561028557600080fd5b50356001600160a01b0316610872565b6101ee610894565b61021a6108a3565b61015c600480360360408110156102bb57600080fd5b506001600160a01b0381351690602001356108aa565b6102ee600480360360208110156102e757600080fd5b5035610a03565b60408051602080825283518183015283519192839290830191858101910280838360005b8381101561032a578181015183820152602001610312565b505050509050019250505060405180910390f35b6101526004803603602081101561035457600080fd5b5035610b1a565b6101526004803603602081101561037157600080fd5b810190602081018135600160201b81111561038b57600080fd5b82018360208201111561039d57600080fd5b803590602001918460018302840111600160201b831117156103be57600080fd5b91908080601f016020809104026020016040519081016040528093929190818152602001838380828437600092019190915250929550610b1f945050505050565b6101526004803603602081101561041557600080fd5b810190602081018135600160201b81111561042f57600080fd5b82018360208201111561044157600080fd5b803590602001918460018302840111600160201b8311171561046257600080fd5b91908080601f016020809104026020016040519081016040528093929190818152602001838380828437600092019190915250929550610b36945050505050565b61021a600480360360208110156104b957600080fd5b5035610b49565b610152600480360360408110156104d657600080fd5b506001600160a01b038135169060200135610b67565b61015c610bcc565b610152600480360360a081101561050a57600080fd5b810190602081018135600160201b81111561052457600080fd5b82018360208201111561053657600080fd5b803590602001918460018302840111600160201b8311171561055757600080fd5b91908080601f0160208091040260200160405190810160405280939291908181526020018383808284376000920191909152509295949360208101935035915050600160201b8111156105a957600080fd5b8201836020820111156105bb57600080fd5b803590602001918460018302840111600160201b831117156105dc57600080fd5b91908080601f0160208091040260200160405190810160405280939291908181526020018383808284376000920191909152509295505082359350506001600160a01b03602083013581169260400135169050610c27565b600061063f826107a1565b9050806001600160a01b0316631679876a846040518263ffffffff1660e01b815260040180826001600160a01b03166001600160a01b03168152602001915050600060405180830381600087803b15801561069957600080fd5b505af11580156106ad573d6000803e3d6000fd5b50505050505050565b60018054604080516020600284861615610100026000190190941693909304601f8101849004840282018401909252818152929183018282801561073b5780601f106107105761010080835404028352916020019161073b565b820191906000526020600020905b81548152906001019060200180831161071e57829003601f168201915b505050505081565b6005818154811061075057fe5b6000918252602090912001546001600160a01b0316905081565b6002546001600160a01b031681565b60035481565b600480546001600160a01b0319166001600160a01b0392909216919091179055565b6000805b60055481101561086b5782600582815481106107bd57fe5b6000918252602091829020015460408051636bcda13b60e01b815290516001600160a01b0390921692636bcda13b92600480840193829003018186803b15801561080657600080fd5b505afa15801561081a573d6000803e3d6000fd5b505050506040513d602081101561083057600080fd5b50511415610863576005818154811061084557fe5b6000918252602090912001546001600160a01b0316915061086d9050565b6001016107a5565b505b919050565b600280546001600160a01b0319166001600160a01b0392909216919091179055565b6004546001600160a01b031681565b6005545b90565b606060006108b7836107a1565b9050806001600160a01b031663e6e6b7c1856040518263ffffffff1660e01b815260040180826001600160a01b03166001600160a01b0316815260200191505060006040518083038186803b15801561090f57600080fd5b505afa158015610923573d6000803e3d6000fd5b505050506040513d6000823e601f3d908101601f19168201604052602081101561094c57600080fd5b8101908080516040519392919084600160201b82111561096b57600080fd5b90830190602082018581111561098057600080fd5b8251600160201b81118282018810171561099957600080fd5b82525081516020918201929091019080838360005b838110156109c65781810151838201526020016109ae565b50505050905090810190601f1680156109f35780820380516001836020036101000a031916815260200191505b5060405250505091505092915050565b60606000610a10836107a1565b9050806001600160a01b031663b74cb2db6040518163ffffffff1660e01b815260040160006040518083038186803b158015610a4b57600080fd5b505afa158015610a5f573d6000803e3d6000fd5b505050506040513d6000823e601f3d908101601f191682016040526020811015610a8857600080fd5b8101908080516040519392919084600160201b821115610aa757600080fd5b908301906020820185811115610abc57600080fd5b82518660208202830111600160201b82111715610ad857600080fd5b82525081516020918201928201910280838360005b83811015610b05578181015183820152602001610aed565b50505050905001604052505050915050919050565b600355565b8051610b32906000906020840190611094565b5050565b8051610b32906001906020840190611094565b60068181548110610b5657fe5b600091825260209091200154905081565b6000610b72826107a1565b9050806001600160a01b031663717a29a0846040518263ffffffff1660e01b815260040180826001600160a01b03166001600160a01b03168152602001915050600060405180830381600087803b15801561069957600080fd5b6000805460408051602060026001851615610100026000190190941693909304601f8101849004840282018401909252818152929183018282801561073b5780601f106107105761010080835404028352916020019161073b565b6000604051610c3590611112565b604051809103906000f080158015610c51573d6000803e3d6000fd5b506040516335bb738760e21b81526020600482018181528951602484015289519394506001600160a01b0385169363d6edce1c938b9383926044909201919085019080838360005b83811015610cb1578181015183820152602001610c99565b50505050905090810190601f168015610cde5780820380516001836020036101000a031916815260200191505b5092505050600060405180830381600087803b158015610cfd57600080fd5b505af1158015610d11573d6000803e3d6000fd5b5050604051632b2f75ad60e11b81526020600482018181528951602484015289516001600160a01b038716955063565eeb5a94508a9391928392604401919085019080838360005b83811015610d71578181015183820152602001610d59565b50505050905090810190601f168015610d9e5780820380516001836020036101000a031916815260200191505b5092505050600060405180830381600087803b158015610dbd57600080fd5b505af1158015610dd1573d6000803e3d6000fd5b50505050806001600160a01b031663cea1e858856040518263ffffffff1660e01b815260040180828152602001915050600060405180830381600087803b158015610e1b57600080fd5b505af1158015610e2f573d6000803e3d6000fd5b50505050806001600160a01b03166399aad941846040518263ffffffff1660e01b815260040180826001600160a01b03166001600160a01b03168152602001915050600060405180830381600087803b158015610e8b57600080fd5b505af1158015610e9f573d6000803e3d6000fd5b50505050806001600160a01b031663f98500086040518163ffffffff1660e01b8152600401600060405180830381600087803b158015610ede57600080fd5b505af1158015610ef2573d6000803e3d6000fd5b50506040516308a79aa760e41b81526020600482019081526000805460026000196101006001841615020190911604602484018190526001600160a01b0387169550638a79aa7094509092829160449091019084908015610f945780601f10610f6957610100808354040283529160200191610f94565b820191906000526020600020905b815481529060010190602001808311610f7757829003601f168201915b505092505050600060405180830381600087803b158015610fb457600080fd5b505af1158015610fc8573d6000803e3d6000fd5b50505050806001600160a01b031663e5d235f4836040518263ffffffff1660e01b815260040180826001600160a01b03166001600160a01b03168152602001915050600060405180830381600087803b15801561102457600080fd5b505af1158015611038573d6000803e3d6000fd5b5050600580546001810182556000919091527f036b6384b5eca791c62761152d0c79bb0604c104a5fb6f4eb0703f3154bb3db00180546001600160a01b0319166001600160a01b03949094169390931790925550505050505050565b828054600181600116156101000203166002900490600052602060002090601f016020900481019282601f106110d557805160ff1916838001178555611102565b82800160010185558215611102579182015b828111156111025782518255916020019190600101906110e7565b5061110e92915061111f565b5090565b610c4e8061113a83390190565b6108a791905b8082111561110e576000815560010161112556fe608060405234801561001057600080fd5b50610c2e806100206000396000f3fe608060405234801561001057600080fd5b506004361061014d5760003560e01c806399aad941116100c3578063d40afd8b1161007c578063d40afd8b146104c2578063d6edce1c146104ca578063e264da6914610570578063e5d235f41461058d578063e6e6b7c1146105b3578063f9850008146105d95761014d565b806399aad941146103dc578063a982bd5014610402578063b508ba3114610428578063b74cb2db14610430578063bf088e5714610488578063cea1e858146104a55761014d565b80634cc82215116101155780634cc822151461023d578063557084ce1461025a578063565eeb5a146102625780636bcda13b14610308578063717a29a0146103105780638a79aa70146103365761014d565b8063091841f1146101525780631679876a146101cf5780631f4591dd146101f75780632b64818f1461021b578063323046b114610235575b600080fd5b61015a6105e1565b6040805160208082528351818301528351919283929083019185019080838360005b8381101561019457818101518382015260200161017c565b50505050905090810190601f1680156101c15780820380516001836020036101000a031916815260200191505b509250505060405180910390f35b6101f5600480360360208110156101e557600080fd5b50356001600160a01b031661066e565b005b6101ff6106c0565b604080516001600160a01b039092168252519081900360200190f35b6102236106cf565b60408051918252519081900360200190f35b6102236106d6565b6101f56004803603602081101561025357600080fd5b50356106dc565b61015a610784565b6101f56004803603602081101561027857600080fd5b81019060208101813564010000000081111561029357600080fd5b8201836020820111156102a557600080fd5b803590602001918460018302840111640100000000831117156102c757600080fd5b91908080601f0160208091040260200160405190810160405280939291908181526020018383808284376000920191909152509295506107df945050505050565b6102236107f6565b6101f56004803603602081101561032657600080fd5b50356001600160a01b03166107fc565b6101f56004803603602081101561034c57600080fd5b81019060208101813564010000000081111561036757600080fd5b82018360208201111561037957600080fd5b8035906020019184600183028401116401000000008311171561039b57600080fd5b91908080601f016020809104026020016040519081016040528093929190818152602001838380828437600092019190915250929550610894945050505050565b6101f5600480360360208110156103f257600080fd5b50356001600160a01b03166108a7565b6101f56004803603602081101561041857600080fd5b50356001600160a01b03166108c9565b61015a61091b565b610438610976565b60408051602080825283518183015283519192839290830191858101910280838360005b8381101561047457818101518382015260200161045c565b505050509050019250505060405180910390f35b6101ff6004803603602081101561049e57600080fd5b50356109d8565b6101f5600480360360208110156104bb57600080fd5b50356109ff565b6101ff610a04565b6101f5600480360360208110156104e057600080fd5b8101906020810181356401000000008111156104fb57600080fd5b82018360208201111561050d57600080fd5b8035906020019184600183028401116401000000008311171561052f57600080fd5b91908080601f016020809104026020016040519081016040528093929190818152602001838380828437600092019190915250929550610a13945050505050565b6101ff6004803603602081101561058657600080fd5b5035610a26565b6101f5600480360360208110156105a357600080fd5b50356001600160a01b0316610a33565b61015a600480360360208110156105c957600080fd5b50356001600160a01b0316610a55565b6101f5610b5b565b60018054604080516020600284861615610100026000190190941693909304601f810184900484028201840190925281815292918301828280156106665780601f1061063b57610100808354040283529160200191610666565b820191906000526020600020905b81548152906001019060200180831161064957829003601f168201915b505050505081565b600880546001810182556000919091527ff3f7a9fe364faab93b216da50a3214154f22a0a2b415b23a84c8169e8b636ee30180546001600160a01b0319166001600160a01b0392909216919091179055565b6007546001600160a01b031681565b6002545b90565b60065481565b805b6008546000190181101561075357600881600101815481106106fc57fe5b600091825260209091200154600880546001600160a01b03909216918390811061072257fe5b600091825260209091200180546001600160a01b0319166001600160a01b03929092169190911790556001016106de565b50600880548061075f57fe5b600082815260209020810160001990810180546001600160a01b031916905501905550565b6000805460408051602060026001851615610100026000190190941693909304601f810184900484028201840190925281815292918301828280156106665780601f1061063b57610100808354040283529160200191610666565b80516107f2906001906020840190610b61565b5050565b60035481565b6002805460018101825560009182527f405787fa12a823e0f2b7631cc41b3ba8828b3321ca811111fa75cd3aa3bb5ace0180546001600160a01b0319166001600160a01b0384161790555b6008548110156107f257816001600160a01b03166008828154811061086857fe5b6000918252602090912001546001600160a01b0316141561088c5761088c816106dc565b600101610847565b80516107f2906005906020840190610b61565b600480546001600160a01b0319166001600160a01b0392909216919091179055565b600280546001810182556000919091527f405787fa12a823e0f2b7631cc41b3ba8828b3321ca811111fa75cd3aa3bb5ace0180546001600160a01b0319166001600160a01b0392909216919091179055565b6005805460408051602060026001851615610100026000190190941693909304601f810184900484028201840190925281815292918301828280156106665780601f1061063b57610100808354040283529160200191610666565b606060088054806020026020016040519081016040528092919081815260200182805480156109ce57602002820191906000526020600020905b81546001600160a01b031681526001909101906020018083116109b0575b5050505050905090565b600281815481106109e557fe5b6000918252602090912001546001600160a01b0316905081565b600355565b6004546001600160a01b031681565b80516107f2906000906020840190610b61565b600881815481106109e557fe5b600780546001600160a01b0319166001600160a01b0392909216919091179055565b606060005b600254811015610ac357826001600160a01b031660028281548110610a7b57fe5b6000918252602090912001546001600160a01b03161415610abb57505060408051808201909152600781526614149154d1539560ca1b6020820152610b56565b600101610a5a565b5060005b600854811015610b3257826001600160a01b031660088281548110610ae857fe5b6000918252602090912001546001600160a01b03161415610b2a575050604080518082019091526009815268149154555154d5115160ba1b6020820152610b56565b600101610ac7565b505060408051808201909152600a8152691393d517d4149154d39560b21b60208201525b919050565b42600655565b828054600181600116156101000203166002900490600052602060002090601f016020900481019282601f10610ba257805160ff1916838001178555610bcf565b82800160010185558215610bcf579182015b82811115610bcf578251825591602001919060010190610bb4565b50610bdb929150610bdf565b5090565b6106d391905b80821115610bdb5760008155600101610be556fea265627a7a72315820e509f0d0a9afc8660e99c4f75f103b1c7221976bbe5116860419a87109fa1b6464736f6c63430005100032a265627a7a7231582028e64fbd8a3413bd71a602584f62c914074ed4ae287fd23ce3c12ad03139715564736f6c63430005100032a365627a7a72315820e017ec88c2c0c284c8073f84e269ac9053910ea26273b0ad1063342a8ab2cf1a6c6578706572696d656e74616cf564736f6c63430005100040608060405234801561001057600080fd5b506128b8806100206000396000f3fe608060405234801561001057600080fd5b50600436106101005760003560e01c806382afd23b11610097578063d5e7882911610066578063d5e7882914610214578063dd3a45c014610236578063e9f30b5114610249578063f5ec2eed1461025c57610100565b806382afd23b146101bb5780639b802718146101db578063bf22c457146101ee578063d004eb0f1461020157610100565b8063351e476e116100d3578063351e476e1461016b57806338f032691461018b57806342bd82721461019e57806353e1ead9146101a657610100565b8063168342d314610105578063180aedf31461011a57806324d7356714610143578063323046b114610156575b600080fd5b610118610113366004610c8e565b610264565b005b61012d610128366004610d5c565b610360565b60405161013a91906110f9565b60405180910390f35b610118610151366004610d98565b610387565b61015e6103f8565b60405161013a9190611199565b61017e610179366004610d98565b6103fe565b60405161013a9190611107565b610118610199366004610c3d565b610498565b61015e6104d3565b6101ae6104d9565b60405161013a9190611064565b6101ce6101c9366004610d5c565b6104e8565b60405161013a91906110eb565b6101186101e9366004610d98565b610570565b61012d6101fc366004610d5c565b6105aa565b61017e61020f366004610d98565b610686565b610227610222366004610d5c565b6106c2565b60405161013a939291906110a9565b610118610244366004610d98565b610757565b610118610257366004610db7565b610791565b61017e610808565b600060405161027290610896565b604051809103906000f08015801561028e573d6000803e3d6000fd5b506040516301e5865960e51b81529091506001600160a01b03821690633cb0cb20906102cb908a908a908a908a908a908a90600090600401611118565b600060405180830381600087803b1580156102e557600080fd5b505af11580156102f9573d6000803e3d6000fd5b505060028054600180820183556000929092527f405787fa12a823e0f2b7631cc41b3ba8828b3321ca811111fa75cd3aa3bb5ace0180546001600160a01b0319166001600160a01b0395909516949094179093555050600380549091019055505050505050565b6002818154811061036d57fe5b6000918252602090912001546001600160a01b0316905081565b6000610392836105aa565b60405163036c197d60e21b81529091506001600160a01b03821690630db065f4906103c1908590600401611064565b600060405180830381600087803b1580156103db57600080fd5b505af11580156103ef573d6000803e3d6000fd5b50505050505050565b60045481565b6060600061040b846105aa565b60405163baab979760e01b81529091506001600160a01b0382169063baab97979061043a908690600401611064565b60006040518083038186803b15801561045257600080fd5b505afa158015610466573d6000803e3d6000fd5b505050506040513d6000823e601f3d908101601f1916820160405261048e9190810190610c08565b9150505b92915050565b81516104ab9060009060208501906108a3565b50600180546001600160a01b0319166001600160a01b03929092169190911790555042600455565b60035481565b6001546001600160a01b031681565b6000806104f4836105aa565b9050806001600160a01b03166322f3e2d46040518163ffffffff1660e01b815260040160206040518083038186803b15801561052f57600080fd5b505afa158015610543573d6000803e3d6000fd5b505050506040513d601f19601f820116820180604052506105679190810190610bea565b9150505b919050565b600061057b836105aa565b604051635c8ee5cf60e01b81529091506001600160a01b03821690635c8ee5cf906103c1908590600401611064565b6000805b6002548110156106805782600282815481106105c657fe5b600091825260209182902001546040805163c2939d9760e01b815290516001600160a01b039092169263c2939d9792600480840193829003018186803b15801561060f57600080fd5b505afa158015610623573d6000803e3d6000fd5b505050506040513d601f19601f820116820180604052506106479190810190610d7a565b1415610678576002818154811061065a57fe5b6000918252602090912001546001600160a01b0316915061056b9050565b6001016105ae565b50919050565b60606000610693846105aa565b60405163271c33cd60e11b81529091506001600160a01b03821690634e38679a9061043a908690600401611064565b606080606060006106d2856105aa565b9050806001600160a01b0316638813ce126040518163ffffffff1660e01b815260040160006040518083038186803b15801561070d57600080fd5b505afa158015610721573d6000803e3d6000fd5b505050506040513d6000823e601f3d908101601f191682016040526107499190810190610b56565b935093509350509193909250565b6000610762836105aa565b60405163ab0da5a960e01b81529091506001600160a01b0382169063ab0da5a9906103c1908590600401611064565b600061079c856105aa565b60405163b4cc4f7960e01b81529091506001600160a01b0382169063b4cc4f79906107cf90879087908790600401611072565b600060405180830381600087803b1580156107e957600080fd5b505af11580156107fd573d6000803e3d6000fd5b505050505050505050565b6000805460408051602060026001851615610100026000190190941693909304601f8101849004840282018401909252818152929183018282801561088e5780601f106108635761010080835404028352916020019161088e565b820191906000526020600020905b81548152906001019060200180831161087157829003601f168201915b505050505081565b6115a9806112cd83390190565b828054600181600116156101000203166002900490600052602060002090601f016020900481019282601f106108e457805160ff1916838001178555610911565b82800160010185558215610911579182015b828111156109115782518255916020019190600101906108f6565b5061091d929150610921565b5090565b61093b91905b8082111561091d5760008155600101610927565b90565b8035610492816112a3565b8051610492816112a3565b600082601f83011261096557600080fd5b8151610978610973826111ce565b6111a7565b9150818183526020840193506020810190508385602084028201111561099d57600080fd5b60005b838110156109c957816109b38882610949565b84525060209283019291909101906001016109a0565b5050505092915050565b600082601f8301126109e457600080fd5b81516109f2610973826111ce565b81815260209384019390925082018360005b838110156109c95781518601610a1a8882610aab565b8452506020928301929190910190600101610a04565b600082601f830112610a4157600080fd5b8151610a4f610973826111ce565b91508181835260208401935060208101905083856020840282011115610a7457600080fd5b60005b838110156109c95781610a8a8882610b4b565b8452506020928301929190910190600101610a77565b8051610492816112ba565b600082601f830112610abc57600080fd5b8151610aca610973826111ef565b91508082526020830160208301858383011115610ae657600080fd5b610af1838284611269565b50505092915050565b600082601f830112610b0b57600080fd5b8135610b19610973826111ef565b91508082526020830160208301858383011115610b3557600080fd5b610af183828461125d565b8035610492816112c3565b8051610492816112c3565b600080600060608486031215610b6b57600080fd5b835167ffffffffffffffff811115610b8257600080fd5b610b8e86828701610954565b935050602084015167ffffffffffffffff811115610bab57600080fd5b610bb7868287016109d3565b925050604084015167ffffffffffffffff811115610bd457600080fd5b610be086828701610a30565b9150509250925092565b600060208284031215610bfc57600080fd5b600061048e8484610aa0565b600060208284031215610c1a57600080fd5b815167ffffffffffffffff811115610c3157600080fd5b61048e84828501610aab565b60008060408385031215610c5057600080fd5b823567ffffffffffffffff811115610c6757600080fd5b610c7385828601610afa565b9250506020610c848582860161093e565b9150509250929050565b60008060008060008060c08789031215610ca757600080fd5b863567ffffffffffffffff811115610cbe57600080fd5b610cca89828a01610afa565b9650506020610cdb89828a0161093e565b9550506040610cec89828a01610b40565b945050606087013567ffffffffffffffff811115610d0957600080fd5b610d1589828a01610afa565b935050608087013567ffffffffffffffff811115610d3257600080fd5b610d3e89828a01610afa565b92505060a0610d4f89828a01610b40565b9150509295509295509295565b600060208284031215610d6e57600080fd5b600061048e8484610b40565b600060208284031215610d8c57600080fd5b600061048e8484610b4b565b60008060408385031215610dab57600080fd5b6000610c738585610b40565b60008060008060808587031215610dcd57600080fd5b6000610dd98787610b40565b9450506020610dea8782880161093e565b935050604085013567ffffffffffffffff811115610e0757600080fd5b610e1387828801610afa565b9250506060610e2487828801610b40565b91505092959194509250565b6000610e3c8383610e63565b505060200190565b6000610e508383610f99565b9392505050565b6000610e3c838361105b565b610e6c81611236565b82525050565b6000610e7d82611229565b610e87818561122d565b9350610e9283611217565b8060005b83811015610ec0578151610eaa8882610e30565b9750610eb583611217565b925050600101610e96565b509495945050505050565b6000610ed682611229565b610ee0818561122d565b935083602082028501610ef285611217565b8060005b85811015610f2c5784840389528151610f0f8582610e44565b9450610f1a83611217565b60209a909a0199925050600101610ef6565b5091979650505050505050565b6000610f4482611229565b610f4e818561122d565b9350610f5983611217565b8060005b83811015610ec0578151610f718882610e57565b9750610f7c83611217565b925050600101610f5d565b610e6c81611241565b610e6c81611252565b6000610fa482611229565b610fae818561122d565b9350610fbe818560208601611269565b610fc781611299565b9093019392505050565b600081546001811660008114610fee576001811461101457611053565b607f6002830416610fff818761122d565b60ff1984168152955050602085019250611053565b60028204611022818761122d565b955061102d8561121d565b60005b8281101561104c57815488820152600190910190602001611030565b8701945050505b505092915050565b610e6c8161093b565b602081016104928284610e63565b606081016110808286610e63565b81810360208301526110928185610f99565b90506110a1604083018461105b565b949350505050565b606080825281016110ba8186610e72565b905081810360208301526110ce8185610ecb565b905081810360408301526110e28184610f39565b95945050505050565b602081016104928284610f87565b602081016104928284610f90565b60208082528101610e508184610f99565b60e08082528101611129818a610f99565b90506111386020830189610e63565b611145604083018861105b565b81810360608301526111578187610f99565b9050818103608083015261116b8186610f99565b905061117a60a083018561105b565b81810360c083015261118c8184610fd1565b9998505050505050505050565b60208101610492828461105b565b60405181810167ffffffffffffffff811182821017156111c657600080fd5b604052919050565b600067ffffffffffffffff8211156111e557600080fd5b5060209081020190565b600067ffffffffffffffff82111561120657600080fd5b506020601f91909101601f19160190565b60200190565b60009081526020902090565b5190565b90815260200190565b600061049282611246565b151590565b6001600160a01b031690565b600061049282611236565b82818337506000910152565b60005b8381101561128457818101518382015260200161126c565b83811115611293576000848401525b50505050565b601f01601f191690565b6112ac81611236565b81146112b757600080fd5b50565b6112ac81611241565b6112ac8161093b56fe608060405234801561001057600080fd5b50611589806100206000396000f3fe608060405234801561001057600080fd5b50600436106101c45760003560e01c80638813ce12116100f9578063baab979711610097578063dce523f811610071578063dce523f814610366578063f5ec2eed14610379578063f683747b14610381578063faf34aa914610394576101c4565b8063baab979714610338578063c2939d971461034b578063cd29485614610353576101c4565b8063a1194fcf116100d3578063a1194fcf146102f7578063ab0da5a91461030a578063b4cc4f791461031d578063b8d80f9a14610330576101c4565b80638813ce12146102c55780638c9878cc146102dc5780639056631d146102ef576101c4565b80633cb0cb20116101665780635c8ee5cf116101405780635c8ee5cf1461029a5780635d35f5f9146102ad5780637b2414e1146102b55780638080be77146102bd576101c4565b80633cb0cb20146102545780634cc82215146102675780634e38679a1461027a576101c4565b80631c270356116101a25780631c2703561461020f5780631eba26791461022f57806322bd6d3f1461023757806322f3e2d41461023f576101c4565b80630397b652146101c95780630db065f4146101e75780630f9c774d146101fc575b600080fd5b6101d16103a7565b6040516101de9190611457565b60405180910390f35b6101fa6101f53660046110a3565b6103ad565b005b6101d161020a366004611229565b610401565b61022261021d366004611229565b61041f565b6040516101de91906113e8565b610222610446565b610222610455565b610247610464565b6040516101de9190611438565b6101fa61026236600461112e565b610475565b6101fa610275366004611229565b610506565b61028d6102883660046110a3565b6105ae565b6040516101de9190611446565b6101fa6102a83660046110a3565b6106ed565b61028d610716565b6101d16107a4565b61028d6107aa565b6102cd610805565b6040516101de939291906113f6565b6102226102ea366004611229565b61099b565b6102476109a8565b61028d610305366004611229565b6109b8565b6101fa6103183660046110a3565b610a2b565b6101fa61032b3660046110c9565b610ad5565b61028d610bf3565b61028d6103463660046110a3565b610c4e565b6101d1610ce7565b6101fa610361366004611229565b610ced565b6101fa610374366004611229565b610d5e565b61028d610de1565b61022261038f366004611229565b610e3c565b6101fa6103a2366004611229565b610e49565b60055481565b60005b600a548110156103fd57816001600160a01b0316600a82815481106103d157fe5b6000918252602090912001546001600160a01b031614156103f5576103f581610506565b6001016103b0565b5050565b600c818154811061040e57fe5b600091825260209091200154905081565b6002818154811061042c57fe5b6000918252602090912001546001600160a01b0316905081565b6001546001600160a01b031681565b600d546001600160a01b031681565b600d54600160a01b900460ff165b90565b86516104889060009060208a0190610edf565b50600180546001600160a01b0319166001600160a01b038816179055600585905583516104bc906006906020870190610edf565b5082516104d0906007906020860190610edf565b50600482905580516104e9906008906020840190610edf565b5050600d805460ff60a01b1916600160a01b179055505050505050565b805b600a546000190181101561057d57600a816001018154811061052657fe5b600091825260209091200154600a80546001600160a01b03909216918390811061054c57fe5b600091825260209091200180546001600160a01b0319166001600160a01b0392909216919091179055600101610508565b50600a80548061058957fe5b600082815260209020810160001990810180546001600160a01b031916905501905550565b600d546060906001600160a01b03838116911614156105e95750604080518082019091526005815264121254915160da1b60208201526106e8565b60005b60025481101561065557826001600160a01b03166002828154811061060d57fe5b6000918252602090912001546001600160a01b0316141561064d5750506040805180820190915260078152661054141312515160ca1b60208201526106e8565b6001016105ec565b5060005b6009548110156106c357826001600160a01b03166009828154811061067a57fe5b6000918252602090912001546001600160a01b031614156106bb5750506040805180820190915260088152671491529150d5115160c21b60208201526106e8565b600101610659565b505060408051808201909152600b81526a1393d5081054141312515160aa1b60208201525b919050565b600d80546001600160a01b0319166001600160a01b03929092169190911760ff60a01b19169055565b6006805460408051602060026001851615610100026000190190941693909304601f8101849004840282018401909252818152929183018282801561079c5780601f106107715761010080835404028352916020019161079c565b820191906000526020600020905b81548152906001019060200180831161077f57829003601f168201915b505050505081565b60035481565b6007805460408051602060026001851615610100026000190190941693909304601f8101849004840282018401909252818152929183018282801561079c5780601f106107715761010080835404028352916020019161079c565b60608060606002600b600c8280548060200260200160405190810160405280929190818152602001828054801561086557602002820191906000526020600020905b81546001600160a01b03168152600190910190602001808311610847575b5050505050925081805480602002602001604051908101604052809291908181526020016000905b828210156109385760008481526020908190208301805460408051601f60026000196101006001871615020190941693909304928301859004850281018501909152818152928301828280156109245780601f106108f957610100808354040283529160200191610924565b820191906000526020600020905b81548152906001019060200180831161090757829003601f168201915b50505050508152602001906001019061088d565b5050505091508080548060200260200160405190810160405280929190818152602001828054801561098957602002820191906000526020600020905b815481526020019060010190808311610975575b50505050509050925092509250909192565b6009818154811061042c57fe5b600d54600160a01b900460ff1681565b600b81815481106109c557fe5b600091825260209182902001805460408051601f600260001961010060018716150201909416939093049283018590048502810185019091528181529350909183018282801561079c5780601f106107715761010080835404028352916020019161079c565b6009805460018101825560009182527f6e1540171b6c0c960b71a7020d9f60077f6af931a8bbf590da0223dacf75c7af0180546001600160a01b0319166001600160a01b0384161790555b6002548110156103fd57816001600160a01b031660028281548110610a9757fe5b6000918252602090912001546001600160a01b03161415610acd57610abb81610d5e565b610ac481610e49565b610acd81610ced565b600101610a76565b6002805460018082019092557f405787fa12a823e0f2b7631cc41b3ba8828b3321ca811111fa75cd3aa3bb5ace0180546001600160a01b0319166001600160a01b038616179055600b805491820180825560009190915283519091610b63917f0175b7a638427703f0dbe7bb9bbf987a2551717b34e79f33b5b1008d1fa01db9909101906020860190610edf565b5050600c805460018082019092557fdf6966c971051c3d54ec59162606531493a51404a002842f56009d7e5cf4a8c70191909155600a805480830182556000919091527fc65a7bb8d6351c1cf70c95a316cc6a92839c986682d98bc35f958f4883f9d2a80180546001600160a01b0319166001600160a01b03949094169390931790925550600380549091019055565b6000805460408051602060026001851615610100026000190190941693909304601f8101849004840282018401909252818152929183018282801561079c5780601f106107715761010080835404028352916020019161079c565b606060005b600a54811015610cc157826001600160a01b0316600a8281548110610c7457fe5b6000918252602090912001546001600160a01b03161415610cb957505060408051808201909152600c81526b139bdd0815995c9a599a595960a21b60208201526106e8565b600101610c53565b505060408051808201909152600881526715995c9a599a595960c21b6020820152919050565b60045481565b805b600c5460001901811015610d3957600c8160010181548110610d0d57fe5b9060005260206000200154600c8281548110610d2557fe5b600091825260209091200155600101610cef565b50600c805480610d4557fe5b6001900381819060005260206000200160009055905550565b805b60025460001901811015610dd55760028160010181548110610d7e57fe5b600091825260209091200154600280546001600160a01b039092169183908110610da457fe5b600091825260209091200180546001600160a01b0319166001600160a01b0392909216919091179055600101610d60565b50600280548061058957fe5b6008805460408051602060026001851615610100026000190190941693909304601f8101849004840282018401909252818152929183018282801561079c5780601f106107715761010080835404028352916020019161079c565b600a818154811061042c57fe5b805b600b5460001901811015610eb257600b8160010181548110610e6957fe5b90600052602060002001600b8281548110610e8057fe5b906000526020600020019080546001816001161561010002031660029004610ea9929190610f5d565b50600101610e4b565b50600b805480610ebe57fe5b600190038181906000526020600020016000610eda9190610fd2565b905550565b828054600181600116156101000203166002900490600052602060002090601f016020900481019282601f10610f2057805160ff1916838001178555610f4d565b82800160010185558215610f4d579182015b82811115610f4d578251825591602001919060010190610f32565b50610f59929150611019565b5090565b828054600181600116156101000203166002900490600052602060002090601f016020900481019282601f10610f965780548555610f4d565b82800160010185558215610f4d57600052602060002091601f016020900482015b82811115610f4d578254825591600101919060010190610fb7565b50805460018160011615610100020316600290046000825580601f10610ff85750611016565b601f0160209004906000526020600020908101906110169190611019565b50565b61047291905b80821115610f59576000815560010161101f565b803561103e81611529565b92915050565b600082601f83011261105557600080fd5b81356110686110638261148c565b611465565b9150808252602083016020830185838301111561108457600080fd5b61108f8382846114e3565b50505092915050565b803561103e8161153d565b6000602082840312156110b557600080fd5b60006110c18484611033565b949350505050565b6000806000606084860312156110de57600080fd5b60006110ea8686611033565b935050602084013567ffffffffffffffff81111561110757600080fd5b61111386828701611044565b925050604061112486828701611098565b9150509250925092565b600080600080600080600060e0888a03121561114957600080fd5b873567ffffffffffffffff81111561116057600080fd5b61116c8a828b01611044565b975050602061117d8a828b01611033565b965050604061118e8a828b01611098565b955050606088013567ffffffffffffffff8111156111ab57600080fd5b6111b78a828b01611044565b945050608088013567ffffffffffffffff8111156111d457600080fd5b6111e08a828b01611044565b93505060a06111f18a828b01611098565b92505060c088013567ffffffffffffffff81111561120e57600080fd5b61121a8a828b01611044565b91505092959891949750929550565b60006020828403121561123b57600080fd5b60006110c18484611098565b6000611253838361127a565b505060200190565b600061126783836113a7565b9392505050565b600061125383836113df565b611283816114c7565b82525050565b6000611294826114ba565b61129e81856114be565b93506112a9836114b4565b8060005b838110156112d75781516112c18882611247565b97506112cc836114b4565b9250506001016112ad565b509495945050505050565b60006112ed826114ba565b6112f781856114be565b935083602082028501611309856114b4565b8060005b858110156113435784840389528151611326858261125b565b9450611331836114b4565b60209a909a019992505060010161130d565b5091979650505050505050565b600061135b826114ba565b61136581856114be565b9350611370836114b4565b8060005b838110156112d7578151611388888261126e565b9750611393836114b4565b925050600101611374565b611283816114d2565b60006113b2826114ba565b6113bc81856114be565b93506113cc8185602086016114ef565b6113d58161151f565b9093019392505050565b61128381610472565b6020810161103e828461127a565b606080825281016114078186611289565b9050818103602083015261141b81856112e2565b9050818103604083015261142f8184611350565b95945050505050565b6020810161103e828461139e565b6020808252810161126781846113a7565b6020810161103e82846113df565b60405181810167ffffffffffffffff8111828210171561148457600080fd5b604052919050565b600067ffffffffffffffff8211156114a357600080fd5b506020601f91909101601f19160190565b60200190565b5190565b90815260200190565b600061103e826114d7565b151590565b6001600160a01b031690565b82818337506000910152565b60005b8381101561150a5781810151838201526020016114f2565b83811115611519576000848401525b50505050565b601f01601f191690565b611532816114c7565b811461101657600080fd5b6115328161047256fea365627a7a72315820cb8e2ee148e008a89e4c022f078e3eefcd84352cb9f95b4f7e02fb92e08a9d6b6c6578706572696d656e74616cf564736f6c63430005100040a365627a7a72315820e58ebafae7cddaa71ba90f0f03753163ce1728b2106667179f1c4a74e71e49286c6578706572696d656e74616cf564736f6c63430005100040a365627a7a7231582047c170387e113a8fb5f8607d604b56c4a79af46fd817e11edf92efa264b320ec6c6578706572696d656e74616cf564736f6c63430005100040",
  "source": "// SPDX-License-Identifier: MIT\npragma solidity >=0.4.21 <0.7.0;\npragma experimental ABIEncoderV2;\nimport \"./Organisation.sol\";\nimport \"./Student.sol\";\nimport \"./Company.sol\";\n\ncontract OverAllTem {\n    Organisation[] public Orgaganisations;\n\n    Company[] public Companies;\n\n    struct studentToOrganisation {\n        address _studentAdd;\n        address _orgAddress;\n    }\n\n    studentToOrganisation[] public studentToOrganisationArray;\n\n    // student struct\n    struct student {\n        string name;\n        address addr;\n        uint256 studentUniqueId;\n        uint256 noOfCertificates;\n    }\n    // certificate struct\n    struct certificate {\n        string name;\n        uint256 uniqueId;\n        address issuedTo;\n        uint256 date;\n        address issuedBy;\n    }\n    // organisation struct\n    struct organisation {\n        string name;\n        address addr;\n        // uint256 noOfStudents;\n    }\n\n    // function give student Address got org address\n    function getStudentOrgAddress(address _stAddress)\n        public\n        view\n        returns (address)\n    {\n        for (uint256 i = 0; i < studentToOrganisationArray.length; i++) {\n            if (studentToOrganisationArray[i]._studentAdd == _stAddress) {\n                return studentToOrganisationArray[i]._orgAddress;\n            }\n        }\n        return address(0);\n    }\n\n    // function to get organisation by address\n    function getOrganisationByAddress(address _orgAddress)\n        public\n        view\n        returns (Organisation)\n    {\n        for (uint256 i = 0; i < Orgaganisations.length; i++) {\n            if (Orgaganisations[i].organisationAddress() == _orgAddress) {\n                return Orgaganisations[i];\n            }\n        }\n    }\n\n    // certificate functions--completed \n    function addCertificate(\n        string memory _ipfs,\n        string memory _merklee,\n        uint256 cUnique,\n        address sUnique\n    ) public {\n        for (uint256 i = 0; i < Orgaganisations.length; i++) {\n            if (Orgaganisations[i].organisationAddress() == msg.sender) {\n                for (\n                    uint256 j = 0;\n                    j < Orgaganisations[i].noOfStudents();\n                    j++\n                ) {\n                    if (\n                        Orgaganisations[i].students(j).student_acc_address() ==\n                        sUnique\n                    ) {\n                        Orgaganisations[i].students(j).addCertificate(\n                            _ipfs,\n                            _merklee,\n                            cUnique,\n                            sUnique,\n                            Orgaganisations[i].organisationAddress()\n                        );\n                    }\n                }\n            }\n        }\n        // add certificate\n    }\n\n    // get student detail by unique id for auth two--completed\n    function getStudentDetail()\n        public\n        view\n        returns (\n            string memory,\n            uint256,\n            string memory,\n            address,\n            uint256\n        )\n    {\n        for (uint256 i = 0; i < studentToOrganisationArray.length; i++) {\n            if (studentToOrganisationArray[i]._studentAdd == msg.sender) {\n                address _orgAddress = studentToOrganisationArray[i]._orgAddress;\n                for (uint256 j = 0; j < Orgaganisations.length; j++) {\n                    if (\n                        Orgaganisations[j].organisationAddress() == _orgAddress\n                    ) {\n                        for (\n                            uint256 k = 0;\n                            k < Orgaganisations[j].noOfStudents();\n                            k++\n                        ) {\n                            if (\n                                Orgaganisations[j]\n                                    .students(k)\n                                    .student_acc_address() == msg.sender\n                            ) {\n                                return (\n                                    Orgaganisations[i]\n                                        .students(k)\n                                        .student_name(),\n                                    Orgaganisations[i]\n                                        .students(k)\n                                        .student_unique_id(),\n                                    Orgaganisations[i].organisationName(),\n                                    Orgaganisations[i]\n                                        .students(k)\n                                        .student_acc_address(),\n                                    Orgaganisations[i]\n                                        .students(k)\n                                        .noOfCertificates()\n                                );\n                            }\n                        }\n                    }\n                }\n            }\n        }\n        return (\"\", 0, \"\", address(0), 0);\n    }\n\n    // add student ---completed\n    function addStudent(\n        string memory _name,\n        uint256 _uid,\n        address _orgAddr\n    ) public {\n        for (uint256 i = 0; i < Orgaganisations.length; i++) {\n            if (Orgaganisations[i].organisationAddress() == _orgAddr) {\n                Orgaganisations[i].addStudent(\n                    _name,\n                    _uid,\n                    msg.sender,\n                    _orgAddr\n                );\n\n                studentToOrganisationArray.push(\n                    studentToOrganisation(msg.sender, _orgAddr)\n                );\n            }\n        }\n    }\n\n    // add an company\n    function addCompany(string memory _companyName) public {\n        Company c = new Company();\n        c.addCompany(_companyName, msg.sender);\n        Companies.push(c);\n    }\n\n    // get allorganisation details --completed\n    function getAllOrganisations() public view returns (organisation[] memory) {\n        organisation[] memory orgs = new organisation[](Orgaganisations.length);\n        for (uint256 i = 0; i < Orgaganisations.length; i++) {\n            orgs[i].name = Orgaganisations[i].organisationName();\n            orgs[i].addr = Orgaganisations[i].organisationAddress();\n        }\n        return orgs;\n    }\n\n    // addding organisation averall -completed\n    function addOrganisation(string memory _organisationName) public {\n        Organisation org = new Organisation();\n        org.addOrganisation(_organisationName, msg.sender);\n        Orgaganisations.push(org);\n    }\n\n    // checking Organisation present or not--completed \n    function checkOrganisation() public view returns (string memory) {\n        for (uint256 i = 0; i < Orgaganisations.length; i++) {\n            if (Orgaganisations[i].organisationAddress() == msg.sender) {\n                return Orgaganisations[i].organisationName();\n            }\n        }\n        return \"no\";\n    }\n\n    // checking student present or not---completed\n    function checkStudent() public view returns (string memory) {\n        for (uint256 i = 0; i < Orgaganisations.length; i++) {\n            for (uint256 j = 0; j < Orgaganisations[i].noOfStudents(); j++) {\n                if (\n                    Orgaganisations[i].students(j).student_acc_address() ==\n                    msg.sender\n                ) {\n                    return \"yes\";\n                }\n            }\n        }\n        return \"no\";\n    }\n\n    // to get organsiation object--completed \n    function getOrganisation() public view returns (Organisation) {\n        for (uint256 i = 0; i < Orgaganisations.length; i++) {\n            if (Orgaganisations[i].organisationAddress() == msg.sender) {\n                return Orgaganisations[i];\n            }\n        }\n    }\n\n    // to getorganisation details in university profile--completed \n\n    function getOrganisationDetails()\n        public\n        view\n        returns (\n            string memory,\n            address,\n            uint256,\n            uint256,\n            uint256\n        )\n    {\n        for (uint256 i = 0; i < Orgaganisations.length; i++) {\n            if (Orgaganisations[i].organisationAddress() == msg.sender) {\n                return (\n                    Orgaganisations[i].organisationName(),\n                    msg.sender,\n                    Orgaganisations[i].noOfUniqueIds(),\n                    Orgaganisations[i].noOfStudents(),\n                    totalCertificates()\n                );\n            }\n        }\n    }\n\n    // returns all the students using struct --completed \n\n    function getAllStudents() public view returns (student[] memory) {\n        Organisation org = getOrganisation();\n        student[] memory allStudents = new student[](org.noOfStudents());\n        for (uint256 i = 0; i < org.noOfStudents(); i++) {\n            student memory s = student(\n                org.students(i).student_name(),\n                org.students(i).student_acc_address(),\n                org.students(i).student_unique_id(),\n                org.students(i).noOfCertificates()\n            );\n            allStudents[i] = s;\n        }\n        return allStudents;\n    }\n\n    // returns no of certificates issued to by organisation--complete\n    function totalCertificates() public view returns (uint256) {\n        Organisation org = getOrganisation();\n        uint256 total = 0;\n        for (uint256 i = 0; i < org.noOfStudents(); i++) {\n            total += org.students(i).noOfCertificates();\n        }\n        return total;\n    }\n\n    // returns all the certificates issued to by organisation --completed \n    function getAllCertificates() public view returns (certificate[] memory) {\n        Organisation org = getOrganisation();\n        certificate[] memory allCertificates = new certificate[](\n            totalCertificates()\n        );\n        uint256 k = 0;\n        for (uint256 i = 0; i < org.noOfStudents(); i++) {\n            for (uint256 j = 0; j < org.students(i).noOfCertificates(); j++) {\n                certificate memory c = certificate(\n                    org.students(i).certifications(j).studentName(),\n                    org.students(i).certifications(j).certification_unique_id(),\n                    org.students(i).certifications(j).issued_to(),\n                    org.students(i).certifications(j).date(),\n                    org.students(i).certifications(j).issuedBy()\n                );\n                allCertificates[k] = c;\n                k++;\n            }\n        }\n        return allCertificates;\n    }\n\n    // adds an unique id to organisation by the organisation--completed \n\n    function addStudentUniqueID(uint256 _id) public {\n        Organisation org = getOrganisation();\n        org.addStudentId(_id);\n    }\n}\n",
  "sourcePath": "C:\\Users\\sthipp005\\Downloads\\cryptoblockchain\\blockcrypto\\contracts\\OverAllTem.sol",
  "compiler": {
    "name": "solc",
    "version": "0.5.16+commit.9c3226ce.Emscripten.clang"
  },
  "schemaVersion": "3.4.11",
  "updatedAt": "2023-02-20T16:00:50.364Z",
  "devdoc": {
    "methods": {}
  },
  "userdoc": {
    "methods": {}
  }
}