{
  "contractName": "OverAllTwo",
  "abi": [
    {
      "constant": true,
      "inputs": [],
      "name": "helper",
      "outputs": [
        {
          "internalType": "contract HelperTwo",
          "name": "",
          "type": "address"
        }
      ],
      "payable": false,
      "stateMutability": "view",
      "type": "function"
    },
    {
      "constant": false,
      "inputs": [
        {
          "internalType": "string",
          "name": "_name",
          "type": "string"
        }
      ],
      "name": "addCompany",
      "outputs": [],
      "payable": false,
      "stateMutability": "nonpayable",
      "type": "function"
    },
    {
      "constant": false,
      "inputs": [
        {
          "internalType": "string",
          "name": "_jobName",
          "type": "string"
        },
        {
          "internalType": "uint256",
          "name": "_salary",
          "type": "uint256"
        },
        {
          "internalType": "string",
          "name": "_jobLocation",
          "type": "string"
        },
        {
          "internalType": "string",
          "name": "_jobType",
          "type": "string"
        },
        {
          "internalType": "uint256",
          "name": "_jobid",
          "type": "uint256"
        }
      ],
      "name": "addJob",
      "outputs": [],
      "payable": false,
      "stateMutability": "nonpayable",
      "type": "function"
    },
    {
      "constant": true,
      "inputs": [],
      "name": "checkCompany",
      "outputs": [
        {
          "internalType": "string",
          "name": "",
          "type": "string"
        }
      ],
      "payable": false,
      "stateMutability": "view",
      "type": "function"
    },
    {
      "constant": false,
      "inputs": [
        {
          "internalType": "address",
          "name": "_companyAddress",
          "type": "address"
        },
        {
          "internalType": "uint256",
          "name": "_jobid",
          "type": "uint256"
        },
        {
          "internalType": "string",
          "name": "ipfs",
          "type": "string"
        },
        {
          "internalType": "uint256",
          "name": "cerId",
          "type": "uint256"
        }
      ],
      "name": "applyJob",
      "outputs": [],
      "payable": false,
      "stateMutability": "nonpayable",
      "type": "function"
    },
    {
      "constant": true,
      "inputs": [],
      "name": "studentApplied",
      "outputs": [
        {
          "internalType": "uint256[]",
          "name": "",
          "type": "uint256[]"
        }
      ],
      "payable": false,
      "stateMutability": "view",
      "type": "function"
    },
    {
      "constant": true,
      "inputs": [],
      "name": "studentRejected",
      "outputs": [
        {
          "internalType": "uint256[]",
          "name": "",
          "type": "uint256[]"
        }
      ],
      "payable": false,
      "stateMutability": "view",
      "type": "function"
    },
    {
      "constant": true,
      "inputs": [],
      "name": "studentHired",
      "outputs": [
        {
          "internalType": "uint256[]",
          "name": "",
          "type": "uint256[]"
        }
      ],
      "payable": false,
      "stateMutability": "view",
      "type": "function"
    },
    {
      "constant": true,
      "inputs": [
        {
          "internalType": "uint256",
          "name": "_jobid",
          "type": "uint256"
        }
      ],
      "name": "getRequests",
      "outputs": [
        {
          "internalType": "address[]",
          "name": "",
          "type": "address[]"
        },
        {
          "internalType": "string[]",
          "name": "",
          "type": "string[]"
        },
        {
          "internalType": "uint256[]",
          "name": "",
          "type": "uint256[]"
        }
      ],
      "payable": false,
      "stateMutability": "view",
      "type": "function"
    },
    {
      "constant": false,
      "inputs": [
        {
          "internalType": "uint256",
          "name": "_jobid",
          "type": "uint256"
        },
        {
          "internalType": "address",
          "name": "addr",
          "type": "address"
        }
      ],
      "name": "verified",
      "outputs": [],
      "payable": false,
      "stateMutability": "nonpayable",
      "type": "function"
    },
    {
      "constant": false,
      "inputs": [
        {
          "internalType": "uint256",
          "name": "_jobid",
          "type": "uint256"
        },
        {
          "internalType": "address",
          "name": "addr",
          "type": "address"
        }
      ],
      "name": "setHired",
      "outputs": [],
      "payable": false,
      "stateMutability": "nonpayable",
      "type": "function"
    },
    {
      "constant": true,
      "inputs": [
        {
          "internalType": "uint256",
          "name": "_jobid",
          "type": "uint256"
        },
        {
          "internalType": "address",
          "name": "addr",
          "type": "address"
        }
      ],
      "name": "checkVerification",
      "outputs": [
        {
          "internalType": "string",
          "name": "",
          "type": "string"
        }
      ],
      "payable": false,
      "stateMutability": "view",
      "type": "function"
    },
    {
      "constant": false,
      "inputs": [
        {
          "internalType": "uint256",
          "name": "_jobid",
          "type": "uint256"
        },
        {
          "internalType": "address",
          "name": "addr",
          "type": "address"
        }
      ],
      "name": "rejected",
      "outputs": [],
      "payable": false,
      "stateMutability": "nonpayable",
      "type": "function"
    },
    {
      "constant": true,
      "inputs": [
        {
          "internalType": "uint256",
          "name": "_jobid",
          "type": "uint256"
        }
      ],
      "name": "isActive",
      "outputs": [
        {
          "internalType": "bool",
          "name": "",
          "type": "bool"
        }
      ],
      "payable": false,
      "stateMutability": "view",
      "type": "function"
    },
    {
      "constant": true,
      "inputs": [],
      "name": "getAllJobs",
      "outputs": [
        {
          "components": [
            {
              "internalType": "string",
              "name": "jobName",
              "type": "string"
            },
            {
              "internalType": "uint256",
              "name": "jobId",
              "type": "uint256"
            },
            {
              "internalType": "address",
              "name": "postedBy",
              "type": "address"
            },
            {
              "internalType": "uint256",
              "name": "salary",
              "type": "uint256"
            },
            {
              "internalType": "uint256",
              "name": "noOfApplied",
              "type": "uint256"
            },
            {
              "internalType": "bool",
              "name": "isActive",
              "type": "bool"
            },
            {
              "internalType": "string",
              "name": "companyName",
              "type": "string"
            }
          ],
          "internalType": "struct OverAllTwo.jobSt[]",
          "name": "",
          "type": "tuple[]"
        }
      ],
      "payable": false,
      "stateMutability": "view",
      "type": "function"
    },
    {
      "constant": true,
      "inputs": [],
      "name": "getSpecificJobs",
      "outputs": [
        {
          "components": [
            {
              "internalType": "string",
              "name": "jobName",
              "type": "string"
            },
            {
              "internalType": "uint256",
              "name": "jobId",
              "type": "uint256"
            },
            {
              "internalType": "address",
              "name": "postedBy",
              "type": "address"
            },
            {
              "internalType": "uint256",
              "name": "salary",
              "type": "uint256"
            },
            {
              "internalType": "uint256",
              "name": "noOfApplied",
              "type": "uint256"
            },
            {
              "internalType": "bool",
              "name": "isActive",
              "type": "bool"
            },
            {
              "internalType": "string",
              "name": "companyName",
              "type": "string"
            }
          ],
          "internalType": "struct OverAllTwo.jobSt[]",
          "name": "",
          "type": "tuple[]"
        }
      ],
      "payable": false,
      "stateMutability": "view",
      "type": "function"
    },
    {
      "constant": true,
      "inputs": [
        {
          "internalType": "uint256",
          "name": "_jobid",
          "type": "uint256"
        }
      ],
      "name": "getJob",
      "outputs": [
        {
          "internalType": "string",
          "name": "",
          "type": "string"
        },
        {
          "internalType": "uint256",
          "name": "",
          "type": "uint256"
        },
        {
          "internalType": "string",
          "name": "",
          "type": "string"
        },
        {
          "internalType": "string",
          "name": "",
          "type": "string"
        },
        {
          "internalType": "string",
          "name": "",
          "type": "string"
        }
      ],
      "payable": false,
      "stateMutability": "view",
      "type": "function"
    },
    {
      "constant": true,
      "inputs": [],
      "name": "getCompanyDetails",
      "outputs": [
        {
          "internalType": "string",
          "name": "",
          "type": "string"
        },
        {
          "internalType": "address",
          "name": "",
          "type": "address"
        },
        {
          "internalType": "uint256",
          "name": "",
          "type": "uint256"
        },
        {
          "internalType": "uint256",
          "name": "",
          "type": "uint256"
        }
      ],
      "payable": false,
      "stateMutability": "view",
      "type": "function"
    },
    {
      "constant": true,
      "inputs": [
        {
          "internalType": "uint256",
          "name": "_jobid",
          "type": "uint256"
        },
        {
          "internalType": "address",
          "name": "company",
          "type": "address"
        }
      ],
      "name": "jobStatus",
      "outputs": [
        {
          "internalType": "string",
          "name": "",
          "type": "string"
        }
      ],
      "payable": false,
      "stateMutability": "view",
      "type": "function"
    }
  ],
  "bytecode": "0x6080604052604051620000129062000064565b604051809103906000f0801580156200002f573d6000803e3d6000fd5b50600180546001600160a01b0319166001600160a01b03929092169190911790553480156200005d57600080fd5b5062000072565b6109688062005c2a83390190565b615ba880620000826000396000f3fe608060405234801561001057600080fd5b50600436106101215760003560e01c80639b802718116100ad578063d5c65daa11610071578063d5c65daa1461025b578063d5e7882914610263578063d6483d1714610285578063dd3a45c014610298578063f6beca5c146102ab57610121565b80639b80271814610201578063ade2911914610214578063bf22c4571461021c578063c3326d2914610240578063d004eb0f1461024857610121565b806363b0e66a116100f457806363b0e66a146101915780636540da64146101a657806382afd23b146101b95780639200f38e146101d9578063965a79fb146101ec57610121565b80631dd691b21461012657806324d7356714610147578063351e476e1461015c57806356436d681461017c575b600080fd5b61012e6102b3565b60405161013e9493929190613017565b60405180910390f35b61015a610155366004612b72565b610351565b005b61016f61016a366004612b72565b61043c565b60405161013e9190612f88565b610184610553565b60405161013e9190612f5b565b6101996105b4565b60405161013e9190612f7a565b61015a6101b4366004612865565b6105c3565b6101cc6101c7366004612b36565b6106d6565b60405161013e9190612f6c565b61015a6101e7366004612a7d565b6107e3565b6101f4610947565b60405161013e9190612f4a565b61015a61020f366004612b72565b6111de565b610184611292565b61022f61022a366004612b36565b6112f1565b60405161013e959493929190613051565b61016f611958565b61016f610256366004612b72565b6119e5565b6101f4611a9e565b610276610271366004612b36565b6122c0565b60405161013e93929190612ec0565b61015a6102933660046129de565b6123dd565b61015a6102a6366004612b72565b6124bc565b610184612570565b60015460405163179a78c360e01b8152606091600091829182916001600160a01b039091169063179a78c3906102ef9084903390600401612f2a565b60006040518083038186803b15801561030757600080fd5b505afa15801561031b573d6000803e3d6000fd5b505050506040513d6000823e601f3d908101601f191682016040526103439190810190612a12565b935093509350935090919293565b600154604051635512184360e01b81526000916001600160a01b0316906355121843906103849084903390600401612f2a565b60206040518083038186803b15801561039c57600080fd5b505afa1580156103b0573d6000803e3d6000fd5b505050506040513d601f19601f820116820180604052506103d4919081019061298c565b6040516324d7356760e01b81529091506001600160a01b038216906324d735679061040590869086906004016130b9565b600060405180830381600087803b15801561041f57600080fd5b505af1158015610433573d6000803e3d6000fd5b50505050505050565b600154604051635512184360e01b81526060916000916001600160a01b03909116906355121843906104749084903390600401612f2a565b60206040518083038186803b15801561048c57600080fd5b505afa1580156104a0573d6000803e3d6000fd5b505050506040513d601f19601f820116820180604052506104c4919081019061298c565b604051631a8f23b760e11b81529091506001600160a01b0382169063351e476e906104f590879087906004016130b9565b60006040518083038186803b15801561050d57600080fd5b505afa158015610521573d6000803e3d6000fd5b505050506040513d6000823e601f3d908101601f1916820160405261054991908101906129aa565b9150505b92915050565b336000908152600460209081526040918290208054835181840281018401909452808452606093928301828280156105aa57602002820191906000526020600020905b815481526020019060010190808311610596575b5050505050905090565b6001546001600160a01b031681565b600154604051635512184360e01b81526000916001600160a01b0316906355121843906105f69084908990600401612f0a565b60206040518083038186803b15801561060e57600080fd5b505afa158015610622573d6000803e3d6000fd5b505050506040513d601f19601f82011682018060405250610646919081019061298c565b60405163e9f30b5160e01b81529091506001600160a01b0382169063e9f30b519061067b9087903390889088906004016130ef565b600060405180830381600087803b15801561069557600080fd5b505af11580156106a9573d6000803e3d6000fd5b50503360009081526002602090815260408220805460018101825590835291200195909555505050505050565b600154604051635512184360e01b815260009182916001600160a01b039091169063551218439061070d9084903390600401612f2a565b60206040518083038186803b15801561072557600080fd5b505afa158015610739573d6000803e3d6000fd5b505050506040513d601f19601f8201168201806040525061075d919081019061298c565b6040516382afd23b60e01b81529091506001600160a01b038216906382afd23b9061078c9086906004016130ab565b60206040518083038186803b1580156107a457600080fd5b505afa1580156107b8573d6000803e3d6000fd5b505050506040513d601f19601f820116820180604052506107dc919081019061296e565b9392505050565b60005b60005481101561092257336001600160a01b03166000828154811061080757fe5b60009182526020918290200154604080516353e1ead960e01b815290516001600160a01b03909216926353e1ead992600480840193829003018186803b15801561085057600080fd5b505afa158015610864573d6000803e3d6000fd5b505050506040513d601f19601f820116820180604052506108889190810190612847565b6001600160a01b0316141561091a57600081815481106108a457fe5b60009182526020909120015460405163168342d360e01b81526001600160a01b039091169063168342d3906108e790899033908a908a908a908a90600401612faa565b600060405180830381600087803b15801561090157600080fd5b505af1158015610915573d6000803e3d6000fd5b505050505b6001016107e6565b50600090815260056020526040902080546001600160a01b0319163317905550505050565b600154604051631a03962960e11b815260609182916001600160a01b03909116906334072c529061097d90600090600401612ef9565b60206040518083038186803b15801561099557600080fd5b505afa1580156109a9573d6000803e3d6000fd5b505050506040513d601f19601f820116820180604052506109cd9190810190612b54565b604051908082528060200260200182016040528015610a0657816020015b6109f36125cf565b8152602001906001900390816109eb5790505b5090506000805b6000548110156111d65760005b60008281548110610a2757fe5b600091825260209182902001546040805163215ec13960e11b815290516001600160a01b03909216926342bd827292600480840193829003018186803b158015610a7057600080fd5b505afa158015610a84573d6000803e3d6000fd5b505050506040513d601f19601f82011682018060405250610aa89190810190612b54565b8110156111cd57610ab76125cf565b6040518060e0016040528060008581548110610acf57fe5b60009182526020909120015460405163180aedf360e01b81526001600160a01b039091169063180aedf390610b089087906004016130ab565b60206040518083038186803b158015610b2057600080fd5b505afa158015610b34573d6000803e3d6000fd5b505050506040513d601f19601f82011682018060405250610b58919081019061298c565b6001600160a01b031663b8d80f9a6040518163ffffffff1660e01b815260040160006040518083038186803b158015610b9057600080fd5b505afa158015610ba4573d6000803e3d6000fd5b505050506040513d6000823e601f3d908101601f19168201604052610bcc91908101906129aa565b815260200160008581548110610bde57fe5b60009182526020909120015460405163180aedf360e01b81526001600160a01b039091169063180aedf390610c179087906004016130ab565b60206040518083038186803b158015610c2f57600080fd5b505afa158015610c43573d6000803e3d6000fd5b505050506040513d601f19601f82011682018060405250610c67919081019061298c565b6001600160a01b031663c2939d976040518163ffffffff1660e01b815260040160206040518083038186803b158015610c9f57600080fd5b505afa158015610cb3573d6000803e3d6000fd5b505050506040513d601f19601f82011682018060405250610cd79190810190612b54565b815260200160008581548110610ce957fe5b60009182526020909120015460405163180aedf360e01b81526001600160a01b039091169063180aedf390610d229087906004016130ab565b60206040518083038186803b158015610d3a57600080fd5b505afa158015610d4e573d6000803e3d6000fd5b505050506040513d601f19601f82011682018060405250610d72919081019061298c565b6001600160a01b0316631eba26796040518163ffffffff1660e01b815260040160206040518083038186803b158015610daa57600080fd5b505afa158015610dbe573d6000803e3d6000fd5b505050506040513d601f19601f82011682018060405250610de29190810190612847565b6001600160a01b0316815260200160008581548110610dfd57fe5b60009182526020909120015460405163180aedf360e01b81526001600160a01b039091169063180aedf390610e369087906004016130ab565b60206040518083038186803b158015610e4e57600080fd5b505afa158015610e62573d6000803e3d6000fd5b505050506040513d601f19601f82011682018060405250610e86919081019061298c565b6001600160a01b0316630397b6526040518163ffffffff1660e01b815260040160206040518083038186803b158015610ebe57600080fd5b505afa158015610ed2573d6000803e3d6000fd5b505050506040513d601f19601f82011682018060405250610ef69190810190612b54565b815260200160008581548110610f0857fe5b60009182526020909120015460405163180aedf360e01b81526001600160a01b039091169063180aedf390610f419087906004016130ab565b60206040518083038186803b158015610f5957600080fd5b505afa158015610f6d573d6000803e3d6000fd5b505050506040513d601f19601f82011682018060405250610f91919081019061298c565b6001600160a01b0316637b2414e16040518163ffffffff1660e01b815260040160206040518083038186803b158015610fc957600080fd5b505afa158015610fdd573d6000803e3d6000fd5b505050506040513d601f19601f820116820180604052506110019190810190612b54565b81526020016000858154811061101357fe5b60009182526020909120015460405163180aedf360e01b81526001600160a01b039091169063180aedf39061104c9087906004016130ab565b60206040518083038186803b15801561106457600080fd5b505afa158015611078573d6000803e3d6000fd5b505050506040513d601f19601f8201168201806040525061109c919081019061298c565b6001600160a01b03166322f3e2d46040518163ffffffff1660e01b815260040160206040518083038186803b1580156110d457600080fd5b505afa1580156110e8573d6000803e3d6000fd5b505050506040513d601f19601f8201168201806040525061110c919081019061296e565b151581526020016000858154811061112057fe5b60009182526020822001546040805163f5ec2eed60e01b815290516001600160a01b039092169263f5ec2eed92600480840193829003018186803b15801561116757600080fd5b505afa15801561117b573d6000803e3d6000fd5b505050506040513d6000823e601f3d908101601f191682016040526111a391908101906129aa565b8152509050808585815181106111b557fe5b60209081029190910101525060019283019201610a1a565b50600101610a0d565b509091505090565b600154604051635512184360e01b81526000916001600160a01b0316906355121843906112119084903390600401612f2a565b60206040518083038186803b15801561122957600080fd5b505afa15801561123d573d6000803e3d6000fd5b505050506040513d601f19601f82011682018060405250611261919081019061298c565b60405163137004e360e31b81529091506001600160a01b03821690639b8027189061040590869086906004016130b9565b336000908152600360209081526040918290208054835181840281018401909452808452606093928301828280156105aa5760200282019190600052602060002090815481526020019060010190808311610596575050505050905090565b600154600082815260056020526040808220549051635512184360e01b815260609384928392839286926001600160a01b039182169263551218439261133e928692911690600401612f0a565b60206040518083038186803b15801561135657600080fd5b505afa15801561136a573d6000803e3d6000fd5b505050506040513d601f19601f8201168201806040525061138e919081019061298c565b905060005b816001600160a01b03166342bd82726040518163ffffffff1660e01b815260040160206040518083038186803b1580156113cc57600080fd5b505afa1580156113e0573d6000803e3d6000fd5b505050506040513d601f19601f820116820180604052506114049190810190612b54565b81101561194c5760405163180aedf360e01b815288906001600160a01b0384169063180aedf3906114399085906004016130ab565b60206040518083038186803b15801561145157600080fd5b505afa158015611465573d6000803e3d6000fd5b505050506040513d601f19601f82011682018060405250611489919081019061298c565b6001600160a01b031663c2939d976040518163ffffffff1660e01b815260040160206040518083038186803b1580156114c157600080fd5b505afa1580156114d5573d6000803e3d6000fd5b505050506040513d601f19601f820116820180604052506114f99190810190612b54565b14156119445760405163180aedf360e01b81526001600160a01b0383169063180aedf39061152b9084906004016130ab565b60206040518083038186803b15801561154357600080fd5b505afa158015611557573d6000803e3d6000fd5b505050506040513d601f19601f8201168201806040525061157b919081019061298c565b6001600160a01b031663b8d80f9a6040518163ffffffff1660e01b815260040160006040518083038186803b1580156115b357600080fd5b505afa1580156115c7573d6000803e3d6000fd5b505050506040513d6000823e601f3d908101601f191682016040526115ef91908101906129aa565b60405163180aedf360e01b81526001600160a01b0384169063180aedf39061161b9085906004016130ab565b60206040518083038186803b15801561163357600080fd5b505afa158015611647573d6000803e3d6000fd5b505050506040513d601f19601f8201168201806040525061166b919081019061298c565b6001600160a01b0316630397b6526040518163ffffffff1660e01b815260040160206040518083038186803b1580156116a357600080fd5b505afa1580156116b7573d6000803e3d6000fd5b505050506040513d601f19601f820116820180604052506116db9190810190612b54565b60405163180aedf360e01b81526001600160a01b0385169063180aedf3906117079086906004016130ab565b60206040518083038186803b15801561171f57600080fd5b505afa158015611733573d6000803e3d6000fd5b505050506040513d601f19601f82011682018060405250611757919081019061298c565b6001600160a01b0316635d35f5f96040518163ffffffff1660e01b815260040160006040518083038186803b15801561178f57600080fd5b505afa1580156117a3573d6000803e3d6000fd5b505050506040513d6000823e601f3d908101601f191682016040526117cb91908101906129aa565b60405163180aedf360e01b81526001600160a01b0386169063180aedf3906117f79087906004016130ab565b60206040518083038186803b15801561180f57600080fd5b505afa158015611823573d6000803e3d6000fd5b505050506040513d601f19601f82011682018060405250611847919081019061298c565b6001600160a01b0316638080be776040518163ffffffff1660e01b815260040160006040518083038186803b15801561187f57600080fd5b505afa158015611893573d6000803e3d6000fd5b505050506040513d6000823e601f3d908101601f191682016040526118bb91908101906129aa565b856001600160a01b031663f5ec2eed6040518163ffffffff1660e01b815260040160006040518083038186803b1580156118f457600080fd5b505afa158015611908573d6000803e3d6000fd5b505050506040513d6000823e601f3d908101601f1916820160405261193091908101906129aa565b939a5091985096509450925061194f915050565b600101611393565b50505b91939590929450565b6001546040516305ccb78360e51b81526060916001600160a01b03169063b996f0609061198c906000903390600401612f2a565b60006040518083038186803b1580156119a457600080fd5b505afa1580156119b8573d6000803e3d6000fd5b505050506040513d6000823e601f3d908101601f191682016040526119e091908101906129aa565b905090565b600154604051635512184360e01b81526060916000916001600160a01b0390911690635512184390611a1d9084908790600401612f0a565b60206040518083038186803b158015611a3557600080fd5b505afa158015611a49573d6000803e3d6000fd5b505050506040513d601f19601f82011682018060405250611a6d919081019061298c565b60405163d004eb0f60e01b81529091506001600160a01b0382169063d004eb0f906104f590879033906004016130d4565b600154604051635512184360e01b81526060916000916001600160a01b0390911690635512184390611ad69084903390600401612f2a565b60206040518083038186803b158015611aee57600080fd5b505afa158015611b02573d6000803e3d6000fd5b505050506040513d601f19601f82011682018060405250611b26919081019061298c565b90506060816001600160a01b03166342bd82726040518163ffffffff1660e01b815260040160206040518083038186803b158015611b6357600080fd5b505afa158015611b77573d6000803e3d6000fd5b505050506040513d601f19601f82011682018060405250611b9b9190810190612b54565b604051908082528060200260200182016040528015611bd457816020015b611bc16125cf565b815260200190600190039081611bb95790505b5090506000805b836001600160a01b03166342bd82726040518163ffffffff1660e01b815260040160206040518083038186803b158015611c1457600080fd5b505afa158015611c28573d6000803e3d6000fd5b505050506040513d601f19601f82011682018060405250611c4c9190810190612b54565b8110156122b757611c5b6125cf565b6040805160e081019182905263180aedf360e01b909152806001600160a01b03871663180aedf3611c8f8660e485016130ab565b60206040518083038186803b158015611ca757600080fd5b505afa158015611cbb573d6000803e3d6000fd5b505050506040513d601f19601f82011682018060405250611cdf919081019061298c565b6001600160a01b031663b8d80f9a6040518163ffffffff1660e01b815260040160006040518083038186803b158015611d1757600080fd5b505afa158015611d2b573d6000803e3d6000fd5b505050506040513d6000823e601f3d908101601f19168201604052611d5391908101906129aa565b8152602001866001600160a01b031663180aedf3856040518263ffffffff1660e01b8152600401611d8491906130ab565b60206040518083038186803b158015611d9c57600080fd5b505afa158015611db0573d6000803e3d6000fd5b505050506040513d601f19601f82011682018060405250611dd4919081019061298c565b6001600160a01b031663c2939d976040518163ffffffff1660e01b815260040160206040518083038186803b158015611e0c57600080fd5b505afa158015611e20573d6000803e3d6000fd5b505050506040513d601f19601f82011682018060405250611e449190810190612b54565b8152602001866001600160a01b031663180aedf3856040518263ffffffff1660e01b8152600401611e7591906130ab565b60206040518083038186803b158015611e8d57600080fd5b505afa158015611ea1573d6000803e3d6000fd5b505050506040513d601f19601f82011682018060405250611ec5919081019061298c565b6001600160a01b0316631eba26796040518163ffffffff1660e01b815260040160206040518083038186803b158015611efd57600080fd5b505afa158015611f11573d6000803e3d6000fd5b505050506040513d601f19601f82011682018060405250611f359190810190612847565b6001600160a01b03168152602001866001600160a01b031663180aedf3856040518263ffffffff1660e01b8152600401611f6f91906130ab565b60206040518083038186803b158015611f8757600080fd5b505afa158015611f9b573d6000803e3d6000fd5b505050506040513d601f19601f82011682018060405250611fbf919081019061298c565b6001600160a01b0316630397b6526040518163ffffffff1660e01b815260040160206040518083038186803b158015611ff757600080fd5b505afa15801561200b573d6000803e3d6000fd5b505050506040513d601f19601f8201168201806040525061202f9190810190612b54565b8152602001866001600160a01b031663180aedf3856040518263ffffffff1660e01b815260040161206091906130ab565b60206040518083038186803b15801561207857600080fd5b505afa15801561208c573d6000803e3d6000fd5b505050506040513d601f19601f820116820180604052506120b0919081019061298c565b6001600160a01b0316637b2414e16040518163ffffffff1660e01b815260040160206040518083038186803b1580156120e857600080fd5b505afa1580156120fc573d6000803e3d6000fd5b505050506040513d601f19601f820116820180604052506121209190810190612b54565b8152602001866001600160a01b031663180aedf3856040518263ffffffff1660e01b815260040161215191906130ab565b60206040518083038186803b15801561216957600080fd5b505afa15801561217d573d6000803e3d6000fd5b505050506040513d601f19601f820116820180604052506121a1919081019061298c565b6001600160a01b03166322f3e2d46040518163ffffffff1660e01b815260040160206040518083038186803b1580156121d957600080fd5b505afa1580156121ed573d6000803e3d6000fd5b505050506040513d601f19601f82011682018060405250612211919081019061296e565b15158152602001866001600160a01b031663f5ec2eed6040518163ffffffff1660e01b815260040160006040518083038186803b15801561225157600080fd5b505afa158015612265573d6000803e3d6000fd5b505050506040513d6000823e601f3d908101601f1916820160405261228d91908101906129aa565b81525090508084848151811061229f57fe5b60209081029190910101525060019182019101611bdb565b50909250505090565b600154604051635512184360e01b8152606091829182916000916001600160a01b03909116906355121843906122fc9084903390600401612f2a565b60206040518083038186803b15801561231457600080fd5b505afa158015612328573d6000803e3d6000fd5b505050506040513d601f19601f8201168201806040525061234c919081019061298c565b60405163d5e7882960e01b81529091506001600160a01b0382169063d5e788299061237b9088906004016130ab565b60006040518083038186803b15801561239357600080fd5b505afa1580156123a7573d6000803e3d6000fd5b505050506040513d6000823e601f3d908101601f191682016040526123cf91908101906128dd565b935093509350509193909250565b60006040516123eb90612617565b604051809103906000f080158015612407573d6000803e3d6000fd5b506040516338f0326960e01b81529091506001600160a01b038216906338f03269906124399085903390600401612f99565b600060405180830381600087803b15801561245357600080fd5b505af1158015612467573d6000803e3d6000fd5b5050600080546001810182559080527f290decd9548b62a8d60345a988386fc84ba6bc95484008f6362f93160ef3e5630180546001600160a01b0319166001600160a01b039490941693909317909255505050565b600154604051635512184360e01b81526000916001600160a01b0316906355121843906124ef9084903390600401612f2a565b60206040518083038186803b15801561250757600080fd5b505afa15801561251b573d6000803e3d6000fd5b505050506040513d601f19601f8201168201806040525061253f919081019061298c565b604051630374e91760e61b81529091506001600160a01b0382169063dd3a45c09061040590869086906004016130b9565b336000908152600260209081526040918290208054835181840281018401909452808452606093928301828280156105aa5760200282019190600052602060002090815481526020019060010190808311610596575050505050905090565b6040518060e00160405280606081526020016000815260200160006001600160a01b031681526020016000815260200160008152602001600015158152602001606081525090565b6128d88061328e83390190565b803561054d8161325b565b805161054d8161325b565b600082601f83011261264b57600080fd5b815161265e61265982613151565b61312b565b9150818183526020840193506020810190508385602084028201111561268357600080fd5b60005b838110156126af5781612699888261262f565b8452506020928301929190910190600101612686565b5050505092915050565b600082601f8301126126ca57600080fd5b81516126d861265982613151565b81815260209384019390925082018360005b838110156126af5781518601612700888261279c565b84525060209283019291909101906001016126ea565b600082601f83011261272757600080fd5b815161273561265982613151565b9150818183526020840193506020810190508385602084028201111561275a57600080fd5b60005b838110156126af5781612770888261283c565b845250602092830192919091019060010161275d565b805161054d81613272565b805161054d8161327b565b600082601f8301126127ad57600080fd5b81516127bb61265982613171565b915080825260208301602083018583830111156127d757600080fd5b6127e2838284613202565b50505092915050565b600082601f8301126127fc57600080fd5b813561280a61265982613171565b9150808252602083016020830185838301111561282657600080fd5b6127e28382846131f6565b803561054d81613284565b805161054d81613284565b60006020828403121561285957600080fd5b6000610549848461262f565b6000806000806080858703121561287b57600080fd5b60006128878787612624565b945050602061289887828801612831565b93505060408501356001600160401b038111156128b457600080fd5b6128c0878288016127eb565b92505060606128d187828801612831565b91505092959194509250565b6000806000606084860312156128f257600080fd5b83516001600160401b0381111561290857600080fd5b6129148682870161263a565b93505060208401516001600160401b0381111561293057600080fd5b61293c868287016126b9565b92505060408401516001600160401b0381111561295857600080fd5b61296486828701612716565b9150509250925092565b60006020828403121561298057600080fd5b60006105498484612786565b60006020828403121561299e57600080fd5b60006105498484612791565b6000602082840312156129bc57600080fd5b81516001600160401b038111156129d257600080fd5b6105498482850161279c565b6000602082840312156129f057600080fd5b81356001600160401b03811115612a0657600080fd5b610549848285016127eb565b60008060008060808587031215612a2857600080fd5b84516001600160401b03811115612a3e57600080fd5b612a4a8782880161279c565b9450506020612a5b8782880161262f565b9350506040612a6c8782880161283c565b92505060606128d18782880161283c565b600080600080600060a08688031215612a9557600080fd5b85356001600160401b03811115612aab57600080fd5b612ab7888289016127eb565b9550506020612ac888828901612831565b94505060408601356001600160401b03811115612ae457600080fd5b612af0888289016127eb565b93505060608601356001600160401b03811115612b0c57600080fd5b612b18888289016127eb565b9250506080612b2988828901612831565b9150509295509295909350565b600060208284031215612b4857600080fd5b60006105498484612831565b600060208284031215612b6657600080fd5b6000610549848461283c565b60008060408385031215612b8557600080fd5b6000612b918585612831565b9250506020612ba285828601612624565b9150509250929050565b6000612bb88383612bff565b505060200190565b6000612bb88383612ddc565b60006107dc8383612de5565b60006107dc8383612e1d565b6000612bb88383612eb7565b612bf9816131eb565b82525050565b612bf9816131cd565b6000612c13826131aa565b612c1d81856131b8565b9350612c2883613198565b8060005b83811015612c56578151612c408882612bac565b9750612c4b83613198565b925050600101612c2c565b509495945050505050565b6000612c6c826131ae565b612c7681856131b8565b9350612c818361319e565b8060005b83811015612c5657612c9682613245565b612ca08882612bc0565b9750612cab836131b2565b925050600101612c85565b6000612cc1826131aa565b612ccb81856131b8565b935083602082028501612cdd85613198565b8060005b85811015612d175784840389528151612cfa8582612bcc565b9450612d0583613198565b60209a909a0199925050600101612ce1565b5091979650505050505050565b6000612d2f826131aa565b612d3981856131b8565b935083602082028501612d4b85613198565b8060005b85811015612d175784840389528151612d688582612bd8565b9450612d7383613198565b60209a909a0199925050600101612d4f565b6000612d90826131aa565b612d9a81856131b8565b9350612da583613198565b8060005b83811015612c56578151612dbd8882612be4565b9750612dc883613198565b925050600101612da9565b612bf9816131d8565b612bf9816131dd565b6000612df0826131aa565b612dfa81856131b8565b9350612e0a818560208601613202565b612e1381613251565b9093019392505050565b805160e080845260009190840190612e358282612de5565b9150506020830151612e4a6020860182612eb7565b506040830151612e5d6040860182612bff565b506060830151612e706060860182612eb7565b506080830151612e836080860182612eb7565b5060a0830151612e9660a0860182612dd3565b5060c083015184820360c0860152612eae8282612de5565b95945050505050565b612bf9816131e8565b60608082528101612ed18186612c08565b90508181036020830152612ee58185612cb6565b90508181036040830152612eae8184612d85565b602080825281016107dc8184612c61565b60408082528101612f1b8185612c61565b90506107dc6020830184612bff565b60408082528101612f3b8185612c61565b90506107dc6020830184612bf0565b602080825281016107dc8184612d24565b602080825281016107dc8184612d85565b6020810161054d8284612dd3565b6020810161054d8284612ddc565b602080825281016107dc8184612de5565b60408082528101612f3b8185612de5565b60c08082528101612fbb8189612de5565b9050612fca6020830188612bf0565b612fd76040830187612eb7565b8181036060830152612fe98186612de5565b90508181036080830152612ffd8185612de5565b905061300c60a0830184612eb7565b979650505050505050565b608080825281016130288187612de5565b90506130376020830186612bff565b6130446040830185612eb7565b612eae6060830184612eb7565b60a080825281016130628188612de5565b90506130716020830187612eb7565b81810360408301526130838186612de5565b905081810360608301526130978185612de5565b9050818103608083015261300c8184612de5565b6020810161054d8284612eb7565b604081016130c78285612eb7565b6107dc6020830184612bff565b604081016130e28285612eb7565b6107dc6020830184612bf0565b608081016130fd8287612eb7565b61310a6020830186612bf0565b818103604083015261311c8185612de5565b9050612eae6060830184612eb7565b6040518181016001600160401b038111828210171561314957600080fd5b604052919050565b60006001600160401b0382111561316757600080fd5b5060209081020190565b60006001600160401b0382111561318757600080fd5b506020601f91909101601f19160190565b60200190565b60009081526020902090565b5190565b5490565b60010190565b90815260200190565b6001600160a01b031690565b600061054d826131c1565b151590565b600061054d826131cd565b90565b600061054d826131dd565b82818337506000910152565b60005b8381101561321d578181015183820152602001613205565b8381111561322c576000848401525b50505050565b600061054d613240836131e8565b6131c1565b600061054d8254613232565b601f01601f191690565b613264816131cd565b811461326f57600080fd5b50565b613264816131d8565b613264816131dd565b613264816131e856fe608060405234801561001057600080fd5b506128b8806100206000396000f3fe608060405234801561001057600080fd5b50600436106101005760003560e01c806382afd23b11610097578063d5e7882911610066578063d5e7882914610214578063dd3a45c014610236578063e9f30b5114610249578063f5ec2eed1461025c57610100565b806382afd23b146101bb5780639b802718146101db578063bf22c457146101ee578063d004eb0f1461020157610100565b8063351e476e116100d3578063351e476e1461016b57806338f032691461018b57806342bd82721461019e57806353e1ead9146101a657610100565b8063168342d314610105578063180aedf31461011a57806324d7356714610143578063323046b114610156575b600080fd5b610118610113366004610c8e565b610264565b005b61012d610128366004610d5c565b610360565b60405161013a91906110f9565b60405180910390f35b610118610151366004610d98565b610387565b61015e6103f8565b60405161013a9190611199565b61017e610179366004610d98565b6103fe565b60405161013a9190611107565b610118610199366004610c3d565b610498565b61015e6104d3565b6101ae6104d9565b60405161013a9190611064565b6101ce6101c9366004610d5c565b6104e8565b60405161013a91906110eb565b6101186101e9366004610d98565b610570565b61012d6101fc366004610d5c565b6105aa565b61017e61020f366004610d98565b610686565b610227610222366004610d5c565b6106c2565b60405161013a939291906110a9565b610118610244366004610d98565b610757565b610118610257366004610db7565b610791565b61017e610808565b600060405161027290610896565b604051809103906000f08015801561028e573d6000803e3d6000fd5b506040516301e5865960e51b81529091506001600160a01b03821690633cb0cb20906102cb908a908a908a908a908a908a90600090600401611118565b600060405180830381600087803b1580156102e557600080fd5b505af11580156102f9573d6000803e3d6000fd5b505060028054600180820183556000929092527f405787fa12a823e0f2b7631cc41b3ba8828b3321ca811111fa75cd3aa3bb5ace0180546001600160a01b0319166001600160a01b0395909516949094179093555050600380549091019055505050505050565b6002818154811061036d57fe5b6000918252602090912001546001600160a01b0316905081565b6000610392836105aa565b60405163036c197d60e21b81529091506001600160a01b03821690630db065f4906103c1908590600401611064565b600060405180830381600087803b1580156103db57600080fd5b505af11580156103ef573d6000803e3d6000fd5b50505050505050565b60045481565b6060600061040b846105aa565b60405163baab979760e01b81529091506001600160a01b0382169063baab97979061043a908690600401611064565b60006040518083038186803b15801561045257600080fd5b505afa158015610466573d6000803e3d6000fd5b505050506040513d6000823e601f3d908101601f1916820160405261048e9190810190610c08565b9150505b92915050565b81516104ab9060009060208501906108a3565b50600180546001600160a01b0319166001600160a01b03929092169190911790555042600455565b60035481565b6001546001600160a01b031681565b6000806104f4836105aa565b9050806001600160a01b03166322f3e2d46040518163ffffffff1660e01b815260040160206040518083038186803b15801561052f57600080fd5b505afa158015610543573d6000803e3d6000fd5b505050506040513d601f19601f820116820180604052506105679190810190610bea565b9150505b919050565b600061057b836105aa565b604051635c8ee5cf60e01b81529091506001600160a01b03821690635c8ee5cf906103c1908590600401611064565b6000805b6002548110156106805782600282815481106105c657fe5b600091825260209182902001546040805163c2939d9760e01b815290516001600160a01b039092169263c2939d9792600480840193829003018186803b15801561060f57600080fd5b505afa158015610623573d6000803e3d6000fd5b505050506040513d601f19601f820116820180604052506106479190810190610d7a565b1415610678576002818154811061065a57fe5b6000918252602090912001546001600160a01b0316915061056b9050565b6001016105ae565b50919050565b60606000610693846105aa565b60405163271c33cd60e11b81529091506001600160a01b03821690634e38679a9061043a908690600401611064565b606080606060006106d2856105aa565b9050806001600160a01b0316638813ce126040518163ffffffff1660e01b815260040160006040518083038186803b15801561070d57600080fd5b505afa158015610721573d6000803e3d6000fd5b505050506040513d6000823e601f3d908101601f191682016040526107499190810190610b56565b935093509350509193909250565b6000610762836105aa565b60405163ab0da5a960e01b81529091506001600160a01b0382169063ab0da5a9906103c1908590600401611064565b600061079c856105aa565b60405163b4cc4f7960e01b81529091506001600160a01b0382169063b4cc4f79906107cf90879087908790600401611072565b600060405180830381600087803b1580156107e957600080fd5b505af11580156107fd573d6000803e3d6000fd5b505050505050505050565b6000805460408051602060026001851615610100026000190190941693909304601f8101849004840282018401909252818152929183018282801561088e5780601f106108635761010080835404028352916020019161088e565b820191906000526020600020905b81548152906001019060200180831161087157829003601f168201915b505050505081565b6115a9806112cd83390190565b828054600181600116156101000203166002900490600052602060002090601f016020900481019282601f106108e457805160ff1916838001178555610911565b82800160010185558215610911579182015b828111156109115782518255916020019190600101906108f6565b5061091d929150610921565b5090565b61093b91905b8082111561091d5760008155600101610927565b90565b8035610492816112a3565b8051610492816112a3565b600082601f83011261096557600080fd5b8151610978610973826111ce565b6111a7565b9150818183526020840193506020810190508385602084028201111561099d57600080fd5b60005b838110156109c957816109b38882610949565b84525060209283019291909101906001016109a0565b5050505092915050565b600082601f8301126109e457600080fd5b81516109f2610973826111ce565b81815260209384019390925082018360005b838110156109c95781518601610a1a8882610aab565b8452506020928301929190910190600101610a04565b600082601f830112610a4157600080fd5b8151610a4f610973826111ce565b91508181835260208401935060208101905083856020840282011115610a7457600080fd5b60005b838110156109c95781610a8a8882610b4b565b8452506020928301929190910190600101610a77565b8051610492816112ba565b600082601f830112610abc57600080fd5b8151610aca610973826111ef565b91508082526020830160208301858383011115610ae657600080fd5b610af1838284611269565b50505092915050565b600082601f830112610b0b57600080fd5b8135610b19610973826111ef565b91508082526020830160208301858383011115610b3557600080fd5b610af183828461125d565b8035610492816112c3565b8051610492816112c3565b600080600060608486031215610b6b57600080fd5b835167ffffffffffffffff811115610b8257600080fd5b610b8e86828701610954565b935050602084015167ffffffffffffffff811115610bab57600080fd5b610bb7868287016109d3565b925050604084015167ffffffffffffffff811115610bd457600080fd5b610be086828701610a30565b9150509250925092565b600060208284031215610bfc57600080fd5b600061048e8484610aa0565b600060208284031215610c1a57600080fd5b815167ffffffffffffffff811115610c3157600080fd5b61048e84828501610aab565b60008060408385031215610c5057600080fd5b823567ffffffffffffffff811115610c6757600080fd5b610c7385828601610afa565b9250506020610c848582860161093e565b9150509250929050565b60008060008060008060c08789031215610ca757600080fd5b863567ffffffffffffffff811115610cbe57600080fd5b610cca89828a01610afa565b9650506020610cdb89828a0161093e565b9550506040610cec89828a01610b40565b945050606087013567ffffffffffffffff811115610d0957600080fd5b610d1589828a01610afa565b935050608087013567ffffffffffffffff811115610d3257600080fd5b610d3e89828a01610afa565b92505060a0610d4f89828a01610b40565b9150509295509295509295565b600060208284031215610d6e57600080fd5b600061048e8484610b40565b600060208284031215610d8c57600080fd5b600061048e8484610b4b565b60008060408385031215610dab57600080fd5b6000610c738585610b40565b60008060008060808587031215610dcd57600080fd5b6000610dd98787610b40565b9450506020610dea8782880161093e565b935050604085013567ffffffffffffffff811115610e0757600080fd5b610e1387828801610afa565b9250506060610e2487828801610b40565b91505092959194509250565b6000610e3c8383610e63565b505060200190565b6000610e508383610f99565b9392505050565b6000610e3c838361105b565b610e6c81611236565b82525050565b6000610e7d82611229565b610e87818561122d565b9350610e9283611217565b8060005b83811015610ec0578151610eaa8882610e30565b9750610eb583611217565b925050600101610e96565b509495945050505050565b6000610ed682611229565b610ee0818561122d565b935083602082028501610ef285611217565b8060005b85811015610f2c5784840389528151610f0f8582610e44565b9450610f1a83611217565b60209a909a0199925050600101610ef6565b5091979650505050505050565b6000610f4482611229565b610f4e818561122d565b9350610f5983611217565b8060005b83811015610ec0578151610f718882610e57565b9750610f7c83611217565b925050600101610f5d565b610e6c81611241565b610e6c81611252565b6000610fa482611229565b610fae818561122d565b9350610fbe818560208601611269565b610fc781611299565b9093019392505050565b600081546001811660008114610fee576001811461101457611053565b607f6002830416610fff818761122d565b60ff1984168152955050602085019250611053565b60028204611022818761122d565b955061102d8561121d565b60005b8281101561104c57815488820152600190910190602001611030565b8701945050505b505092915050565b610e6c8161093b565b602081016104928284610e63565b606081016110808286610e63565b81810360208301526110928185610f99565b90506110a1604083018461105b565b949350505050565b606080825281016110ba8186610e72565b905081810360208301526110ce8185610ecb565b905081810360408301526110e28184610f39565b95945050505050565b602081016104928284610f87565b602081016104928284610f90565b60208082528101610e508184610f99565b60e08082528101611129818a610f99565b90506111386020830189610e63565b611145604083018861105b565b81810360608301526111578187610f99565b9050818103608083015261116b8186610f99565b905061117a60a083018561105b565b81810360c083015261118c8184610fd1565b9998505050505050505050565b60208101610492828461105b565b60405181810167ffffffffffffffff811182821017156111c657600080fd5b604052919050565b600067ffffffffffffffff8211156111e557600080fd5b5060209081020190565b600067ffffffffffffffff82111561120657600080fd5b506020601f91909101601f19160190565b60200190565b60009081526020902090565b5190565b90815260200190565b600061049282611246565b151590565b6001600160a01b031690565b600061049282611236565b82818337506000910152565b60005b8381101561128457818101518382015260200161126c565b83811115611293576000848401525b50505050565b601f01601f191690565b6112ac81611236565b81146112b757600080fd5b50565b6112ac81611241565b6112ac8161093b56fe608060405234801561001057600080fd5b50611589806100206000396000f3fe608060405234801561001057600080fd5b50600436106101c45760003560e01c80638813ce12116100f9578063baab979711610097578063dce523f811610071578063dce523f814610366578063f5ec2eed14610379578063f683747b14610381578063faf34aa914610394576101c4565b8063baab979714610338578063c2939d971461034b578063cd29485614610353576101c4565b8063a1194fcf116100d3578063a1194fcf146102f7578063ab0da5a91461030a578063b4cc4f791461031d578063b8d80f9a14610330576101c4565b80638813ce12146102c55780638c9878cc146102dc5780639056631d146102ef576101c4565b80633cb0cb20116101665780635c8ee5cf116101405780635c8ee5cf1461029a5780635d35f5f9146102ad5780637b2414e1146102b55780638080be77146102bd576101c4565b80633cb0cb20146102545780634cc82215146102675780634e38679a1461027a576101c4565b80631c270356116101a25780631c2703561461020f5780631eba26791461022f57806322bd6d3f1461023757806322f3e2d41461023f576101c4565b80630397b652146101c95780630db065f4146101e75780630f9c774d146101fc575b600080fd5b6101d16103a7565b6040516101de9190611457565b60405180910390f35b6101fa6101f53660046110a3565b6103ad565b005b6101d161020a366004611229565b610401565b61022261021d366004611229565b61041f565b6040516101de91906113e8565b610222610446565b610222610455565b610247610464565b6040516101de9190611438565b6101fa61026236600461112e565b610475565b6101fa610275366004611229565b610506565b61028d6102883660046110a3565b6105ae565b6040516101de9190611446565b6101fa6102a83660046110a3565b6106ed565b61028d610716565b6101d16107a4565b61028d6107aa565b6102cd610805565b6040516101de939291906113f6565b6102226102ea366004611229565b61099b565b6102476109a8565b61028d610305366004611229565b6109b8565b6101fa6103183660046110a3565b610a2b565b6101fa61032b3660046110c9565b610ad5565b61028d610bf3565b61028d6103463660046110a3565b610c4e565b6101d1610ce7565b6101fa610361366004611229565b610ced565b6101fa610374366004611229565b610d5e565b61028d610de1565b61022261038f366004611229565b610e3c565b6101fa6103a2366004611229565b610e49565b60055481565b60005b600a548110156103fd57816001600160a01b0316600a82815481106103d157fe5b6000918252602090912001546001600160a01b031614156103f5576103f581610506565b6001016103b0565b5050565b600c818154811061040e57fe5b600091825260209091200154905081565b6002818154811061042c57fe5b6000918252602090912001546001600160a01b0316905081565b6001546001600160a01b031681565b600d546001600160a01b031681565b600d54600160a01b900460ff165b90565b86516104889060009060208a0190610edf565b50600180546001600160a01b0319166001600160a01b038816179055600585905583516104bc906006906020870190610edf565b5082516104d0906007906020860190610edf565b50600482905580516104e9906008906020840190610edf565b5050600d805460ff60a01b1916600160a01b179055505050505050565b805b600a546000190181101561057d57600a816001018154811061052657fe5b600091825260209091200154600a80546001600160a01b03909216918390811061054c57fe5b600091825260209091200180546001600160a01b0319166001600160a01b0392909216919091179055600101610508565b50600a80548061058957fe5b600082815260209020810160001990810180546001600160a01b031916905501905550565b600d546060906001600160a01b03838116911614156105e95750604080518082019091526005815264121254915160da1b60208201526106e8565b60005b60025481101561065557826001600160a01b03166002828154811061060d57fe5b6000918252602090912001546001600160a01b0316141561064d5750506040805180820190915260078152661054141312515160ca1b60208201526106e8565b6001016105ec565b5060005b6009548110156106c357826001600160a01b03166009828154811061067a57fe5b6000918252602090912001546001600160a01b031614156106bb5750506040805180820190915260088152671491529150d5115160c21b60208201526106e8565b600101610659565b505060408051808201909152600b81526a1393d5081054141312515160aa1b60208201525b919050565b600d80546001600160a01b0319166001600160a01b03929092169190911760ff60a01b19169055565b6006805460408051602060026001851615610100026000190190941693909304601f8101849004840282018401909252818152929183018282801561079c5780601f106107715761010080835404028352916020019161079c565b820191906000526020600020905b81548152906001019060200180831161077f57829003601f168201915b505050505081565b60035481565b6007805460408051602060026001851615610100026000190190941693909304601f8101849004840282018401909252818152929183018282801561079c5780601f106107715761010080835404028352916020019161079c565b60608060606002600b600c8280548060200260200160405190810160405280929190818152602001828054801561086557602002820191906000526020600020905b81546001600160a01b03168152600190910190602001808311610847575b5050505050925081805480602002602001604051908101604052809291908181526020016000905b828210156109385760008481526020908190208301805460408051601f60026000196101006001871615020190941693909304928301859004850281018501909152818152928301828280156109245780601f106108f957610100808354040283529160200191610924565b820191906000526020600020905b81548152906001019060200180831161090757829003601f168201915b50505050508152602001906001019061088d565b5050505091508080548060200260200160405190810160405280929190818152602001828054801561098957602002820191906000526020600020905b815481526020019060010190808311610975575b50505050509050925092509250909192565b6009818154811061042c57fe5b600d54600160a01b900460ff1681565b600b81815481106109c557fe5b600091825260209182902001805460408051601f600260001961010060018716150201909416939093049283018590048502810185019091528181529350909183018282801561079c5780601f106107715761010080835404028352916020019161079c565b6009805460018101825560009182527f6e1540171b6c0c960b71a7020d9f60077f6af931a8bbf590da0223dacf75c7af0180546001600160a01b0319166001600160a01b0384161790555b6002548110156103fd57816001600160a01b031660028281548110610a9757fe5b6000918252602090912001546001600160a01b03161415610acd57610abb81610d5e565b610ac481610e49565b610acd81610ced565b600101610a76565b6002805460018082019092557f405787fa12a823e0f2b7631cc41b3ba8828b3321ca811111fa75cd3aa3bb5ace0180546001600160a01b0319166001600160a01b038616179055600b805491820180825560009190915283519091610b63917f0175b7a638427703f0dbe7bb9bbf987a2551717b34e79f33b5b1008d1fa01db9909101906020860190610edf565b5050600c805460018082019092557fdf6966c971051c3d54ec59162606531493a51404a002842f56009d7e5cf4a8c70191909155600a805480830182556000919091527fc65a7bb8d6351c1cf70c95a316cc6a92839c986682d98bc35f958f4883f9d2a80180546001600160a01b0319166001600160a01b03949094169390931790925550600380549091019055565b6000805460408051602060026001851615610100026000190190941693909304601f8101849004840282018401909252818152929183018282801561079c5780601f106107715761010080835404028352916020019161079c565b606060005b600a54811015610cc157826001600160a01b0316600a8281548110610c7457fe5b6000918252602090912001546001600160a01b03161415610cb957505060408051808201909152600c81526b139bdd0815995c9a599a595960a21b60208201526106e8565b600101610c53565b505060408051808201909152600881526715995c9a599a595960c21b6020820152919050565b60045481565b805b600c5460001901811015610d3957600c8160010181548110610d0d57fe5b9060005260206000200154600c8281548110610d2557fe5b600091825260209091200155600101610cef565b50600c805480610d4557fe5b6001900381819060005260206000200160009055905550565b805b60025460001901811015610dd55760028160010181548110610d7e57fe5b600091825260209091200154600280546001600160a01b039092169183908110610da457fe5b600091825260209091200180546001600160a01b0319166001600160a01b0392909216919091179055600101610d60565b50600280548061058957fe5b6008805460408051602060026001851615610100026000190190941693909304601f8101849004840282018401909252818152929183018282801561079c5780601f106107715761010080835404028352916020019161079c565b600a818154811061042c57fe5b805b600b5460001901811015610eb257600b8160010181548110610e6957fe5b90600052602060002001600b8281548110610e8057fe5b906000526020600020019080546001816001161561010002031660029004610ea9929190610f5d565b50600101610e4b565b50600b805480610ebe57fe5b600190038181906000526020600020016000610eda9190610fd2565b905550565b828054600181600116156101000203166002900490600052602060002090601f016020900481019282601f10610f2057805160ff1916838001178555610f4d565b82800160010185558215610f4d579182015b82811115610f4d578251825591602001919060010190610f32565b50610f59929150611019565b5090565b828054600181600116156101000203166002900490600052602060002090601f016020900481019282601f10610f965780548555610f4d565b82800160010185558215610f4d57600052602060002091601f016020900482015b82811115610f4d578254825591600101919060010190610fb7565b50805460018160011615610100020316600290046000825580601f10610ff85750611016565b601f0160209004906000526020600020908101906110169190611019565b50565b61047291905b80821115610f59576000815560010161101f565b803561103e81611529565b92915050565b600082601f83011261105557600080fd5b81356110686110638261148c565b611465565b9150808252602083016020830185838301111561108457600080fd5b61108f8382846114e3565b50505092915050565b803561103e8161153d565b6000602082840312156110b557600080fd5b60006110c18484611033565b949350505050565b6000806000606084860312156110de57600080fd5b60006110ea8686611033565b935050602084013567ffffffffffffffff81111561110757600080fd5b61111386828701611044565b925050604061112486828701611098565b9150509250925092565b600080600080600080600060e0888a03121561114957600080fd5b873567ffffffffffffffff81111561116057600080fd5b61116c8a828b01611044565b975050602061117d8a828b01611033565b965050604061118e8a828b01611098565b955050606088013567ffffffffffffffff8111156111ab57600080fd5b6111b78a828b01611044565b945050608088013567ffffffffffffffff8111156111d457600080fd5b6111e08a828b01611044565b93505060a06111f18a828b01611098565b92505060c088013567ffffffffffffffff81111561120e57600080fd5b61121a8a828b01611044565b91505092959891949750929550565b60006020828403121561123b57600080fd5b60006110c18484611098565b6000611253838361127a565b505060200190565b600061126783836113a7565b9392505050565b600061125383836113df565b611283816114c7565b82525050565b6000611294826114ba565b61129e81856114be565b93506112a9836114b4565b8060005b838110156112d75781516112c18882611247565b97506112cc836114b4565b9250506001016112ad565b509495945050505050565b60006112ed826114ba565b6112f781856114be565b935083602082028501611309856114b4565b8060005b858110156113435784840389528151611326858261125b565b9450611331836114b4565b60209a909a019992505060010161130d565b5091979650505050505050565b600061135b826114ba565b61136581856114be565b9350611370836114b4565b8060005b838110156112d7578151611388888261126e565b9750611393836114b4565b925050600101611374565b611283816114d2565b60006113b2826114ba565b6113bc81856114be565b93506113cc8185602086016114ef565b6113d58161151f565b9093019392505050565b61128381610472565b6020810161103e828461127a565b606080825281016114078186611289565b9050818103602083015261141b81856112e2565b9050818103604083015261142f8184611350565b95945050505050565b6020810161103e828461139e565b6020808252810161126781846113a7565b6020810161103e82846113df565b60405181810167ffffffffffffffff8111828210171561148457600080fd5b604052919050565b600067ffffffffffffffff8211156114a357600080fd5b506020601f91909101601f19160190565b60200190565b5190565b90815260200190565b600061103e826114d7565b151590565b6001600160a01b031690565b82818337506000910152565b60005b8381101561150a5781810151838201526020016114f2565b83811115611519576000848401525b50505050565b601f01601f191690565b611532816114c7565b811461101657600080fd5b6115328161047256fea365627a7a72315820cb8e2ee148e008a89e4c022f078e3eefcd84352cb9f95b4f7e02fb92e08a9d6b6c6578706572696d656e74616cf564736f6c63430005100040a365627a7a72315820e58ebafae7cddaa71ba90f0f03753163ce1728b2106667179f1c4a74e71e49286c6578706572696d656e74616cf564736f6c63430005100040a365627a7a7231582060341d054cae36181b3f56a95971fe2875e2a259f53af5b38bea69dd88a1f2926c6578706572696d656e74616cf564736f6c63430005100040608060405234801561001057600080fd5b50610948806100206000396000f3fe608060405234801561001057600080fd5b506004361061004c5760003560e01c8063179a78c31461005157806334072c521461007d578063551218431461009d578063b996f060146100bd575b600080fd5b61006461005f36600461068c565b6100dd565b60405161007494939291906107af565b60405180910390f35b61009061008b366004610657565b61025a565b60405161007491906107f2565b6100b06100ab36600461068c565b6102ff565b6040516100749190610789565b6100d06100cb36600461068c565b6103d3565b6040516100749190610797565b60606000806000806100ef87876102ff565b9050806001600160a01b031663f5ec2eed6040518163ffffffff1660e01b815260040160006040518083038186803b15801561012a57600080fd5b505afa15801561013e573d6000803e3d6000fd5b505050506040513d6000823e601f3d908101601f1916820160405261016691908101906106dd565b86826001600160a01b03166342bd82726040518163ffffffff1660e01b815260040160206040518083038186803b1580156101a057600080fd5b505afa1580156101b4573d6000803e3d6000fd5b505050506040513d601f19601f820116820180604052506101d89190810190610712565b836001600160a01b031663323046b16040518163ffffffff1660e01b815260040160206040518083038186803b15801561021157600080fd5b505afa158015610225573d6000803e3d6000fd5b505050506040513d601f19601f820116820180604052506102499190810190610712565b929a91995097509095509350505050565b600080805b83518110156102f85783818151811061027457fe5b60200260200101516001600160a01b03166342bd82726040518163ffffffff1660e01b815260040160206040518083038186803b1580156102b457600080fd5b505afa1580156102c8573d6000803e3d6000fd5b505050506040513d601f19601f820116820180604052506102ec9190810190610712565b9091019060010161025f565b5092915050565b6000805b83518110156102f857826001600160a01b031684828151811061032257fe5b60200260200101516001600160a01b03166353e1ead96040518163ffffffff1660e01b815260040160206040518083038186803b15801561036257600080fd5b505afa158015610376573d6000803e3d6000fd5b505050506040513d601f19601f8201168201806040525061039a9190810190610631565b6001600160a01b031614156103c5578381815181106103b557fe5b60200260200101519150506103cd565b600101610303565b92915050565b606060005b835181101561051657826001600160a01b03168482815181106103f757fe5b60200260200101516001600160a01b03166353e1ead96040518163ffffffff1660e01b815260040160206040518083038186803b15801561043757600080fd5b505afa15801561044b573d6000803e3d6000fd5b505050506040513d601f19601f8201168201806040525061046f9190810190610631565b6001600160a01b0316141561050e5783818151811061048a57fe5b60200260200101516001600160a01b031663f5ec2eed6040518163ffffffff1660e01b815260040160006040518083038186803b1580156104ca57600080fd5b505afa1580156104de573d6000803e3d6000fd5b505050506040513d6000823e601f3d908101601f1916820160405261050691908101906106dd565b9150506103cd565b6001016103d8565b50506040805180820190915260028152616e6f60f01b602082015292915050565b80356103cd816108dc565b80516103cd816108dc565b600082601f83011261055e57600080fd5b813561057161056c82610827565b610800565b9150818183526020840193506020810190508385602084028201111561059657600080fd5b60005b838110156105c257816105ac88826105cc565b8452506020928301929190910190600101610599565b5050505092915050565b80356103cd816108f3565b600082601f8301126105e857600080fd5b81516105f661056c82610848565b9150808252602083016020830185838301111561061257600080fd5b61061d8382846108a2565b50505092915050565b80516103cd816108fc565b60006020828403121561064357600080fd5b600061064f8484610542565b949350505050565b60006020828403121561066957600080fd5b813567ffffffffffffffff81111561068057600080fd5b61064f8482850161054d565b6000806040838503121561069f57600080fd5b823567ffffffffffffffff8111156106b657600080fd5b6106c28582860161054d565b92505060206106d385828601610537565b9150509250929050565b6000602082840312156106ef57600080fd5b815167ffffffffffffffff81111561070657600080fd5b61064f848285016105d7565b60006020828403121561072457600080fd5b600061064f8484610626565b6107398161087d565b82525050565b61073981610888565b600061075382610870565b61075d8185610874565b935061076d8185602086016108a2565b610776816108d2565b9093019392505050565b6107398161089f565b602081016103cd828461073f565b602080825281016107a88184610748565b9392505050565b608080825281016107c08187610748565b90506107cf6020830186610730565b6107dc6040830185610780565b6107e96060830184610780565b95945050505050565b602081016103cd8284610780565b60405181810167ffffffffffffffff8111828210171561081f57600080fd5b604052919050565b600067ffffffffffffffff82111561083e57600080fd5b5060209081020190565b600067ffffffffffffffff82111561085f57600080fd5b506020601f91909101601f19160190565b5190565b90815260200190565b60006103cd82610893565b60006103cd8261087d565b6001600160a01b031690565b90565b60005b838110156108bd5781810151838201526020016108a5565b838111156108cc576000848401525b50505050565b601f01601f191690565b6108e58161087d565b81146108f057600080fd5b50565b6108e581610888565b6108e58161089f56fea365627a7a723158208628179e6b49d43bc7444816836bb45e4dacfc91964860485dcc3645d0fada326c6578706572696d656e74616cf564736f6c63430005100040",
  "source": "// SPDX-License-Identifier: MIT\npragma solidity >=0.4.21 <0.7.0;\npragma experimental ABIEncoderV2;\nimport \"./Organisation.sol\";\nimport \"./Student.sol\";\nimport \"./Company.sol\";\nimport \"./HelperTwo.sol\";\n\ncontract OverAllTwo {\n    Company[] companies;\n    HelperTwo public helper = new HelperTwo();\n    struct jobSt {\n        string jobName;\n        uint256 jobId;\n        address postedBy;\n        uint256 salary;\n        uint256 noOfApplied;\n        bool isActive;\n        string companyName;\n    }\n\n    mapping(address => uint256[]) studentToApplied;\n    mapping(address => uint256[]) studentToRejected;\n    mapping(address => uint256[]) studentToHired;\n    mapping(uint256 => address) jobToCompany;\n\n    function addCompany(string memory _name) public {\n        Company c = new Company();\n        c.addCompany(_name, msg.sender);\n        companies.push(c);\n    }\n\n    function addJob(\n        string memory _jobName,\n        uint256 _salary,\n        string memory _jobLocation,\n        string memory _jobType,\n        uint256 _jobid\n    ) public {\n        for (uint256 i = 0; i < companies.length; i++) {\n            if (companies[i].companyAddress() == msg.sender) {\n                companies[i].addJob(\n                    _jobName,\n                    msg.sender,\n                    _salary,\n                    _jobLocation,\n                    _jobType,\n                    _jobid\n                );\n            }\n        }\n        jobToCompany[_jobid] = msg.sender;\n    }\n\n    function checkCompany() public view returns (string memory) {\n        return helper.checkCompany(companies, msg.sender);\n    }\n\n    function applyJob(\n        address _companyAddress,\n        uint256 _jobid,\n        string memory ipfs,\n        uint256 cerId\n    ) public {\n        Company c = helper.getCompany(companies, _companyAddress);\n        c.applyJob(_jobid, msg.sender, ipfs, cerId);\n        studentToApplied[msg.sender].push(_jobid);\n    }\n\n    function studentApplied() public view returns (uint256[] memory) {\n        return studentToApplied[msg.sender];\n    }\n\n    function studentRejected() public view returns (uint256[] memory) {\n        return studentToRejected[msg.sender];\n    }\n\n    function studentHired() public view returns (uint256[] memory) {\n        return studentToHired[msg.sender];\n    }\n\n    function getRequests(uint256 _jobid)\n        public\n        view\n        returns (\n            address[] memory,\n            string[] memory,\n            uint256[] memory\n        )\n    {\n        Company c = helper.getCompany(companies, msg.sender);\n        return c.getRequests(_jobid);\n    }\n\n    function verified(uint256 _jobid, address addr) public {\n        Company c = helper.getCompany(companies, msg.sender);\n        c.verified(_jobid, addr);\n        // return c.companyName();\n    }\n\n    function setHired(uint256 _jobid, address addr) public {\n        Company c = helper.getCompany(companies, msg.sender);\n        c.setHired(_jobid, addr);\n        // studentToHired[msg.sender].push(_jobid);\n    }\n\n    function checkVerification(uint256 _jobid, address addr)\n        public\n        view\n        returns (string memory)\n    {\n        Company c = helper.getCompany(companies, msg.sender);\n        return c.checkVerification(_jobid, addr);\n    }\n\n    function rejected(uint256 _jobid, address addr) public {\n        Company c = helper.getCompany(companies, msg.sender);\n        c.rejected(_jobid, addr);\n    }\n\n    function isActive(uint256 _jobid) public view returns (bool) {\n        Company c = helper.getCompany(companies, msg.sender);\n        return c.isActive(_jobid);\n    }\n\n    function getAllJobs() public view returns (jobSt[] memory) {\n        jobSt[] memory allJobs = new jobSt[](helper.totalJobs(companies));\n        uint256 k = 0;\n        for (uint256 i = 0; i < companies.length; i++) {\n            for (uint256 j = 0; j < companies[i].noOfJobs(); j++) {\n                jobSt memory jb = jobSt(\n                    companies[i].jobs(j).jobName(),\n                    companies[i].jobs(j).jobId(),\n                    companies[i].jobs(j).postedBy(),\n                    companies[i].jobs(j).salary(),\n                    companies[i].jobs(j).noOfApplied(),\n                    companies[i].jobs(j).isActive(),\n                    companies[i].companyName()\n                );\n                allJobs[k] = jb;\n                k++;\n            }\n        }\n        return allJobs;\n    }\n\n    function getSpecificJobs() public view returns (jobSt[] memory) {\n        Company c = helper.getCompany(companies, msg.sender);\n        jobSt[] memory allJobs = new jobSt[](c.noOfJobs());\n        uint256 k = 0;\n\n        for (uint256 j = 0; j < c.noOfJobs(); j++) {\n            jobSt memory jb = jobSt(\n                c.jobs(j).jobName(),\n                c.jobs(j).jobId(),\n                c.jobs(j).postedBy(),\n                c.jobs(j).salary(),\n                c.jobs(j).noOfApplied(),\n                c.jobs(j).isActive(),\n                c.companyName()\n            );\n            allJobs[k] = jb;\n            k++;\n        }\n        return allJobs;\n    }\n\n    function getJob(uint256 _jobid)\n        public\n        view\n        returns (\n            string memory,\n            uint256,\n            string memory,\n            string memory,\n            string memory\n        )\n    {\n        Company c = helper.getCompany(companies, jobToCompany[_jobid]);\n        for (uint256 i = 0; i < c.noOfJobs(); i++) {\n            if (c.jobs(i).jobId() == _jobid) {\n                return (\n                    c.jobs(i).jobName(),\n                    c.jobs(i).salary(),\n                    c.jobs(i).jobLocation(),\n                    c.jobs(i).jobType(),\n                    c.companyName()\n                );\n            }\n        }\n    }\n\n    function getCompanyDetails()\n        public\n        view\n        returns (\n            string memory,\n            address,\n            uint256,\n            uint256\n        )\n    {\n        return helper.getCompanyDetails(companies, msg.sender);\n    }\n\n    function jobStatus(uint256 _jobid, address company)\n        public\n        view\n        returns (string memory)\n    {\n        Company c = helper.getCompany(companies, company);\n        return c.jobStatus(_jobid, msg.sender);\n    }\n}\n",
  "sourcePath": "C:\\Users\\sthipp005\\Downloads\\cryptoblockchain\\blockcrypto\\contracts\\OverAllTwo.sol",
  "compiler": {
    "name": "solc",
    "version": "0.5.16+commit.9c3226ce.Emscripten.clang"
  },
  "schemaVersion": "3.4.11",
  "updatedAt": "2023-02-20T16:01:00.970Z",
  "networkType": "ethereum",
  "devdoc": {
    "methods": {}
  },
  "userdoc": {
    "methods": {}
  }
}